:020000040800F2
:10000000D0050020CD000008D5000008D70000086A
:1000100000000000000000000000000000000000E0
:10002000000000000000000000000000D9000008EF
:100030000000000000000000DB000008C91E0008EE
:10004000DF00000800000000DF000008DF000008FB
:10005000DF000008DF000008DF000008B902000828
:1000600000000000DF000008DF000008DF000008DB
:10007000DF000008DF000008DF00000800000000CB
:10008000DF000008DF000008DF000008DF000008D4
:10009000DF000008DF000008DF000008DF000008C4
:1000A000DF000008DF000008DF000008DF000008B4
:1000B00089300008DF0000080348854600F066F834
:1000C00000480047B9310008D005002004488047A7
:1000D00004480047FEE7FEE7FEE7FEE7FEE7FEE72F
:1000E000491F0008B900000830B50B460146002042
:1000F0002022012409E00D46D5409D4205D31D462E
:100100009540491B2546954040191546521E002D25
:10011000F1DC30BD70B500242546002801DA012449
:100120004042002901DA01254942FFF7DDFFAC42D8
:1001300000D04042002C00D0494270BDD2B201E054
:100140000270401C491EFBD270470022F6E710B532
:1001500013460A4604461946FFF7F0FF204610BD35
:10016000421C0178401C0029FBD1801A704710B551
:10017000002200E0521C835C8C5CA34201D1002B66
:10018000F8D1D8B2E1B2401A10BD0000064C0125EA
:10019000064E05E0E36807CC2B430C3C984710342F
:1001A000B442F7D3FFF78CFF083300082833000868
:1001B00010B53D493D480068FFF796FFFF2810D86D
:1001C00039493A480068FFF78FFF002809D03649BF
:1001D00036480068FFF788FF35490870732048707B
:1001E00023E07D21C90031480068FFF77DFFFF282B
:1001F00011D82D492D480068FFF776FF00280AD056
:100200007D21C90029480068FFF76EFF2849087062
:100210006D20487009E07D21C90024480068FFF77F
:1002200063FF23490870752048701F492148006802
:10023000FFF75AFFFF2810D81B491E480068FFF738
:1002400053FF002809D018491A480068FFF74CFFEF
:10025000174988707320C87023E07D21C9001548B4
:100260000068FFF741FFFF2811D30F4911480068CC
:10027000FFF73AFF00280AD07D21C9000D48006829
:10028000FFF732FF0A4988706D20C87009E07D21B0
:10029000C90008480068FFF727FF054988707520E6
:1002A000C870002010BD000040420F001400002064
:1002B000330100201000002010B5202000F06CF861
:1002C00010BD704770B50446002500BF00212420F2
:1002D000015500BF00BF005D012801D1022070BDA3
:1002E00001212420015500BF2520005D022803D0F4
:1002F0000420E06301253AE0206800680E2188436D
:100300002168086020680068400840002168086093
:10031000606C0068FF2101318843616C08601548FA
:1003200040681C22216C114001228A40104311496F
:100330004860A16CE06C4860206D002809D0206DF9
:100340000068FF2101318843216D0860616DA06D57
:10035000486001212520015500BF002124200155BE
:1003600000BFA06B002802D02046A16B884728461A
:10037000B5E700000000024010B5044602F00EFF91
:10038000002807D0202C05D101F0A2FC01F05EFC72
:1003900002F0DEFE10BD000010B504460A48C06839
:1003A0002040002804D00848C460204600F00EF821
:1003B000054800692040002804D003480461204615
:1003C000FFF7DAFF10BD00000018024010B5044628
:1003D00081480078022848D180480078401C7F4935
:1003E00008700846007809280FDA7D480078400632
:1003F000000E7B49087010217A4800F0E5F9784931
:100400000978084376490870E4E075480078A0212F
:10041000084073490978884203D100206E4908706A
:100420001DE06F480078A12108406D490978884295
:100430000DD10120684908706B480078401CC0B29B
:10044000694908706949085C6549087007E000203F
:100450006249087001F024FC01F030FC10BD01F08D
:100460006BFC00205D490870B4E05B480078002810
:1004700061D15A480078401C5849087008460078F5
:1004800009280FDA564800784006000E54490870D3
:100490001021544800F098F951490978084350490F
:1004A000087097E052480078002804D14C48007842
:1004B0004E49087025E04D480078F02809D1484899
:1004C00001784B480078494A115403204949087083
:1004D00017E0464800780F280AD14148017844487F
:1004E0000078801C414A115403204249087008E0FA
:1004F0003B4800783D493E4A1278885405203D49E2
:1005000008703B480078401C39490870084600785C
:1005100038490978884202DA01F00EFC07E001F060
:1005200019FC01F0CBFB01F0BBFB02F067FE0020E1
:100530002A4908704EE02848007801284AD1274807
:100540000078401C254908700846007809281DDA03
:100550002348007880210840002803D0102021493A
:10056000886102E010201F4988621D48007840061B
:10057000000E1B4908701948007808282AD10C2061
:1005800002F0DBFD10201749886123E01021154897
:1005900000F01AF9002807D010201249886101F0F4
:1005A0007FFB01F08BFB59E70F48007805280ADA3A
:1005B0000D480078401CC0B20B4908700B49085C1C
:1005C0000749087003E001F06BFB01F077FB0020A6
:1005D0000249087000BF41E70D000020080000201C
:1005E00009000020000800500C0000201800002026
:1005F0000A0000200B00002070B503460022D5E061
:10060000012696400C683440002C71D04D68022DB4
:1006100002D04D68122D15D1D508AE001D462035EB
:10062000A8595507EE0E0F25B5400646AE43304695
:100630005607F60E0D69B5402843D508AD001E4695
:1006400020367051186856000325B5400646AE4363
:1006500030460D79AD07AD0F5600B5402843186000
:100660004D68012D08D04D68022D05D04D68112D23
:1006700002D04D68122D18D1986856000325B54058
:100680000646AE4330465600CD68B54028439860D4
:100690005868012595400646AE43304610264D6801
:1006A00035402D09954028435860D86856000325E9
:1006B000B5400646AE43304656008D68B5402843E7
:1006C000D860012636074D683540B5426DD13A4DA8
:1006D0009608B600A8599507EE0E0F25B5400646B8
:1006E000AE43304605252D07AB4202D1002510E070
:1006F0005BE0324DAB4201D101250AE0304DAB4207
:1007000001D1022505E02F4DAB4201D1032500E0C8
:1007100005259607F60EB5402843274D9608B600E6
:10072000A851254D203528680546A54328460126B1
:1007300036044D683540B54202D10546254328466A
:100740001D4D2035286068680546A54328460126CA
:1007500076044D683540B54202D10546254328460A
:10076000154D20356860144D603D28680546A54349
:100770002846012636054D683540B54202D105466A
:10078000254328460C4D603D286068680546A54312
:100790002846012676054D683540B54202D105460A
:1007A00025432846044D603D6860521C0D68D540C5
:1007B000002D00D024E770BD6018024000040050F6
:1007C00000080050000C0050024613690B40002B3B
:1007D00001D0012000E000207047002A01D0816193
:1007E00000E0816270470000014800687047000027
:1007F00024000020034800680349096840180149A3
:1008000008607047240000202C00002010B5002450
:1008100008480068FF2101310843064908600020AC
:1008200000F00AF8002801D0012401E000F034F8BB
:10083000204610BD00200240F8B5044600251348AC
:10084000006800281ED0114801687D20C000FFF715
:100850004BFC074639460E480068FFF745FC064644
:1008600000F0E0FC00280BD1042C07D20022214626
:10087000401E00F045F80748046004E0012502E04E
:10088000012500E001252846F8BD00002C000020CD
:10089000300000202800002008B500BF1048006884
:1008A000012108430E49086008460068C007C00FD0
:1008B000009000BF00BF00BF09484038C06B8905E9
:1008C000084307494039C8630846C06B090408401B
:1008D000009000BF00BF0320400200F097FC08BD5D
:1008E000401002400146002905DBCB06DB0E012249
:1008F0009A40024B1A6000BF7047000000E100E020
:1009000070B504460D4616462946204602F0CAFB3D
:1009100070BD000070B5044611480068032149020B
:10092000884320430E4908604815844216D10D497A
:1009300009680622514308460B49FFF7D5FB451CC1
:1009400005E0002D01D06D1E01E0032070BD0448BC
:1009500040690121890208408842F2D00020F5E771
:10096000007000403000002040420F0070B5044687
:100970000D46002C01D1012070BD6B480068400776
:10098000400FA84218D268480068C008C000284339
:1009900065490860FFF728FF064607E0FFF724FFD8
:1009A000801B6249884201D90320E5E75E48006860
:1009B0004007400FA842F1D10221206808400228D8
:1009C00015D1042120680840042807D158488068C0
:1009D00007210903884340185549886054488068B6
:1009E0000F2109028843A168084351498860207893
:1009F000C007C00F002854D06068012808D14C48B7
:100A0000006801214904084000282ED10120B3E7E5
:100A10006068022808D1464800680121490608405C
:100A2000002822D10120A7E76068002808D14048AB
:100A30000068012189020840002816D101209BE7A7
:100A40006068032808D13A484030006A0221084013
:100A500000280AD101208FE735484030C0690221C3
:100A60000840002801D1012086E731488068C0088D
:100A7000C000616808432E498860FFF7B5FE06464E
:100A800007E0FFF7B1FE801B2849884201D9032007
:100A900072E727488068382108406168C9008842A9
:100AA000EFD1214800684007400FA84218D91E48DE
:100AB0000068C008C00028431B490860FFF794FE87
:100AC000064607E0FFF790FE801B1849884201D9CF
:100AD000032051E7144800684007400FA842F1D1B5
:100AE000042120680840042808D1114880680721A3
:100AF00009038843E16808430D49886000F03AF82B
:100B00000B4989680F2212021140090A8900094A1B
:100B1000515CC906C90EC84007490860074800680B
:100B2000FFF78AFE28E7000000200240881300003B
:100B300000100240A83200083000002028000020E9
:100B400001480068704700003000002000B5FFF742
:100B5000F7FF06498968072212031140090B890033
:100B6000034A515CC906C90EC84000BD00100240CE
:100B7000E8320008FEB53548806838210840002872
:100B80000DD13248006809020840C10A012088409E
:100B900000902F480099FFF7A7FA044654E02B482D
:100BA000806838210840082801D12A4C4CE02748A9
:100BB000806838210840102834D12448C06886074E
:100BC000B60F2248C068702108400009401C0190FF
:100BD000022E0FD0032E0CD11E480199FFF784FA84
:100BE0001A49C9687F2212021140090A4843054682
:100BF0000DE000BF16480199FFF776FA1349C9685E
:100C00007F2212021140090A4843054600BF00BF77
:100C10000E48C068400F471C39462846FFF764FA63
:100C2000044611E00948806838210840202801D195
:100C3000840209E00548806838210840182802D15C
:100C40007D24240200E000242046FEBD0010024066
:100C50000024F40000127A00FEB50446002C01D1F5
:100C60000120FEBD2078C007C00F00286FD0F748D4
:100C7000876838210F40C0688607B60F102F01D152
:100C8000032E01D0082F0BD1F04800680121490440
:100C9000084000285BD06068002858D10120E0E7B8
:100CA00000BF012109046068884205D1E748006857
:100CB0000843E649086021E005210904606888428C
:100CC0000ED1E2480068012189040843DF49086029
:100CD00008460068012109040843DC4908600DE06A
:100CE000DA480068012109048843D84908600846A9
:100CF0000068012189048843D449086000BF606806
:100D0000002812D0FFF770FD054606E0FFF76CFDE6
:100D1000401B642801D90320A3E7CC4800680121C7
:100D2000490408400028F1D011E0FFF75DFD0546B9
:100D300006E0FFF759FD401B642801D9032090E726
:100D4000C24800680121490408400028F1D102216D
:100D500020680840022873D1BC48806838210840C8
:100D60000746BA48C0688607B60F102F01D1022E79
:100D700001D0002F36D1B548006801218902084012
:100D8000002804D0E068002801D1012069E7AF48BD
:100D900040687F2109028843616909020843AB4921
:100DA0004860002F16D1084600680721C902884311
:100DB00021690843A5490860084600680722D20255
:100DC0001040C20A012090400146A148FFF78CF96B
:100DD000A0490860A0480068FFF72EFD002849D010
:100DE00001203EE7E06800282BD0984800680721E2
:100DF000C90288432169084394490860084600688D
:100E00008915084391490860FFF7EEFC054606E0A6
:100E1000FFF7EAFC401B022801D9032021E78B4899
:100E200000680121890208400028F1D08748406805
:100E30007F210902884361690902084383494860A8
:100E400018E082480068FF21013188437F4908602B
:100E5000FFF7CAFC054606E0FFF7C6FC401B022868
:100E600001D90320FDE67948006801218902084084
:100E70000028F1D1082120680840082849D173488A
:100E800080683821084018280BD170484030006A2B
:100E90000221084000283CD0A069002839D1012057
:100EA000DFE6A06900281AD068484030006A0121B6
:100EB0000843664940310862FFF796FC054606E0A4
:100EC000FFF792FC401B022801D90320C9E65F48C6
:100ED0004030006A022108400028F1D019E05B4848
:100EE0004030006A40084000584940310862FFF72E
:100EF0007BFC054606E0FFF777FC401B022801D982
:100F00000320AEE651484030006A02210840002824
:100F1000F1D104212068084004287CD100200190F0
:100F20004A4880683821084020280BD14748403083
:100F3000C0690221084000286ED0A06800286BD14B
:100F400001208EE64148C06B010F01208843002834
:100F500010D000BF3D48C06B0121090708433B4941
:100F6000C8630846C06B09040840009000BF00BF7A
:100F70000120019039480068FF2101310840002814
:100F800016D136480068084334490860FFF72CFC46
:100F9000054606E0FFF728FC401B022801D9032084
:100FA0005FE62E480068FF21013108400028F1D09B
:100FB00000BFA068012808D124484030C069012141
:100FC000084322494031C86120E0A06805280FD1BC
:100FD0001E484030C069042108431C494031C861A3
:100FE0000846C0690121084318494031C8610DE035
:100FF00016484030C0694108490014484030C1617A
:10100000C0690421884311494031C86100BFA0680C
:10101000002816D001E040E03EE0FFF7E5FB054682
:1010200007E0FFF7E1FB401B0D49884201D903208F
:1010300017E606484030C069022108400028F0D079
:101040001EE0FFF7D1FB054614E00000001002404F
:101050000024F40030000020280000200070004030
:1010600088130000FFF7C0FB401B6449884201D988
:101070000320F6E56248C069022108400028F1D14A
:101080000198012808D15E484038C06B012109074A
:1010900088435B494039C86300BFE06900285AD0E3
:1010A0005748403880683821084010287ED0E069D1
:1010B000022851D15248403800680121090688436E
:1010C0004F4940390860FFF78FFB054606E0FFF700
:1010D0008BFB401B022801D90320C2E54848403859
:1010E00000680121490608400028F0D1616A206AA1
:1010F0000843A16A09020843E16A0843216B0843D7
:101100003F494039C9683F4A114008433C4940398A
:10111000C86008460068012109060843384940397B
:1011200008600846C0680904084335494039C8606A
:10113000FFF75AFB054606E0FFF756FB401B022867
:1011400001D903208DE52E48403800680121490669
:1011500008400028F0D04EE02948403800680121BE
:10116000090688432649403908600846C068800857
:101170008000C8600846C0682349084020494039BB
:10118000C860FFF731FB054607E0FFF72DFB401B6A
:10119000022802D9032064E508E0194840380068B5
:1011A0000121490608400028EFD124E0E069012828
:1011B00000D156E512484038C668B107890F206A49
:1011C000814216D170203040616A884211D17F205F
:1011D00000023040A16A090288420AD11F2040045F
:1011E0003040E16A884204D1710F4907206B814287
:1011F00001D0012035E5002033E500008813000010
:10120000401002408C80C11FFFFFFEEF04490968B7
:101210000322520291430143014A116070470000CA
:101220000000014070B504462546681E0949884201
:1012300001D901200CE0681E074948610321081FFD
:1012400001F030FF00200449886107200861002078
:1012500070BD0000FFFFFF0000E000E0014600BF9E
:101260007C20405C012801D10220704701237C20B2
:10127000435400BF24238020435008680268086854
:101280000068400840000B68186001235B071046A7
:1012900098430246002048660868026020238020A8
:1012A000435000BF00237C20435400BF0020DCE7F4
:1012B000704770B504460D4600BF7C20005D0128D4
:1012C00001D1022070BD01217C20015500BF2421E5
:1012D00080200151206806682068006840084000AE
:1012E00021680860206880680721490688432843F0
:1012F00021688860204600F02FFE206806602021CB
:101300008020015100BF00217C20015500BF00203A
:10131000D8E770B504460D4600BF7C20005D01286B
:1013200001D1022070BD01217C20015500BF242184
:10133000802001512068066820680068400840004D
:101340002168086020688068C000C00828432168C0
:101350008860204600F000FE206806602021802082
:10136000015100BF00217C20015500BF0020D9E7BA
:101370007047704770470146802042588420435888
:101380001046184370470000FEB504462068C56942
:1013900020680668206887682807000F0190019878
:1013A000002813D12020284000280FD020203040D2
:1013B000002804D1012000073840002806D0E06E44
:1013C000002802D02046E16E8847FEBD0198002823
:1013D0007ED07A483840002804D1FF2021303040A8
:1013E0000028F5D0E807C00F00280DD0FF200130FD
:1013F0003040002808D00120216808628820005968
:1014000001210843882108510220284000280CD0DF
:10141000F807C00F002808D0022021680862882041
:10142000005904210843882108510420284000283D
:101430000CD0F807C00F002808D0042021680862EB
:10144000882000590221084388210851082028409B
:10145000002810D020203040002803D157483840C1
:10146000002808D008202168086288200059082137
:101470000843882108518820005900284DD0202099
:10148000284000280ED020203040002804D1012020
:1014900000073840002805D0E06E002802D0204622
:1014A000E16E8847882000590090206880684021BC
:1014B0000840402804D0082100980840002826D081
:1014C000204600F049FE206880684021084000E086
:1014D00024E0402817D1206880688843216888600C
:1014E000A06F00280BD03648A16F8863A06FFEF76D
:1014F000E9FE002811D0A06F816B88470DE02046DF
:10150000FFF738FF09E02046FFF734FF05E02046EB
:10151000FFF730FF00218820015156E70120000528
:10152000284000280CD0012080053840002807D032
:1015300001200005216808622046FFF71AFF44E7F2
:101540008020284000280FD080203040002804D17F
:101550000120C0053840002806D0206F002802D0A6
:101560002046216F884730E740202840002807D0D8
:1015700040203040002803D0204600F003FE24E73E
:101580000120C0052840002808D0012080073040F5
:10159000002803D02046FFF7EBFE16E701200006E7
:1015A0002840002807D0F00FC007002803D02046AD
:1015B000FFF77EFE09E700BF07E70000010000100B
:1015C0004121000810B50446002C01D1012010BDB6
:1015D000A069002800D000E000BF8020005900284A
:1015E00005D100217C200155204600F02DF8242152
:1015F0008020015120680068400840002168086090
:10160000204601F0B9F9012800D1E0E7A06A0028DE
:1016100002D0204600F0E2FC206840680921C9029F
:10162000884321684860206880682A2188432168AF
:10163000886020680068012108432168086020460E
:1016400000F044FDC3E7000010B586B00446142145
:1016500001A8FEF77AFD1D492068884233D100BFFA
:101660001B48C06B0121490408431949C863084657
:10167000C06B012149040840009000BF00BF00BFBB
:101680001348406B01210843114948630846406BE9
:10169000C007C00F009000BF00BF0C2001900220C7
:1016A00002900020039004900120059001A90520DC
:1016B0000007FEF7A1FF002211461C20FFF720F9CA
:1016C0001C20FFF70FF906B010BD000000440040D9
:1016D0000010024010B503468420C058202876D15F
:1016E000002901D0002A01D1012010BD01242403CA
:1016F0009868A04208D11869002805D1C807C00F12
:10170000002801D00120F0E700BF7C20C05C012848
:1017100001D10220E9E701247C20C45400BF99656F
:101720005C20C2525E20C2520020D86600BF240353
:101730009868A0420AD11869002803D13E4C602065
:10174000C45224E0FF246020C45220E0986800289E
:101750000AD11869002803D1FF246020C45216E082
:101760007F246020C45212E0012424079868A0421C
:101770000AD11869002803D17F246020C45206E0F2
:101780003F246020C45202E000246020C45200BF05
:1017900000248820C45022248420C4501868806803
:1017A000012420431C68A06001246407586EA042F5
:1017B00024D16820C05A904220DC64149868A0426A
:1017C00006D11869002803D11C48D86602E030E031
:1017D0001B48D86600BF00247C20C45400BF186892
:1017E0000068FF24013420431C682060186880686A
:1017F0000124240720431C68A06018E0012424036E
:101800009868A04205D11869002802D10D48D86611
:1018100001E00D48D86600BF00247C20C45400BFFE
:1018200018680068FF24213420431C6820600020D1
:101830005BE7022059E70000FF0100009527000840
:10184000C1280008252700085128000810B50446C3
:1018500019480078FF280DDB002017490870FF2188
:101860001648FEF772FC164B0A2216A1204600F01D
:101870002FF820E0154801780F4802780078401CC6
:101880000D4B18700D48815418460078401E0B49C6
:10189000085C0A280FD100BF2046FFF76CFD212805
:1018A000FAD0204600F080FC002003490870FF2198
:1018B0000248FEF74AFC10BD010000203400002061
:1018C000FFFF000046464646464600000000002056
:1018D000FFB583B004460D461746802000592028E6
:1018E00078D1002D01D0002F02D1012007B0F0BD2A
:1018F00001210903A068884208D12069002805D188
:10190000E807C00F002801D00120EFE700BF7C20CE
:10191000005D012801D10220E8E701217C2001556A
:1019200000BF002188200151212180200151FEF7B4
:101930005BFF0190542007535620075301210903F0
:10194000A068884205D12069002802D100260295AE
:1019500002E02E460020029021E00698009000222E
:1019600080212046019B01F057FB002801D0032075
:10197000BCE7002E09D102980088C005C00D21687F
:1019800088620298801C029003E0307821688862A7
:10199000761C5620005B401E81B256200153562013
:1019A000005B0028D9D106980090002240212046F3
:1019B000019B01F031FB002801D0032096E7202194
:1019C0008020015100BF00217C20015500BF002074
:1019D0008CE7FFE7022089E77047000000B587B079
:1019E000142102A8FEF7B1FB00BF1848406B042188
:1019F0000843164948630846406B0421084001909B
:101A000000BF00BF1020029011200390002004901E
:101A10000320059002A90E48FEF7EEFD01221021D9
:101A20000B48FEF7DAFE20200290112003900020E0
:101A300004900320059002A90548FEF7DDFD012270
:101A400020210348FEF7C9FE07B000BD0010024088
:101A500000080050F7B50E4614463746002500F042
:101A60009DF8009800F05CF800F0BAF800280FD15B
:101A70000BE000F011F829466D1C7854A54202D104
:101A800000F07AF803E000F035F8A542F1D300BF8A
:101A900000F094F80020FEBD1CB5002100910191DA
:101AA0001FE02020124988620C2001F046FB6946A5
:101AB00008784006000E009020200D498861102013
:101AC00088610C2001F039FB10210948FEF77CFEEB
:101AD000694609780843009069460879401CC0B2FD
:101AE0000190684600790828DBDB684600781CBD59
:101AF0000008005000B52020084988620C2001F041
:101B00001CFB202005498861102088620C2001F010
:101B100014FB10200149886100BD0000000800503E
:101B200018B504460021009100911DE020201149C4
:101B300088620C2001F001FB80202040002803D0A7
:101B400010200C49886102E010200A498862202098
:101B5000084988610C2001F0F0FA6006040E68461E
:101B60000078401CC1B20091684600780828DDDB8F
:101B700018BD00000008005000B52020064988620A
:101B80000C2001F0DAFA10200349886120208861D6
:101B90000C2001F0D2FA00BD0008005000B5202052
:101BA00005498861102088610C2001F0C6FA1020D8
:101BB0000149886200BD00000008005000B52020E7
:101BC00006498862102088620C2001F0B6FA2020B5
:101BD000024988611020886100BD000000080050A3
:101BE00010B52020094988620C2001F0A6FA1020C7
:101BF00006498861202088610C2001F09EFA10219E
:101C00000248FEF7E1FD0446204610BD00080050E2
:101C1000F7B50C46154627460026FFF7BFFF00988C
:101C2000FFF77EFF0AE0FFF7DBFF002805D1314612
:101C3000761C785CFFF774FF00E001E0AE42F2D35F
:101C400000BFFFF7BBFF0020FEBD00000348406857
:101C50002021884301494860704700000018024075
:101C600000B585B014216846FEF76FFA2020009079
:101C7000094801900020029003200390694607481C
:101C8000FEF7BAFC002201210720FEF739FE0720EB
:101C9000FEF728FE05B000BD00002110000800502E
:101CA00000B50C2001F049FA0348406820210843A0
:101CB0000149486000BD0000001802400348006868
:101CC0002021884301490860704700000018024045
:101CD000034800682021084301490860704700005C
:101CE0000018024000B587B0142102A8FEF72DFAB3
:101CF00000BF0F48406B042108430D494863084664
:101D0000406B04210840019000BF00BF10200290EA
:101D100011200390002004900320059002A905489B
:101D2000FEF76AFC10200349886107B000BD00007F
:101D3000001002400008005000B5102004498862DD
:101D40000C2001F0FAF910200149886100BD000063
:101D50000008005000B51020024988610C2001F0F5
:101D6000ECF900BD0008005010B504460122202106
:101D700005200007FEF731FD204601F0DEF90022C4
:101D8000202105200007FEF728FD10BD00B587B013
:101D9000142102A8FEF7D9F900BF0E48406B0121BB
:101DA00008430C4948630846406BC007C00F0190C8
:101DB00000BF00BF2020029001200390002004906B
:101DC0000320059002A905200007FEF715FC07B0C7
:101DD00000BD00000010024010B51A481A49086002
:101DE000E12040024860002117488160C160016124
:101DF0000C21416100218161C161016241620020C9
:101E0000114988620846FFF7DDFB002801D0FEF784
:101E100058FA00210C48FFF77CFA002801D0FEF7A1
:101E200050FA00210848FFF744FA002801D0FEF7D5
:101E300048FA0548FFF712FA002801D0FEF741FAE8
:101E400010BD000000440040400100200CB50246D7
:101E5000002001900090019031E000980001009076
:101E60000198105C30280ADB0198105C392806DCE8
:101E70000198105C3038009BC01800901CE001985D
:101E8000105C41280ADB0198105C462806DC0198AA
:101E9000105C3738009BC01800900DE00198105C72
:101EA000612809DB0198105C662805DC0198105C4C
:101EB0005738009BC01800900198401C0190019871
:101EC0008842CAD300980CBD10B5FEF793FC10BD34
:101ED00000B591B0342104A8FEF737F90020009036
:101EE00001900290039001204002FEF713FD0220B2
:101EF0000490C00107900020089040200990022023
:101F00000B9002210C9100210D9108210E910104EA
:101F10000F910107109104A8FEF79EFE002801D042
:101F2000FEF7CFF9072000900220019000200290D8
:101F3000039002216846FEF719FD002801D0FEF744
:101F4000C0F911B000BD00000120C0060149886041
:101F50007047000000ED00E0F0B585B004461BA11D
:101F600003C9039102901BA103C901910090606E07
:101F7000002805D101216A2001536820015322E085
:101F80000827082204922068806807214906084033
:101F9000450E20688068460F6A46915D02AA935DEF
:101FA000049A53431846FEF7B5F881B26A200153EC
:101FB0006A46515D02AA525D7A431046FEF7AAF8BE
:101FC00081B26820015305B0F0BD0000010101039A
:101FD000070100000804020408010101018DC9077E
:101FE000C90F002908D001684968012252049143B1
:101FF000C26A1143026851600222816A11400229BB
:1020000007D101684968D2039143026B114302680A
:1020100051600422816A1140042907D1016849688E
:1020200012049143426B1143026851600822816A95
:102030001140082907D10168496812039143826B56
:102040001143026851601022816A1140102907D1A2
:102050000168896812029143C26B11430268916062
:102060002022816A1140202907D101688968120263
:102070009143026C1143026891604022816A1140D1
:10208000402915D10168496892039143426C11437C
:102090000268516001221205416C914208D1016829
:1020A0004968032252059143826C114302685160D2
:1020B0008022816A1140802907D101684968120392
:1020C0009143C26C114302685160704738B50446B1
:1020D000002188200151FEF787FB05462068006833
:1020E0000821084008280BD114482B4600228904F7
:1020F0000090204600F090FF002801D0032038BD5A
:10210000206800680421084004280BD10B482B46A6
:10211000002209050090204600F07EFF002801D033
:102120000320ECE72021802001518420015100BFD1
:1021300000217C20015500BF0020E0E7FFFFFF01E8
:1021400070B50546AC6A00215E200153562001534C
:102150002046FFF70FF970BD01680968FF222132A0
:1021600091430268116001688968054A114002685C
:102170009160202284210A500021C166704700002E
:10218000FEFFFFEF10B50446206800684021884339
:10219000216808602021802001510020206720460E
:1021A000FFF71AFC10BD000070B5E8B0044600212E
:1021B000679166916591FF21913101A8FDF7C5FFF7
:1021C0002CE0F74860A9097F405C202811D100214C
:1021D00060A8007E1422504301AA821860A8007DE6
:1021E000115460A8007E401CC1B266910021659127
:1021F0000FE0EB4A60A9097F525C60A9087D411C91
:10220000CBB2659360A9097E1423594301ABC91869
:102210000A5460A8007F401CC1B26791E148007871
:10222000801E60A9097F8842CBDC01A9DEA0FDF7F2
:102230009EFF002873D106A9DCA0FDF798FF0028B7
:1022400015D1DC480078002806D1DB4B1822DBA131
:102250002046FFF73DFB4BE2D64800780128FAD133
:10226000D54B1722DCA12046FFF732FB40E206A93E
:10227000DFA0FDF77CFF00280BD006A9DEA0FDF74C
:1022800076FF002805D006A9DDA0FDF770FF002825
:10229000E1D1022106A8FFF7D9FDC0B2A0281AD1CA
:1022A000C4480078002808D1C34B0E22D7A120468D
:1022B000FFF70EFB002068B070BDBE480078012813
:1022C00009D1FDF775FFBC4B0922D4492046FFF721
:1022D000FFFA0020EFE7B7480078012807D1B64B96
:1022E0003622CFA12046FFF7F3FA0020E3E70221D0
:1022F00006A8FFF7ABFD401CC5B20522C74928461A
:10230000FFF7A8FB01A9BAA0FDF731FF002807D10C
:10231000A94B0722C1492046FFF7DAFAE8E114E0A9
:1023200001A9B5A0FDF723FF002807D1A24B072282
:10233000BA49891C2046FFF7CBFAD9E19E4B092206
:10234000B6492046FFF7C4FAD2E101A9C2A0FDF7C1
:102350000EFF00287ED106A994A0FDF708FF0028F3
:102360003BD1BEA10BA8FDF702FF002817D1914871
:102370000078012806D1904B3122BAA12046FFF700
:10238000A7FAB5E101208B490870C348C34908602A
:10239000894B0322C2A12046FFF79AFAA8E1C1A106
:1023A0000BA8FDF7E4FE0028B8D182480078002889
:1023B00006D1814B3322BDA12046FFF789FA97E170
:1023C00000207C490870C648B44908607A4B032253
:1023D000B3A12046FFF77CFA8AE106A984A0FDF7A5
:1023E000C6FE00280BD006A983A0FDF7C0FE00287A
:1023F00005D006A982A0FDF7BAFE00288ED10221E1
:102400000BA8FFF723FDC0B2A02870D1694800785F
:10241000002807D1684B0E227CA12046FFF758FA0E
:10242000002048E763480078012860D106A970A021
:10243000FDF79DFE002814D110A8FDF791FE064679
:10244000314610A8FFF702FDC6B210A9087D00F0C2
:1024500097FE00E046E146433546284600F0F2FE8E
:102460003CE006A964A0FDF782FE002812D110A866
:10247000FDF776FE0646314610A8FFF7E7FCC6B228
:1024800010A9087D00F07CFE46433546284600F042
:10249000DFFE23E010A8FDF763FE0646314610A8D4
:1024A000FFF7D4FCC6B210A9087D00F069FE4643D0
:1024B0003546284600F0C6FE1AA8FDF751FE06462E
:1024C00031461AA8FFF7C2FCC6B218A9087F00F06F
:1024D00057FE46433546284600F0BAFE364B0322E7
:1024E0006FA12046FFF7F4F90020E4E6FFE731484A
:1024F0000078012807D1304B362249A12046FFF74A
:10250000E7F90020D7E6022106A8FFF79FFC401C50
:10251000C5B2052241492846FFF79CFA06A934A016
:10252000FDF725FE002810D1F0203C490870084630
:1025300010A90978417010A9497881701E4B0722B3
:1025400001462046FFF7C4F91BE006A92AA0FDF7C3
:102550000EFE002815D10F203049087010A8FDF795
:10256000FFFD0546294610A8FFF770FC2B4948706F
:1025700010A8007D8870104B0722891C2046FFF7A9
:10258000A7F90BA8FDF7ECFD064631460BA8FFF7AF
:102590005DFCC5B2032221492846FFF739FBA7E0BD
:1025A00034000020010000206765740073746174BA
:1025B0006500000002000020FFFF000052756E6EF3
:1025C000696E67207374617465206973206D61732F
:1025D0007465722E0000000052756E6E696E672081
:1025E000737461746520697320736C6176652E0065
:1025F0006475726100000000667265710000000081
:10260000647572615F667265710000004D6173747C
:102610006572206E6F204C45442E0000330100206F
:10262000536C617665206E6F207065726D6973738F
:10263000696F6E7320746F2072656164206F7468B7
:1026400065722064657669636520696E666F726D78
:102650006174696F6E2E000073657400736C61762F
:102660006500000043616E2774206368616E6765D2
:1026700020736C61766520746F20736C61766520C1
:102680006F66207468652072756E6E696E67207360
:10269000746174652E0000005D32000804000020A3
:1026A0004F4B2E006D6173746572000043616E279D
:1026B00074206368616E6765206D61737465722054
:1026C000746F206D6173746572206F662074686525
:1026D0002072756E6E696E672073746174652E006A
:1026E000D5310008034B282203A12046FFF7F0F85C
:1026F0000020E0E5FFFF0000436F6D6D616E642018
:102700006572726F723A20706C65617365206368E0
:1027100065636B2074686520636F6D6D616E642EF8
:1027200000000000F8B504466020075B84200059D3
:10273000222828D12068406A86B2A56D30463840EC
:102740002880A06D801CA0655E20005B401E81B2C9
:102750005E200153005B00281BD120680068FF2128
:102760002131884321680860206880684008400063
:10277000216888602021842001510020E0662046E5
:10278000FFF764F805E020688069082108432168A4
:102790008861F8BDFEB504466020005B019084208E
:1027A0000059222848D16820055B2BE02068406A48
:1027B00080B20090A76D0199009808403880A06D04
:1027C000801CA0655E20005B401E81B25E2001532C
:1027D000005B002814D120680068FF210131884384
:1027E000216808602068806817490840216888606F
:1027F0002021842001510020E0662046FFF726F8C2
:10280000681E85B2002DD1D15E20065B002E19D046
:102810006820005BB04215DD20688068012109074F
:102820008843216888600948E066206800682021A4
:1028300008432168086005E0206880690821084392
:1028400021688861FEBD0000FEFFFFEF252700081C
:1028500070B504466020065B84200059222828D1E8
:102860002068406A85B2F0B22840A16D0870A06D62
:10287000401CA0655E20005B401E81B25E200153BB
:10288000005B00281BD120680068FF2121318843AC
:1028900021680860206880684008400021688860DE
:1028A0002021842001510020E0662046FEF7CEFF63
:1028B00005E020688069082108432168886170BDAF
:1028C000F8B504466020005B00908420005922285F
:1028D00047D16820055B2AE02068406A87B20098EB
:1028E000C0B23840A16D0870A06D401CA0655E208C
:1028F000005B401E81B25E200153005B002814D1B2
:1029000020680068FF210131884321680860206841
:10291000806817490840216888602021842001517F
:102920000020E0662046FEF791FF681E85B2002D6C
:10293000D2D15E20065B002E19D06820005BB04229
:1029400015DD2068806801210907884321688860B7
:102950000848E06620680068202108432168086074
:1029600005E0206880690821084321688861F8BD76
:10297000FEFFFFEF51280008F0B585B004460026A1
:102980000020029001902169A06808436169084312
:10299000E16908430490606E04990843049020683C
:1029A0000068F949084004990843216808602068D4
:1029B0004068032109038843E168084321684860AF
:1029C000A0690490206A04990843049020688068F4
:1029D000EE49084004990843216888602068C06A6D
:1029E00000090001616A08432168C86200BFE84924
:1029F0002068884217D1E74840698007800F002887
:102A000006D0012808D0022804D0032808D105E008
:102A1000002507E0022505E0042503E0082501E084
:102A2000102500BF28E0DC492068884217D1D9482A
:102A300040690C210840002806D0042808D0082846
:102A400004D00C2808D105E0002507E0022505E0A8
:102A5000042503E0082501E0102500BF0CE0CF4964
:102A60002068884201D1002506E0CD4920688842CF
:102A700001D1002500E0102500BF0121C903E06954
:102A8000884270D1002D06D0022D53D0042D6BD07A
:102A9000082D6AD1ECE0FEF759F80746606A002875
:102AA00001D1012038E0606A012801D1022033E021
:102AB000606A022801D104202EE0606A032801D157
:102AC000062029E0606A042801D1082024E0606A19
:102AD000052801D10A201FE0606A062801D10C20D8
:102AE0001AE0606A072801D1102015E0606A082802
:102AF00001D1202010E0606A092801D140200BE0BC
:102B0000606A0A2801D1802006E0606A0B2802D1A1
:102B1000FF20013000E0012001463846FDF7E4FACD
:102B2000400061684908401800906168FDF7DCFAD0
:102B300086B2EDE0606A002801D101203BE0606AC6
:102B4000012801D1022036E0606A022801D1042068
:102B500031E0606A032801D106202CE0606A042875
:102B600004D1082027E0E9E033E0CEE0606A0528E0
:102B700001D10A201FE0606A062801D10C201AE06A
:102B8000606A072801D1102015E0606A082801D189
:102B9000202010E0606A092801D140200BE0606A23
:102BA0000A2801D1802006E0606A0B2802D1FF20AC
:102BB000013000E0012001467A48FDF795FA400017
:102BC00061684908401800906168FDF78DFA86B287
:102BD0009EE0FDF7CFFF0746606A002801D1012083
:102BE00038E0606A012801D1022033E0606A0228DF
:102BF00001D104202EE0606A032801D1062029E0DB
:102C0000606A042801D1082024E0606A052801D107
:102C10000A201FE0606A062801D10C201AE0606AD1
:102C2000072801D1102015E0606A082801D1202072
:102C300010E0606A092801D140200BE0606A0A2890
:102C400001D1802006E0606A0B2802D1FF2001300C
:102C500000E0012001463846FDF746FA4000616871
:102C60004908401800906168FDF73EFA86B24FE0CF
:102C7000606A002801D1012038E0606A012801D192
:102C8000022033E0606A022801D104202EE0606A4D
:102C9000032801D1062029E0606A042801D1082018
:102CA00024E0606A052801D10A201FE0606A062836
:102CB00001D10C201AE0606A072801D1102015E02C
:102CC000606A082801D1202010E0606A092801D13B
:102CD00040200BE0606A0A2801D1802006E0606A8B
:102CE0000B2802D1FF20013000E001200146012025
:102CF000C003FDF7F9F940006168490840180090E9
:102D00006168FDF7F1F986B202E00120029000BF90
:102D100000BF102E0FD3244886420CD822480F380B
:102D2000304003903007400F039908430390039805
:102D30002168C86061E1012002905EE1002D06D0AB
:102D4000022D65D0042D72D0082D71D1FBE0FDF766
:102D5000FDFE0746606A002801D101204BE0606A51
:102D6000012801D1022046E0606A022801D1042036
:102D700041E0606A032801D106203CE0606A042833
:102D800014D1082037E00000F369FFCFFFF4FF11F2
:102D9000003801404010024000440040004800401C
:102DA000004C00400024F400FFFF0000606A05288A
:102DB00001D10A201FE0606A062801D10C201AE028
:102DC000606A072801D1102015E0606A082801D147
:102DD000202010E0606A092801D140200BE0606AE1
:102DE0000A2801D1802006E0606A0B2802D1FF206A
:102DF000013000E0012001463846FDF775F96168B1
:102E00004908401800906168FDF76EF986B2E9E064
:102E1000606A002801D101203AE0606A012801D1EE
:102E2000022035E0606A022803D1042030E03CE053
:102E3000D5E0606A032801D1062029E0606A0428F1
:102E400001D1082024E0606A052801D10A201FE092
:102E5000606A062801D10C201AE0606A072801D1B7
:102E6000102015E0606A082801D1202010E0606A77
:102E7000092801D140200BE0606A0A2801D1802096
:102E800006E0606A0B2802D1FF20013000E001203B
:102E900001465F48FDF728F961684908401800902D
:102EA0006168FDF721F986B29CE0FDF763FE0746F5
:102EB000606A002801D1012038E0606A012801D150
:102EC000022033E0606A022801D104202EE0606A0B
:102ED000032801D1062029E0606A042801D10820D6
:102EE00024E0606A052801D10A201FE0606A0628F4
:102EF00001D10C201AE0606A072801D1102015E0EA
:102F0000606A082801D1202010E0606A092801D1F8
:102F100040200BE0606A0A2801D1802006E0606A48
:102F20000B2802D1FF20013000E001200146384685
:102F3000FDF7DAF861684908401800906168FDF70C
:102F4000D3F886B24EE0606A002801D1012038E053
:102F5000606A012801D1022033E0606A022801D1B1
:102F600004202EE0606A032801D1062029E0606A6F
:102F7000042801D1082024E0606A052801D10A2034
:102F80001FE0606A062801D10C201AE0606A072859
:102F900001D1102015E0606A082801D1202010E03E
:102FA000606A092801D140200BE0606A0A2801D13B
:102FB000802006E0606A0B2802D1FF20013000E08B
:102FC000012001460120C003FDF78EF86168490821
:102FD000401800906168FDF787F886B202E0012092
:102FE000029000BF00BF102E05D30A48864202D8C7
:102FF0002068C66001E00120029001216A2001538F
:10300000682001530020E0662067029805B0F0BDFB
:103010000024F400FFFF0000FFB581B004460D4618
:1030200017460A9E24E0701C002821D0FDF7DCFB27
:103030000499401AB04201D8002E19D120680068C6
:10304000FF21A1318843216808602068806840081A
:103050004000216888602021802001518420015196
:1030600000BF00217C20015500BF032005B0F0BD4A
:103070002068C0692840A84201D1012000E000205A
:10308000B842D0D00020F1E710B50448FEF77CF933
:10309000012203490148FEF71DFB10BD400100203D
:1030A0000000002010B5002819DB1A4A03231B0278
:1030B000D21883089B00D2588307DC0EFF23A3405D
:1030C0009A438B071B0E8407E40EA3401A43114B4F
:1030D000032424021B198408A4001A5118E00E4A84
:1030E00003071B0F083B9B089B00D2588307DC0E8D
:1030F000FF23A3409A438B071B0E8407E40EA340D3
:103100001A43054B0407240F083CA408A4001A51D5
:1031100010BD000000E100E01CED00E002E008C886
:10312000121F08C1002AFAD170477047002001E041
:1031300001C1121F002AFBD1704708B58100411858
:10314000009100BF00994A1E00920029FAD108BDE3
:1031500002200649087000200549087005490870DA
:103160000549087005490870704700000D000020EF
:10317000080000200A000020090000200C000020A8
:1031800001466D2903D0732904D1034870477D207F
:10319000C000FBE77520F9E740420F0010B5102191
:1031A0000448FDF711FB002801D1012010BD0020CB
:1031B000FCE7000000080050FDF728FBFEF788FE42
:1031C000FEF70AFE02E0024800688047FBE70000C5
:1031D0000400002010B5FEF701FC01220449054857
:1031E000FEF778FA00BF044800780028FBD010BD35
:1031F00000000020400100200200002000B510481F
:103200000078F0210840F02809D10D498878FFF7AF
:10321000B7FF0B4949784843024600F013F80848C5
:1032200000780007000F0F2809D105490879FFF73A
:10323000A7FF0349C9784843024600F009F800BDDA
:1032400018000020014908607047000014000020A9
:1032500001490860704700001000002010B5FEF71B
:1032600095FDFEF73FFDFEF7FBFCFFF7C7FF0FE004
:103270000A480068002803D008480068FEF774FD7B
:1032800007480068002803D005480068FFF755FF8D
:10329000044800780128EBD010BD00001400002085
:1032A00010000020020000200000000000000000CC
:1032B000000000000000000000000000000000000E
:1032C00000000000000000000100000002000000FB
:1032D00003000000040000000600000007000000DA
:1032E00008000000090000000000000000000000CD
:1032F00000000000000000000100000002000000CB
:103300000300000004000000283300080000002033
:10331000340000001C3100085C3300083400002039
:103320009C0500002C310008000001005D320008FF
:103330000000000300020000000000000000000088
:10334000FF01730173000000000000000000000096
:0C33500004000000010000000024F40054
:04000005080000B936
:00000001FF
