:020000040800F2
:10000000E00B0020CD000008D5000008D700000854
:1000100000000000000000000000000000000000E0
:10002000000000000000000000000000D9000008EF
:100030000000000000000000DB000008B92A0008F2
:10004000DF00000800000000DF000008DF000008FB
:10005000DF000008DF000008DF000008A903000837
:1000600000000000D5010008E5010008DF000008DD
:10007000DF000008DF000008DF00000800000000CB
:10008000652B0008DF000008DF000008DF00000823
:10009000DF000008DF000008DF000008DF000008C4
:1000A000DF000008DF000008DF000008DF000008B4
:1000B00029400008DF0000080348854600F078F872
:1000C0000048004759420008E00B002004488047E0
:1000D00004480047FEE7FEE7FEE7FEE7FEE7FEE72F
:1000E000552B0008B900000830B50B46014600202A
:1000F0002022012409E00D46D5409D4205D31D462E
:100100009540491B2546954040191546521E002D25
:10011000F1DC30BD70B500242546002801DA012449
:100120004042002901DA01254942FFF7DDFFAC42D8
:1001300000D04042002C00D0494270BD03460B4322
:100140009B0703D009E008C9121F08C0042AFAD28D
:1001500003E00B780370401C491C521EF9D2704713
:10016000D2B201E00270401C491EFBD2704700224F
:10017000F6E710B513460A4604461946FFF7F0FFA6
:10018000204610BD421C0178401C0029FBD1801A7A
:10019000704710B5002200E0521C835C8C5CA342C7
:1001A00001D1002BF8D1D8B2E1B2401A10BD000045
:1001B000064C0125064E05E0E36807CC2B430C3CBA
:1001C00098471034B442F7D3FFF77AFF6044000831
:1001D0008044000810B5024800F0E8F910BD0000A6
:1001E000E402002010B5024800F0E0F910BD000064
:1001F0004003002070B504462178084608381421D1
:10020000FFF772FF0546206C800880000549401802
:10021000606404488030A0641C2028400121814093
:10022000E16470BD0008024001794A1E9200064B4D
:10023000D2180265044A403242654A1E93079B0F5A
:1002400001229A40826570470009024008B500BF4C
:100250000648806B01210843044988630846806B87
:10026000C007C00F009000BF00BF08BD00100240D3
:1002700070B5856CC46C6C60046D002C02D0456D4B
:10028000846D6C600C4C64681C26056C354001263E
:10029000AE403443084D6C60046863608468102C81
:1002A00004D10468A2600468E16003E00468A1600E
:1002B0000468E26070BD00000000024070B50546B1
:1002C0000C461F492846FFF70FFFFF2811D81C498D
:1002D0002846FFF709FF00280BD019492846FFF7E9
:1002E00003FFC1B2174AA01C11547321E01C115422
:1002F00025E07D21C9002846FFF7F6FEFF2812D829
:100300000F492846FFF7F0FE00280CD07D21C900D8
:100310002846FFF7E9FEC1B20A4AA01C11546D211C
:10032000E01C11540BE07D21C9002846FFF7DCFEDC
:10033000C1B2044AA01C11547521E01C115470BDB7
:1003400040420F003A02002010B50446032C01D1B0
:10035000052000E00320114908700846447018E0A9
:10036000E007C00F002807D000210D480068FFF704
:10037000A5FF640864000CE002202040022808D198
:10038000022108480068FFF799FF022120468843B0
:100390000446002CE4D1002010BD00003A020020E9
:1003A000180000201400002010B52848C068012162
:1003B0004902084000280CD008462449C860244857
:1003C0000078002802D102F033F93DE002F0F2F9A2
:1003D0003AE01E48006901214902084000280CD07B
:1003E00008461A4908611A480078002802D102F02C
:1003F000F1F829E002F036F926E01448C068FF2140
:100400000131084000280CD008461049C860104847
:100410000078002802D102F00BF915E002F0F2FAA0
:1004200012E00A480069FF210131084000280BD082
:1004300008460649086106480078002802D102F003
:10044000C9F801E002F0C6FA10BD00000018024031
:1004500002000020704700000146002901D1012060
:1004600070472520405C022808D00420C86300BFE4
:1004700000222420425400BF0120F1E708680068F0
:100480000E2290430A681060486C0068FF22013217
:1004900090434A6C106008680068400840000A6891
:1004A0001060124840681C230A6C1A4001239340D4
:1004B00018430E4A50608A6CC86C5060086D002862
:1004C00009D0086D0068FF22013290430A6D106068
:1004D0004A6D886D506001222520425400BF0022E1
:1004E0002420425400BF0020BAE700000000024070
:1004F00070B50446002500BF00212420015500BF2F
:1005000000BF005D012801D1022070BD012124201F
:10051000015500BF2520005D022803D00420E063C0
:1005200001253AE0206800680E21884321680860B0
:10053000206800684008400021680860606C00681E
:10054000FF2101318843616C0860154840681C2216
:10055000216C114001228A40104311494860A16C6E
:10056000E06C4860206D002809D0206D0068FF21F4
:1005700001318843216D0860616DA06D48600121E3
:100580002520015500BF00212420015500BFA06B8C
:10059000002802D02046A16B88472846B5E7000016
:1005A000000002400146C86B7047000070B5044669
:1005B00045480568206806681C20216C014004201D
:1005C00088402840002820D00420304000281CD03B
:1005D0002068006820210840002805D120680068B4
:1005E0000421884321680860374840681C22216C38
:1005F000114004228A40104333494860206B002890
:1006000060D02046216B88475CE01C20216C0140B3
:10061000022088402840002828D0022030400028AE
:1006200024D02068006820210840002808D12068D4
:1006300000680A21884321680860012125200155AE
:10064000214841681C22206C104002228240114344
:100650001D48416000BF00212420015500BFE06A11
:1006600000282FD02046E16A88472BE01C20216C0F
:100670000140082088402840002823D0082030402E
:1006800000281FD0206800680E2188432168086078
:100690000D4841681C22206C104001228240114309
:1006A000094841600120E06301212520015500BF78
:1006B00000212420015500BF606B002802D0204695
:1006C000616B884770BD00000000024010B5044611
:1006D000002C01D1012010BD294A2168881A14215B
:1006E000FFF702FD800020640221252001552068CB
:1006F00000682449084021680860E168A068084350
:100700002169084361690843A1690843E169084315
:10071000216A084321680968084321680860204667
:10072000FFF768FD01218903A068884201D10020FC
:1007300060602079616C0860A16CE06C4860606862
:1007400000280CD06068042809D82046FFF76CFD0B
:100750000020216D0860616DA06D486003E00020FD
:1007600020656065A0650020E0630121252001551A
:1007700000BF00212420015500BF0020ABE700008E
:10078000080002400F80FFFFF8B504460D461646EC
:100790001F460020009000BF2420005D012801D1E9
:1007A0000220F8BD01212420015500BF2520005D55
:1007B000012844D10221252001550020E063206852
:1007C000006840084000216808603B4632462946E0
:1007D0002046FFF74DFD206B002806D020680068FA
:1007E0000E210843216808600BE02068006804219E
:1007F000884321680860206800680A21084321684E
:100800000860606C0068012109040840002805D0D8
:10081000606C006809120843616C0860206D002854
:1008200006D0206D0068FF2101310843216D08606A
:1008300020680068012108432168086006E000BFC5
:1008400000212420015500BF0220009000BF00219C
:100850002420015500BF0098A3E7000070B50346AF
:100860000022D7E0012696400C683440002C73D05B
:100870004D68022D02D04D68122D15D1D508AE005D
:100880001D462035A8595507EE0E0F25B5400646E2
:10089000AE4330465607F60E0D69B5402843D508DD
:1008A000AD001E4620367051186856000325B5402D
:1008B0000646AE4330460D79AD07AD0F5600B54044
:1008C000284318604D68012D0AD04D68022D07D0CD
:1008D00011264D683540112D02D04D68122D18D1CA
:1008E000986856000325B5400646AE43304656008C
:1008F000CD68B54028439860586801259540064664
:10090000AE43304610264D6835402D0995402843AA
:100910005860D86856000325B5400646AE433046B9
:1009200056008D68B5402843D860012636074D68CB
:100930003540B5426DD13A4D9608B600A859950795
:10094000EE0E0F25B5400646AE43304605252D0771
:10095000AB4202D1002510E05BE0324DAB4201D149
:1009600001250AE0304DAB4201D1022505E02F4DB3
:10097000AB4201D1032500E005259607F60EB540F0
:100980002843274D9608B600A851254D20352868E4
:100990000546A5432846012636044D683540B54234
:1009A00002D10546254328461D4D2035286068683C
:1009B0000546A5432846012676044D683540B542D4
:1009C00002D1054625432846154D20356860144D53
:1009D000603D28680546A5432846012636054D6832
:1009E0003540B54202D10546254328460C4D603DB1
:1009F000286068680546A5432846012676054D68A7
:100A00003540B54202D1054625432846044D603D98
:100A10006860521C0D68D540002D00D022E770BDE3
:100A2000601802400004005000080050000C005004
:100A3000024613690B40002B01D0012000E000208A
:100A40007047000001480068704700002C0000203B
:100A50000348006803490968401801490860704765
:100A60002C0000203400002010B500240848006845
:100A7000FF210131084306490860002000F00AF810
:100A8000002801D0012401E000F034F8204610BD18
:100A900000200240F8B504460025134800680028ED
:100AA0001ED0114801687D20C000FFF71DFB0746DE
:100AB00039460E480068FFF717FB064600F0E2FDD6
:100AC00000280BD1042C07D200222146401E00F042
:100AD00045F80748046004E0012502E0012500E034
:100AE00001252846F8BD0000340000203800002011
:100AF0003000002008B500BF1048006801210843FD
:100B00000E49086008460068C007C00F009000BF8B
:100B100000BF00BF09484038C06B8905084307493A
:100B20004039C8630846C06B09040840009000BF04
:100B300000BF0320400200F099FD08BD40100240B4
:100B40000146002905DBCB06DB0E01229A40024B51
:100B50001A6000BF7047000000E100E070B5044675
:100B60000D4616462946204603F0C8FA70BD00001F
:100B700070B50446114800680321490288432043A8
:100B80000E4908604815844216D10D4909680622AD
:100B9000514308460B49FFF7A7FA451C05E0002D15
:100BA00001D06D1E01E0032070BD044840690121A1
:100BB000890208408842F2D00020F5E7007000402A
:100BC0003800002040420F00FEB5044600270020F8
:100BD0000290012149042068084088427BD100200E
:100BE00001907748C06BC902084000280ED100BFB1
:100BF0007348C06B08437249C8630846C06B090458
:100C00000840009000BF00BF012001906D480068BF
:100C1000FF21013108436B490860FFF713FF0646C7
:100C200006E0FFF70FFF801B022801D9032706E02B
:100C300064480068FF21013108400028F1D000BF5E
:100C4000002F4BD15E484030C569032109020D4099
:100C5000002D1AD0A069A84217D059484030C06969
:100C60008843054656484030C069012109040843BD
:100C700053494031C8610846C069012109048843CD
:100C80004F494031C8610846C561E807C00F0028D8
:100C900013D0FFF7D7FE064607E0FFF7D3FE801B11
:100CA0004949884201D9032706E045484030C069D8
:100CB000022108400028F0D000BF002F0CD140488E
:100CC0004030C069032109028843A16908433C49B7
:100CD0004031C86103E00DE0029700E002970198FF
:100CE000012806D13648C06B0121090788433449E1
:100CF000C86300BF2078C007C00F002809D0304863
:100D00004030406980088000616808432C494031C8
:100D10004861022120680840022809D12848403053
:100D200040690C218843A168084325494031486146
:100D300040212068084040280AD1214840304069BD
:100D4000032109038843E16808431D494031486194
:100D50000121890320680840884213D11848403097
:100D60004069800080086169084315494031486145
:100D700009066069884205D11148C0688913084393
:100D80000F49C8600121C90220680840884215D176
:100D90000B48403040690321890388432169084397
:100DA000074940314861012189032069884205D102
:100DB0000348C068890008430149C8600298FEBD25
:100DC00000100240007000408813000070B5044617
:100DD0000D46002C01D1012070BD6B480068400712
:100DE000400FA84218D268480068C008C0002843D5
:100DF00065490860FFF726FE064607E0FFF722FE7A
:100E0000801B6249884201D90320E5E75E480068FB
:100E10004007400FA842F1D1022120680840022873
:100E200015D1042120680840042807D1584880685B
:100E30000721090388434018554988605448806851
:100E40000F2109028843A16808435149886020782E
:100E5000C007C00F002854D06068012808D14C4852
:100E6000006801214904084000282ED10120B3E781
:100E70006068022808D146480068012149060840F8
:100E8000002822D10120A7E76068002808D1404847
:100E90000068012189020840002816D101209BE743
:100EA0006068032808D13A484030006A02210840AF
:100EB00000280AD101208FE735484030C06902215F
:100EC0000840002801D1012086E731488068C00829
:100ED000C000616808432E498860FFF7B3FD0646ED
:100EE00007E0FFF7AFFD801B2849884201D90320A6
:100EF00072E727488068382108406168C900884245
:100F0000EFD1214800684007400FA84218D91E4879
:100F10000068C008C00028431B490860FFF792FD25
:100F2000064607E0FFF78EFD801B1849884201D96D
:100F3000032051E7144800684007400FA842F1D150
:100F4000042120680840042808D11148806807213E
:100F500009038843E16808430D49886000F03AF8C6
:100F60000B4989680F2212021140090A8900094AB7
:100F7000515CC906C90EC8400749086007480068A7
:100F8000FFF788FD28E700000020024088130000DA
:100F9000001002400044000838000020300000200B
:100FA00001480068704700003800002000B5FFF7D6
:100FB000F7FF06498968072212031140090B8900CF
:100FC000034A515CC906C90EC84000BD001002406A
:100FD00040440008FEB535488068382108400028A4
:100FE0000DD13248006809020840C10A012088403A
:100FF00000902F480099FFF777F8044654E02B48FB
:10100000806838210840082801D12A4C4CE0274844
:10101000806838210840102834D12448C0688607E9
:10102000B60F2248C068702108400009401C01909A
:10103000022E0FD0032E0CD11E480199FFF754F851
:101040001A49C9687F2212021140090A484305461D
:101050000DE000BF16480199FFF746F81349C9682B
:101060007F2212021140090A4843054600BF00BF13
:101070000E48C068400F471C39462846FFF734F831
:10108000044611E00948806838210840202801D131
:10109000840209E00548806838210840182802D1F8
:1010A0007D24240200E000242046FEBD0010024002
:1010B0000024F40000127A00FEB50446002C01D191
:1010C0000120FEBD2078C007C00F00286FD0F74870
:1010D000876838210F40C0688607B60F102F01D1EE
:1010E000032E01D0082F0BD1F048006801214904DC
:1010F000084000285BD06068002858D10120E0E754
:1011000000BF012109046068884205D1E7480068F2
:101110000843E649086021E0052109046068884227
:101120000ED1E2480068012189040843DF490860C4
:1011300008460068012109040843DC4908600DE005
:10114000DA480068012109048843D8490860084644
:101150000068012189048843D449086000BF6068A1
:10116000002812D0FFF76EFC054606E0FFF76AFC88
:10117000401B642801D90320A3E7CC480068012163
:10118000490408400028F1D011E0FFF75BFC054658
:1011900006E0FFF757FC401B642801D9032090E7C5
:1011A000C24800680121490408400028F1D1022109
:1011B00020680840022873D1BC4880683821084064
:1011C0000746BA48C0688607B60F102F01D1022E15
:1011D00001D0002F36D1B5480068012189020840AE
:1011E000002804D0E068002801D1012069E7AF4859
:1011F00040687F2109028843616909020843AB49BD
:101200004860002F16D1084600680721C9028843AC
:1012100021690843A5490860084600680722D202F0
:101220001040C20A012090400146A148FEF75CFF31
:10123000A0490860A0480068FFF72CFC002849D0AE
:1012400001203EE7E06800282BD09848006807217D
:10125000C902884321690843944908600846006828
:101260008915084391490860FFF7ECFB054606E045
:10127000FFF7E8FB401B022801D9032021E78B4838
:1012800000680121890208400028F1D087484068A1
:101290007F21090288436169090208438349486044
:1012A00018E082480068FF21013188437F490860C7
:1012B000FFF7C8FB054606E0FFF7C4FB401B02280A
:1012C00001D90320FDE67948006801218902084020
:1012D0000028F1D1082120680840082849D1734826
:1012E00080683821084018280BD170484030006AC7
:1012F0000221084000283CD0A069002839D10120F3
:10130000DFE6A06900281AD068484030006A012151
:101310000843664940310862FFF794FB054606E042
:10132000FFF790FB401B022801D90320C9E65F4864
:101330004030006A022108400028F1D019E05B48E3
:101340004030006A40084000584940310862FFF7C9
:1013500079FB054606E0FFF775FB401B022801D923
:101360000320AEE651484030006A022108400028C0
:10137000F1D104212068084004287CD1002001908C
:101380004A4880683821084020280BD1474840301F
:10139000C0690221084000286ED0A06800286BD1E7
:1013A00001208EE64148C06B010F012088430028D0
:1013B00010D000BF3D48C06B0121090708433B49DD
:1013C000C8630846C06B09040840009000BF00BF16
:1013D0000120019039480068FF21013108400028B0
:1013E00016D136480068084334490860FFF72AFBE5
:1013F000054606E0FFF726FB401B022801D9032023
:101400005FE62E480068FF21013108400028F1D036
:1014100000BFA068012808D124484030C0690121DC
:10142000084322494031C86120E0A06805280FD157
:101430001E484030C069042108431C494031C8613E
:101440000846C0690121084318494031C8610DE0D0
:1014500016484030C0694108490014484030C16115
:10146000C0690421884311494031C86100BFA068A8
:10147000002816D001E040E03EE0FFF7E3FA054621
:1014800007E0FFF7DFFA401B0D49884201D903202E
:1014900017E606484030C069022108400028F0D015
:1014A0001EE0FFF7CFFA054614E0000000100240EE
:1014B0000024F400380000203000002000700040BC
:1014C00088130000FFF7BEFA401B6449884201D927
:1014D0000320F6E56248C069022108400028F1D1E6
:1014E0000198012808D15E484038C06B01210907E6
:1014F00088435B494039C86300BFE06900285AD07F
:101500005748403880683821084010287ED0E0696C
:10151000022851D152484038006801210906884309
:101520004F4940390860FFF78DFA054606E0FFF79E
:1015300089FA401B022801D90320C2E548484038F7
:1015400000680121490608400028F0D1616A206A3C
:101550000843A16A09020843E16A0843216B084372
:101560003F494039C9683F4A114008433C49403926
:10157000C860084600680121090608433849403917
:1015800008600846C0680904084335494039C86006
:10159000FFF758FA054606E0FFF754FA401B022809
:1015A00001D903208DE52E48403800680121490605
:1015B00008400028F0D04EE029484038006801215A
:1015C000090688432649403908600846C0688008F3
:1015D0008000C8600846C068234908402049403957
:1015E000C860FFF72FFA054607E0FFF72BFA401B0C
:1015F000022802D9032064E508E019484038006851
:101600000121490608400028EFD124E0E0690128C3
:1016100000D156E512484038C668B107890F206AE4
:10162000814216D170203040616A884211D17F20FA
:1016300000023040A16A090288420AD11F204004FA
:101640003040E16A884204D1710F4907206B814222
:1016500001D0012035E5002033E5000088130000AB
:10166000401002408C80C11FFFFFFEEF0449096853
:101670000322520291430143014A11607047000066
:101680000000014070B504462546681E094988429D
:1016900001D901200CE0681E074948610321081F99
:1016A00002F02CFD00200449886107200861002019
:1016B00070BD0000FFFFFF0000E000E010B5044631
:1016C000002C01D1012010BD3D20005D002805D176
:1016D00000213C200155204600F00CF802213D205D
:1016E0000155211D206801F075FA01213D200155A9
:1016F0000020E8E738B504460D492068884215D136
:1017000000BF0C48C06B022108430A49C863084661
:10171000C06B02210840009000BF00BF00221146AC
:101720001020FFF71BFA1020FFF70AFA38BD00005F
:10173000000400400010024001460868C068012310
:1017400018430B68D86008688068084B1840024648
:10175000062A08D0D81F824205D0086800680123F5
:1017600018430B6818600020704700000700010054
:1017700001460868C068400840000A68D06000BFA1
:101780000868006A094A104000280BD10868006AFE
:1017900092101040002805D10868006840084000F9
:1017A0000A68106000BF002070470000111100009F
:1017B000F8B504460D4600BF3C20005D012801D16C
:1017C0000220F8BD01213C20015500BF02213D202F
:1017D00001552068866839480640FF2109023046D5
:1017E00088430646206886602868502834D00CDC80
:1017F000202851D004DC00284CD0102852D14AE0D7
:1018000030284AD040284DD13AE060282ED07028A8
:1018100007D001210903401A02D0401A42D10DE03D
:1018200041E0EB686A68A968206801F023FA206843
:101830008668772006432068866034E0EB686A6833
:10184000A968206801F016FA2068806801218903E0
:1018500008432168886026E0EA686968206801F02A
:1018600023FA5021206801F013FA1CE0EA68696845
:10187000206801F032FA6021206801F009FA12E0D4
:10188000EA686968206801F00FFA4021206801F0D9
:10189000FFF908E000BF00BF00BF2968206801F021
:1018A000F7F900E000BF00BF01213D20015500BF56
:1018B00000213C20015500BF002082E788FFCEFFB9
:1018C00070477047704770B50446802005598420E2
:1018D0000659206880688021084080281BD1212D6E
:1018E00019D120688068884321688860606F00286B
:1018F0000ED0606FFEF7B0FD002809D0606FFEF7D4
:1019000051FE202804D1102188200151032070BDF0
:10191000204601F05EFB2068806840210840402896
:101920001BD1222E19D120688068884321688860E5
:10193000A06F00280ED0A06FFEF78EFD002809D002
:10194000A06FFEF72FFE202804D11021882001511E
:101950000320DCE7204601F015FB0020D7E77047A5
:10196000014680204258842043581046184370474F
:10197000FEB504462068C569206806682068876847
:101980002807000F01900198002813D1202028403B
:1019900000280FD020203040002804D1012000076B
:1019A0003840002806D0E06E002802D02046E16EC4
:1019B0008847FEBD019800287ED07A48384000282C
:1019C00004D1FF20213030400028F5D0E807C00FB7
:1019D00000280DD0FF2001303040002808D0012021
:1019E0002168086288200059012108438821085194
:1019F0000220284000280CD0F807C00F002808D08B
:101A000002202168086288200059042108438821A7
:101A100008510420284000280CD0F807C00F0028E7
:101A200008D0042021680862882000590221084358
:101A30008821085108202840002810D0202030405C
:101A4000002803D157483840002808D008202168D2
:101A500008628820005908210843882108518820FD
:101A6000005900284DD02020284000280ED02020EA
:101A70003040002804D1012000073840002805D05C
:101A8000E06E002802D02046E16E88478820005989
:101A900000902068806840210840402804D0082138
:101AA00000980840002826D0204601F06BFA2068F4
:101AB00080684021084000E024E0402817D12068D9
:101AC0008068884321688860A06F00280BD0364862
:101AD000A16F8863A06FFEF70BFD002811D0A06FE7
:101AE000816B88470DE02046FFF739FF09E020466B
:101AF000FFF735FF05E02046FFF731FF0021882082
:101B0000015156E701200005284000280CD0012093
:101B100080053840002807D00120000521680862B0
:101B20002046FFF7CFFE44E78020284000280FD052
:101B300080203040002804D10120C0053840002812
:101B400006D0206F002802D02046216F884730E75A
:101B500040202840002807D040203040002803D0F3
:101B6000204601F025FA24E70120C005284000287E
:101B700008D0012080073040002803D02046FFF71E
:101B8000A0FE16E7012000062840002807D0F00F2D
:101B9000C007002803D02046FFF792FE09E700BFE8
:101BA00007E7000001000010712E000810B5044680
:101BB000002C01D1012010BDA069002800D000E058
:101BC00000BF80200059002805D100217C2001554C
:101BD000204600F02DF82421802001512068006863
:101BE0004008400021680860204601F095FE012869
:101BF00000D1E0E7A06A002802D0204601F086F874
:101C0000206840680921C90288432168486020682B
:101C100080682A2188432168886020680068012143
:101C2000084321680860204601F0E8F8C3E7000097
:101C300010B586B00446142101A8FEF798FA32497F
:101C4000206888425DD100BF3048C06B0121490443
:101C500008432E49C8630846C06B01214904084067
:101C6000009000BF00BF00BF2848406B012108431F
:101C7000264948630846406BC007C00F009000BF6C
:101C800000BF0C20019002200290002003900490DD
:101C90000120059001A905200007FEF7DFFD1C4883
:101CA0001C4908603420486000211A488160802166
:101CB00001610021C16041618161C1610162FEF782
:101CC00005FD00BF1348A067846200BF10481430B0
:101CD0001149086010211048816035200E49486084
:101CE00000210D48C16080210161002141618161B5
:101CF000C1610162FEF7EAFC00BF074860678462C9
:101D000000BF06B010BD00000044004000100240BB
:101D100008000240E40200204003002070B50446A1
:101D20000D46164684200059202867D1002D01D089
:101D3000002E01D1012070BD01210903A068884255
:101D400008D12069002805D1E807C00F002801D07C
:101D50000120F0E700BF7C20005D012801D10220B6
:101D6000E9E701217C20015500BFA5655C200653F1
:101D7000002188200151222184200151A06F0028D8
:101D800022D01F48A16FC8621E48A16F08631E4879
:101D9000A16F48630020A16F88632368194624312E
:101DA0003346A26DA06FFEF7EFFC00280CD0102187
:101DB0008820015100BF00217C20015500BF202157
:101DC000802001510120B6E700BF00217C20015591
:101DD00000BF20680068FF210131084321680860C6
:101DE0002068806801210843216888602068806835
:101DF000402108432168886000209CE702209AE780
:101E0000E32E00082F2F0008892E000810B5044685
:101E100019480078FF280EDB002017490870174981
:101E20000870FF211648FEF7A2F9202215A12046CE
:101E300000F03EF81FE01C4801780F480278007857
:101E4000401C0D4B18700E48815418460078401EF7
:101E50000B49085C0A2805D018460078401E085C2B
:101E60000D2808D100BF2046FFF77AFD2128FAD0BF
:101E700001200249087010BD010000200900002067
:101E80003C0000200A506172616D65746572206DBE
:101E90006F7265207468616E203235352062797406
:101EA00065732E0A0000000000000020704700004B
:101EB00070B504460E4615468020005920285FD193
:101EC000002E01D0002D01D1012070BD0121090398
:101ED000A068884208D12069002805D1F007C00F0A
:101EE000002801D00120F0E700BF7C20005D012820
:101EF00001D10220E9E701217C20015500BF2665C0
:101F000054200553562005530021882001512121DA
:101F100080200151606F002822D01A48616FC8628A
:101F20001948616F08631948616F48630020616F49
:101F3000886323681A4628322B46216D606FFEF7AE
:101F400023FC00280CD010218820015100BF002163
:101F50007C20015500BF2021802001510120B4E7E1
:101F600040202168086200BF00217C20015500BF8D
:101F70002068806880210843216888600020A4E7E9
:101F80000220A2E73D2F0008772F0008892E0008C5
:101F90007047704700B587B000BF2E48406B0421E2
:101FA00008432C4948630846406B042108400190CF
:101FB00000BF00BF142102A8FEF7D9F8012040029B
:101FC000029025480390002004900120059002A96A
:101FD0002248FEF743FC2248006801214902884359
:101FE0001F49086008464068491588431C494860F5
:101FF00048151A49886100BF012149021748FEF7B8
:1020000017FD0128F8D10002029013480390002028
:1020100004900120059002A91048FEF71FFC10480B
:102020000068FF21013188430D4908600846406877
:10203000891588430A494860881508498861002243
:1020400005210720FEF78AFD0720FEF779FD07B07E
:1020500000BD0000001002401100311000080050C7
:1020600000180240F3B581B00E4637460024002523
:102070000020009000BF21480078FF2801D1009087
:1020800031E01F4840680121490288431C494860EB
:1020900000F0F4F8019800F08FF8FF2801D10090CB
:1020A00021E000F013F900281AD100F02BF8401CB1
:1020B000C5B200F05FF8681EC2B22046641C3A54F4
:1020C0000BE000F01FF82146641C7854AC4202D1AA
:1020D00000F0B8F803E000F04DF8AC42F1D900BFD1
:1020E00000F0D8F800BF00BF054840680121490250
:1020F0000843034948600098FEBD00000800002026
:10210000001802401CB500210091019128E0012037
:10211000400217498862042002F04AF868460078B5
:102120004006010E0091012040021149886100BF64
:10213000012149020E48FEF77BFC0128F8D104205A
:1021400002F036F8FF2101310948FEF771FC6946BB
:1021500009780143009168460079401CC1B20191A1
:10216000684600790828D2DB684600781CBD00006C
:102170000008005010B5012040020E49886240104E
:102180008862042002F014F80120400209498861A5
:1021900000BF012149020748FEF74AFC0128F8D197
:1021A000042002F005F80120400202498862401034
:1021B000886110BD000800501CB504460021019143
:1021C0000091019135E0012040021D498862802084
:1021D0002040002803D0FF200130886103E0FF2069
:1021E000013017498862042001F0E2FF802020407E
:1021F000002808D0FF2101311148FEF719FC012801
:1022000001D0FF201CBD012040020D49886100BFA4
:10221000012149020A48FEF70BFC0128F8D10420ED
:1022200001F0C6FF6006040E68460079401CC1B28A
:102230000191684600790828C5DB0020E2E700002C
:102240000008005010B5012040020B4988620420AC
:1022500001F0AEFFFF20013007498861400088612E
:1022600000BF012149020448FEF7E2FB0128F8D132
:10227000042001F09DFF10BD0008005000B5FF20B4
:10228000013003498862042001F092FF00BD000084
:102290000008005010B5012040020B498862401030
:1022A0008862042001F084FF012040020649886111
:1022B00000BF012149020448FEF7BAFB0128F8D10A
:1022C00000020149886110BD0008005010B50120CE
:1022D00040020F49886240108861042001F068FFC5
:1022E000012040020A49886100BF012149020848D3
:1022F000FEF79EFB0128F8D1042001F059FFFF21D1
:1023000001310348FEF794FB0446204610BD00004F
:1023100000080050F8B506460C4627460025002068
:10232000009000BF1B480078FF2801D1009026E0F4
:102330001948406801214902884317494860FFF75E
:102340009DFF3046FFF738FFFF2801D1009016E0CF
:102350000DE0FFF7BBFF002808D129466D1C785C13
:10236000FFF72AFFFF2802D1009004E003E0207865
:10237000401CA842EDD800BFFFF78CFF00BF00BF94
:102380000548406801214902084303494860009814
:10239000F8BD0000080000200018024030B587B0EA
:1023A0000446002106910491312103912178029184
:1023B00061780191FF215E48FDF7D9FE68460079FA
:1023C000C007C00F002805D16846007902210840E7
:1023D00002287DD1012006907FE06946087EC10F6A
:1023E000091849104900411A13D16946097E491C50
:1023F000625C6946087C411CCBB204934C490A5488
:102400000A226946087C411CCBB2049348490A540D
:102410005CE068460079C007C00F00280FD00B228F
:1024200044A14348FDF78AFE6846007C0B30C1B2E8
:1024300004916846007941084900019117E0684617
:10244000007902210840022811D1394A6946097CE5
:1024500050180C223AA1FDF771FE6846007C0C3042
:10246000C1B2049168460079022188430190684610
:10247000007E401C215C05916421039122E06846A6
:10248000017B007DFDF746FE00280DDD6846017BDF
:10249000007DFDF73FFE3030C1B26846057C681C08
:1024A000C2B20492224841556846017B007DFDF787
:1024B00031FEC9B205910A216846007BFDF72AFE6C
:1024C000C1B203916846007D0028D8D1684600E07B
:1024D0000AE0007E401CC1B206916846017E007A87
:1024E000814200DA79E71EE06846007904281AD1B3
:1024F000A07800280AD16846007C1A30C1B2049145
:102500001A2213A10A48FDF719FE0CE0A078012851
:1025100009D16846007C1930C1B20491192213A177
:102520000348FDF70BFE6846007C07B030BD000095
:102530003B0100200A4475726174696F6E3A200095
:102540000A4672657175656E63793A200000000075
:102550000A52756E6E696E672073746174652069C6
:1025600073206D61737465722E0A00000A52756ED5
:102570006E696E6720737461746520697320736C73
:102580006176652E0A00000000B587B0142102A80C
:10259000FDF7EDFD00BF0E48406B012108430C49DB
:1025A00048630846406BC007C00F019000BF00BFE2
:1025B0002020029001200390002004900320059029
:1025C00002A905200007FEF749F907B000BD000089
:1025D0000010024010B50A48C068002803D010203F
:1025E000074948620AE0FF20064908701D2206A13B
:1025F0000D48FFF75DFC0D48FFF79EF810BD000089
:1026000000040040080000200A54686520627573C9
:1026100020697320696E206120627573792073745C
:102620006174652E0A000000580200209C030020FF
:1026300010B5012149020848FEF7FAF9002809D02F
:1026400000200649087006480068012149028843B5
:102650000349086010BD0000000800500800002079
:102660000018024049480078401C48490870484812
:102670000078012843D108460078082814DC454832
:10268000007880210840002803D048004249886132
:1026900003E0FF200130404988623E480078400650
:1026A000000E3C4908706FE03848007809286BD16B
:1026B0003A480078002810D1FF200130364988625E
:1026C00000203249087035490878411C334A11709E
:1026D0003349095C2F4A117056E0FF2001302E4922
:1026E0008861304840680121490288432D4948608B
:1026F00008460068491508432A49086044E0234811
:102700000078092828D12848007828490978884283
:1027100004DAFF2001302049886235E0FF200130D3
:102720001D4988611F4800680121490288431D49ED
:10273000086008464068491588431A4948600846B9
:102740004068891508431749486000200F49087000
:1027500001201749087017E00C4800780A2813D1A7
:1027600000200A490870FF2001300B4988610D489C
:1027700040680121490288430A49486008460068C8
:102780004915084307490860704700000C00002005
:102790001C0000200D000020000800501000002048
:1027A0003A020020001802400E0000200F00002016
:1027B0000A00002010B57D48007802285FD17C48CF
:1027C0000078401C7A4908700846007808282BDCFD
:1027D000784800784006000E76490870FF210131E4
:1027E0007548FEF725F9734909780843714908705F
:1027F0006F480078082817D108460078B0210840B3
:102800006C490978884210D16C484068012149021E
:1028100008436A4948600846006849158843674983
:102820000860002061490870BDE062480078B1216D
:10283000084060490978884210D160484068012109
:10284000490208435D4948600846006849158843C5
:102850005A490860012055490870A4E000205449F5
:10286000087056484068012149028843534948602E
:1028700008460068491508435049086010BD4B4898
:102880000078002851D14A480078401C4849087017
:10289000084600780828C7DC464800784006000E45
:1028A00044490870FF2101314348FEF7C1F841490E
:1028B000097808433F4908703D480078012811D144
:1028C00040023D4988620C2001F072FC0120400268
:1028D0003949886100BF012149023748FEF7A8F84D
:1028E0000128F8D13248007808285CD134480078B3
:1028F000002803D12F480078324908702D490A7802
:102900002F490878411C2E4B19702F490A542B4827
:102910004068012149020843284948600846006888
:1029200049158843254908603DE020480078012882
:1029300039D100201E490870FF2101311E48FEF7E1
:1029400077F8002813D01D48006801214902884308
:102950001A49086008464068491588431749486085
:1029600008464068891508431449486086E71748B7
:10297000007817490978884208DB15490878411C16
:10298000134A11701149095C0A4A11700B484068DA
:102990000121490208430949486008460068491571
:1029A00088430649086000BF68E700001C0000205B
:1029B0000C0000200D00002000080050001802400C
:1029C0000E0000200F0000201D0000203A02002011
:1029D0001000002010B501F023FC00280ED008489C
:1029E0004068FF2101318843054948600846006876
:1029F000491508430249086001F0E6FB10BD0000DC
:102A00000018024010B501F019FC002812D00A4845
:102A10000068012149028843074908600846406868
:102A200049158843044948600846406889150843A9
:102A30000149486010BD0000001802400CB5024674
:102A4000002001900090019031E00098000100907A
:102A50000198105C30280ADB0198105C392806DCEC
:102A60000198105C3038009BC01800901CE0019861
:102A7000105C41280ADB0198105C462806DC0198AE
:102A8000105C3738009BC01800900DE00198105C76
:102A9000612809DB0198105C662805DC0198105C50
:102AA0005738009BC01800900198401C0190019875
:102AB0008842CAD300980CBD10B5FDF7C9FF10BD00
:102AC00000B599B034210CA8FDF751FB0020089007
:102AD00009900A900B901C2101A8FDF748FB0120EA
:102AE0004002FEF745F802200C90C0010F90002034
:102AF0001090402011900220139002211491002187
:102B000015910821169101041791010718910CA83D
:102B1000FEF7D2FA002801D0FDF79CFC07200890B0
:102B20000220099000200A900B90022108A8FEF7CD
:102B30004DF9002801D0FDF78DFC02200190002006
:102B4000039001A8FEF740F8002801D0FDF782FCB1
:102B500019B000BD0120C00601498860704700001F
:102B600000ED00E010B5012149020648FDF760FFC5
:102B7000002805D00020044908700448FEF7F8FD3D
:102B800010BD000000080050080000209C03002039
:102B90001FB5002000900190029003900B480C4953
:102BA00008603F2048600021094881601021C16011
:102BB000002101618161FEF781FD01200003009089
:102BC00069460348FEF7F4FD1FBD00000004004005
:102BD0009C03002010B50268204B984202D0204B85
:102BE000984205D170241346A3431A464B681A43F2
:102BF0001A4B98420ED01A4B98420BD0194B984260
:102C000008D0194B984205D0184B984202D0184B67
:102C1000984206D1032424021346A3431A46CB68E4
:102C20001A4380241346A3434C6923431A46026087
:102C30008B68C3620B688362084B984208D00A4BCA
:102C4000984205D0094B984202D0094B984201D1D5
:102C50000B6903630123436110BD0000002C014098
:102C600000040040002000400040014000440140BA
:102C70000048014070B50C468168FF2636020D46BB
:102C8000B54329461D02154325432943816070BD84
:102C90000A468168034B1940072313431943816097
:102CA000704700008FFFCFFF70B50B461446026AD5
:102CB000056A6D086D0005628169F0260D46B54311
:102CC0002946250129430A261546B5432A461546B5
:102CD0001D432A468161026270BD70B50B461446E1
:102CE000056A1026B54305628169026A0F2636031C
:102CF0000D46B543294625032943A0261546B5436D
:102D00002A461D012A438161026270BD018DC907F7
:102D1000C90F002908D00168496801225204914373
:102D2000C26A1143026851600222816A114002297D
:102D300007D101684968D2039143026B11430268CD
:102D400051600422816A1140042907D10168496851
:102D500012049143426B1143026851600822816A58
:102D60001140082907D10168496812039143826B19
:102D70001143026851601022816A1140102907D165
:102D80000168896812029143C26B11430268916025
:102D90002022816A1140202907D101688968120226
:102DA0009143026C1143026891604022816A114094
:102DB000402915D10168496892039143426C11433F
:102DC0000268516001221205416C914208D10168EC
:102DD0004968032252059143826C11430268516095
:102DE0008022816A1140802907D101684968120355
:102DF0009143C26C114302685160704738B5044674
:102E0000002188200151FDF71DFE0546206800685D
:102E10000821084008280BD114482B4600228904B9
:102E20000090204601F0C8F8002801D0032038BDEA
:102E3000206800680421084004280BD10B482B4669
:102E4000002209050090204601F0B6F8002801D0C4
:102E50000320ECE72021802001518420015100BF94
:102E600000217C20015500BF0020E0E7FFFFFF01AB
:102E700070B50546AC6A00215E200153562001530F
:102E80002046FEF76CFD70BDF8B50546AC6A8020A3
:102E900006598420075920688068802108408028CE
:102EA00007D1212E05D1002156200153204600F0E4
:102EB00090F82068806840210840402807D1222FE0
:102EC00005D100215E200153204600F05BF88820E8
:102ED000005910210843882108512046FEF73FFD84
:102EE000F8BD70B50546AC6A286800682021084026
:102EF000002818D100215E20015320680068FF21BE
:102F000001318843216808602068806840084000DB
:102F10002168886020688068402188432168886033
:102F20002021842001512046FEF770FF70BD70B54E
:102F30000446A56A2846FEF7B9FF70BD70B5054680
:102F4000AC6A286800682021084000280FD10021C1
:102F5000562001532068806880218843216888605A
:102F600020680068402108432168086002E020468C
:102F7000FFF70EF870BD70B50446A56A2846FFF746
:102F800008F870BD01680968FF2221329143026888
:102F9000116001688968054A114002689160202229
:102FA00084210A500021C16670470000FEFFFFEF38
:102FB00010B50446206800684021884321680860F5
:102FC000202180200151002020672046FEF7E0FFED
:102FD00010BD01680968C022914302681160016850
:102FE00089680122D20591430268916020228021E4
:102FF0000A50704770B5E8B00446002167916691A9
:103000006591FF21913101A8FDF7B1F80F21F94831
:10301000FDF7ADF8FF21913101A8FDF7A8F859E0BF
:10302000F54860A9097F405C202831D104E060A800
:10303000007F401CC1B26791EF4960A8007F401C2F
:10304000085C202801D1012000E0002060A9097F50
:10305000EA4A1278914201DA012100E00021084099
:103060000028E4D160A8007D00282ED0002160A8AF
:10307000007E1422504301AA821860A8007D1154DA
:1030800060A8007E401CC1B26691002165911CE0E1
:10309000D94860A9097F405C0D2805D0D64860A9B1
:1030A000097F405C0A2800D11AE0D34A60A9097F51
:1030B000525C60A9087D411CCBB2659360A9097E72
:1030C0001423594301ABC9180A5460A8007F401C5F
:1030D000C1B2679160A8007FC849097888429FDB28
:1030E00000BF0020C5490870FF21C348FDF73FF825
:1030F0000020C3490870FF22BF49C248FEF70EFEF8
:1031000060A8007E401CC1B2669100BF60A8007E2E
:10311000012805DA2A22BCA12046FEF7C9FEE9E310
:1031200001A9C4A0FDF735F8002873D106A9C2A0F3
:10313000FDF72FF8002813D1C1480078002805D1E9
:103140001A22C0A12046FEF7B3FED2E3BC480078A5
:103150000128FAD11922C2A12046FEF7A9FEC8E330
:1031600006A9C6A0FDF715F800280BD006A9C5A032
:10317000FDF70FF8002805D006A9C4A0FDF709F84F
:103180000028E2D160A8007E032805DA2A229EA149
:103190002046FEF78DFEADE302210BA8FFF74EFCA3
:1031A000C0B2B02830D1A6480078002805D110223E
:1031B000B9A12046FEF77CFE9CE3A14800780128D7
:1031C00022D106A9ADA0FCF7E4FF002803D101201D
:1031D000FDF7BAF80CE006A9AAA0FCF7DAFF002870
:1031E00003D10220FDF7B0F802E00320FDF7ACF8B0
:1031F000AE48FFF7D3F881490870084602787E4947
:103200002046FEF755FE75E38D480078012807D16A
:10321000382200E050E0A6A12046FEF749FE69E30F
:103220000120A249087006A994A0FCF7B2FF00286B
:1032300003D101209D4948700CE006A991A0FCF73C
:10324000A8FF002803D102209849487002E003201B
:103250009649487002210BA8FFF7F0FBC5B29349CD
:103260002846FFF757F8FF2805D11D229FA12046C9
:10327000FEF71EFE3EE3012000F08CFF02210BA8AA
:10328000FFF7DCFB401CC5B25A492846FEF7EAFEB0
:10329000FF2805D11D2295A12046FEF709FE29E34E
:1032A0005448FFF77BF8554908700846027897495B
:1032B0002046FEF7FDFD1CE301A995A0FCF769FF80
:1032C00000287DD106A95CA0FCF763FF00285FD130
:1032D00060A8007E032805DA2A224BA12046FEF7CB
:1032E000E7FD07E38BA10BA8FCF753FF002824D1CF
:1032F00053480078012805D1332288A12046FEF7E3
:10330000D7FDF6E201204E490870914891490860C6
:103310004B48007801280AD10A228FA12046FEF7E7
:10332000C7FD19224EA12046FEF7C2FDE1E20922A7
:103330008CA12046FEF7BCFDDBE28DA10BA8FCF7BB
:1033400028FF0028B7D13E480078002805D1352253
:1033500089A12046FEF7ACFDCBE200203849087079
:1033600093487C4908603648007800280AD10A2230
:1033700079A12046FEF79CFD1A2232A12046FEF7D5
:1033800097FDB6E2092277A12046FEF791FDB0E253
:1033900006A93AA0FCF7FDFE00280BD006A939A02B
:1033A000FCF7F7FE002805D006A938A0FCF7F1FECF
:1033B0000028A6D160A8007E052807DA2A2200E0AE
:1033C00091E211A12046FEF773FD93E202210BA8C2
:1033D000FFF734FBC0B2B02809D1194800780028A3
:1033E00006D110222CA12046FEF762FD82E243E1C5
:1033F000E0E00000490200203C0000200100002025
:1034000009000020580200200A436F6D6D616E6450
:10341000206572726F723A20706C6561736520630B
:103420006865636B2074686520636F6D6D616E64A1
:103430002E0A0000676574007374617465000000F3
:10344000020000200A52756E6E696E672073746107
:103450007465206973206D61737465722E0A0000B3
:103460000A52756E6E696E672073746174652069A7
:103470007320736C6176652E0A00000064757261BA
:1034800000000000667265710000000064757261E2
:103490005F667265710000000A4D61737465722089
:1034A0006E6F204C45442E0A000000003A020020B6
:1034B0000A536C617665206E6F207065726D69735A
:1034C00073696F6E7320746F2072656164206F740E
:1034D0006865722064657669636520696E666F72DF
:1034E0006D6174696F6E2E0A000000000A546865F1
:1034F0002062757320697320696E20612062757384
:10350000792073746174652E0A0000003B0100206D
:1035100073657400736C6176650000000A43616E28
:103520002774206368616E676520736C617665201F
:10353000746F20736C617665206F662074686520F7
:1035400072756E6E696E672073746174652E0A0001
:1035500089430008040000200A5375636365737390
:103560002E0A00000A4661696C65642E0A0000009C
:103570006D617374657200000A43616E2774206385
:1035800068616E6765206D617374657220746F2069
:103590006D6173746572206F662074686520727542
:1035A0006E6E696E672073746174652E0A00000088
:1035B00085420008D148007801285DD106A9D0488D
:1035C000FCF7E7FD002812D110A8FCF7DBFD06464A
:1035D000314610A8FFF732FAC6B210A9087D00F0F4
:1035E00011FE46433546284600F0C2FE3DE006A9DE
:1035F000C3480830FCF7CDFD002812D110A8FCF715
:10360000C1FD0646314610A8FFF718FAC6B210A948
:10361000087D00F0F7FD46433546284600F0AEFE33
:1036200023E010A8FCF7AEFD0646314610A8FFF7D0
:1036300005FAC6B210A9087D00F0E4FD4643354600
:10364000284600F095FE1AA8FCF79CFD0646314678
:103650001AA8FFF7F3F9C6B218A9087F00F0D2FD47
:1036600046433546284600F089FE0A22A449DC314B
:103670002046FEF71DFC3DE1A0480078012806D158
:1036800038229F4934312046FEF712FC32E106A968
:103690009B48FCF77EFD002854D10320994908700F
:1036A0000120487010A8FCF76DFD0546294610A8BA
:1036B000FFF7C4F99349887010A8007DC8700BA863
:1036C000FCF760FD064631460BA8FFF7B7F9C5B217
:1036D0008C492846FEF71EFEFF2806D11D22884988
:1036E00070312046FEF7E4FB04E1012000F052FDBA
:1036F00002210BA8FFF7A2F9401CC5B28249284657
:10370000FEF7B0FCFF2806D11D227D49703120460E
:10371000FEF7CEFBEEE000207B4988707948401C24
:10372000FCF737FD002806D10A227549DC31204616
:10373000FEF7BEFBBFE009227149E8312046FEF7E3
:10374000B7FBB8E006A96E480830FCF722FD002858
:1037500053D103206B4908700220487010A8FCF771
:1037600011FD0546294610A8FFF768F965498870DC
:1037700010A8007DC8700BA8FCF704FD0646314672
:103780000BA8FFF75BF9C5B25E492846FEF7C2FDFC
:10379000FF2806D11D225A4970312046FEF788FBCA
:1037A000A8E0012000F0F6FC02210BA8FFF746F983
:1037B000401CC5B254492846FEF754FCFF2806D1E8
:1037C0001D224F4970312046FEF772FB92E04D49B1
:1037D000491C4D48801CFCF7DCFC002806D10A225D
:1037E0004749DC312046FEF763FB64E00922444987
:1037F000E8312046FEF75CFB5DE00520414908709A
:103800000320487010A8FCF7BDFC0546294610A807
:10381000FFF714F93B49887010A8007DC8701AA8FA
:10382000FCF7B0FC054629461AA8FFF707F9354909
:10383000087118A8007F48710BA8FCF7A3FC064686
:1038400031460BA8FFF7FAF8C5B22E492846FEF715
:1038500061FDFF2806D11D22294970312046FEF75F
:1038600027FB47E0042000F0A3FC02210BA8FFF790
:10387000E5F8401CC5B224492846FEF7F3FBFF28B3
:1038800006D11D221E4970312046FEF711FB31E0A2
:103890001D491C48FCF77DFC002806D10A22184966
:1038A000DC312046FEF704FB05E009221449E8312B
:1038B0002046FEF7FDFA1448FEF770FD1349087024
:1038C000012000F067FC01211148406F2030417158
:1038D00020210F48803001600C4802780D492046B5
:1038E000FEF7E6FA06E02A22054974392046FEF77B
:1038F000DFFA00BF00BF002068B070BD02000020EA
:103900007C3400083A020020490200200100002017
:10391000580200203B010020F0B585B00446002687
:103920000020029001902169A06808436169084362
:10393000E16908430490606E04990843049020688C
:103940000068F94908400499084321680860206824
:103950004068032109038843E168084321684860FF
:10396000A0690490206A0499084304902068806844
:10397000EE49084004990843216888602068C06ABD
:1039800000090001616A08432168C86200BFE84974
:103990002068884217D1E74840698007800F0028D7
:1039A00006D0012808D0022804D0032808D105E059
:1039B000002507E0022505E0042503E0082501E0D5
:1039C000102500BF28E0DC492068884217D1D9487B
:1039D00040690C210840002806D0042808D0082897
:1039E00004D00C2808D105E0002507E0022505E0F9
:1039F000042503E0082501E0102500BF0CE0CF49B5
:103A00002068884201D1002506E0CD49206888421F
:103A100001D1002500E0102500BF0121C903E069A4
:103A2000884270D1002D06D0022D53D0042D6BD0CA
:103A3000082D6AD1ECE0FDF7B9FA0746606A002864
:103A400001D1012038E0606A012801D1022033E071
:103A5000606A022801D104202EE0606A032801D1A7
:103A6000062029E0606A042801D1082024E0606A69
:103A7000052801D10A201FE0606A062801D10C2028
:103A80001AE0606A072801D1102015E0606A082852
:103A900001D1202010E0606A092801D140200BE00C
:103AA000606A0A2801D1802006E0606A0B2802D1F2
:103AB000FF20013000E0012001463846FCF714FBEE
:103AC000400061684908401800906168FCF70CFBF1
:103AD00086B2EDE0606A002801D101203BE0606A17
:103AE000012801D1022036E0606A022801D10420B9
:103AF00031E0606A032801D106202CE0606A0428C6
:103B000004D1082027E0E9E033E0CEE0606A052830
:103B100001D10A201FE0606A062801D10C201AE0BA
:103B2000606A072801D1102015E0606A082801D1D9
:103B3000202010E0606A092801D140200BE0606A73
:103B40000A2801D1802006E0606A0B2802D1FF20FC
:103B5000013000E0012001467A48FCF7C5FA400038
:103B600061684908401800906168FCF7BDFA86B2A8
:103B70009EE0FDF72FFA0746606A002801D1012078
:103B800038E0606A012801D1022033E0606A02282F
:103B900001D104202EE0606A032801D1062029E02B
:103BA000606A042801D1082024E0606A052801D158
:103BB0000A201FE0606A062801D10C201AE0606A22
:103BC000072801D1102015E0606A082801D12020C3
:103BD00010E0606A092801D140200BE0606A0A28E1
:103BE00001D1802006E0606A0B2802D1FF2001305D
:103BF00000E0012001463846FCF776FA4000616893
:103C00004908401800906168FCF76EFA86B24FE0F0
:103C1000606A002801D1012038E0606A012801D1E2
:103C2000022033E0606A022801D104202EE0606A9D
:103C3000032801D1062029E0606A042801D1082068
:103C400024E0606A052801D10A201FE0606A062886
:103C500001D10C201AE0606A072801D1102015E07C
:103C6000606A082801D1202010E0606A092801D18B
:103C700040200BE0606A0A2801D1802006E0606ADB
:103C80000B2802D1FF20013000E001200146012075
:103C9000C003FCF729FA4000616849084018009009
:103CA0006168FCF721FA86B202E00120029000BFB1
:103CB00000BF102E0FD3244886420CD822480F385C
:103CC000304003903007400F039908430390039856
:103CD0002168C86061E1012002905EE1002D06D0FC
:103CE000022D65D0042D72D0082D71D1FBE0FDF7B7
:103CF0005DF90746606A002801D101204BE0606A47
:103D0000012801D1022046E0606A022801D1042086
:103D100041E0606A032801D106203CE0606A042883
:103D200014D1082037E00000F369FFCFFFF4FF1142
:103D3000003801404010024000440040004800406C
:103D4000004C00400024F400FFFF0000606A0528DA
:103D500001D10A201FE0606A062801D10C201AE078
:103D6000606A072801D1102015E0606A082801D197
:103D7000202010E0606A092801D140200BE0606A31
:103D80000A2801D1802006E0606A0B2802D1FF20BA
:103D9000013000E0012001463846FCF7A5F96168D2
:103DA0004908401800906168FCF79EF986B2E9E086
:103DB000606A002801D101203AE0606A012801D13F
:103DC000022035E0606A022803D1042030E03CE0A4
:103DD000D5E0606A032801D1062029E0606A042842
:103DE00001D1082024E0606A052801D10A201FE0E3
:103DF000606A062801D10C201AE0606A072801D108
:103E0000102015E0606A082801D1202010E0606AC7
:103E1000092801D140200BE0606A0A2801D18020E6
:103E200006E0606A0B2802D1FF20013000E001208B
:103E300001465F48FCF758F961684908401800904E
:103E40006168FCF751F986B29CE0FDF7C3F80746BC
:103E5000606A002801D1012038E0606A012801D1A0
:103E6000022033E0606A022801D104202EE0606A5B
:103E7000032801D1062029E0606A042801D1082026
:103E800024E0606A052801D10A201FE0606A062844
:103E900001D10C201AE0606A072801D1102015E03A
:103EA000606A082801D1202010E0606A092801D149
:103EB00040200BE0606A0A2801D1802006E0606A99
:103EC0000B2802D1FF20013000E0012001463846D6
:103ED000FCF70AF961684908401800906168FCF72E
:103EE00003F986B24EE0606A002801D1012038E073
:103EF000606A012801D1022033E0606A022801D102
:103F000004202EE0606A032801D1062029E0606ABF
:103F1000042801D1082024E0606A052801D10A2084
:103F20001FE0606A062801D10C201AE0606A0728A9
:103F300001D1102015E0606A082801D1202010E08E
:103F4000606A092801D140200BE0606A0A2801D18B
:103F5000802006E0606A0B2802D1FF20013000E0DB
:103F6000012001460120C003FCF7BEF86168490842
:103F7000401800906168FCF7B7F886B202E00120B3
:103F8000029000BF00BF102E05D30A48864202D817
:103F90002068C66001E00120029001216A200153DF
:103FA000682001530020E0662067029805B0F0BD4C
:103FB0000024F400FFFF0000FFB581B004460D4669
:103FC00017460A9E24E0701C002821D0FCF73AFD19
:103FD0000499401AB04201D8002E19D12068006817
:103FE000FF21A1318843216808602068806840086B
:103FF00040002168886020218020015184200151E7
:1040000000BF00217C20015500BF032005B0F0BD9A
:104010002068C0692840A84201D1012000E00020AA
:10402000B842D0D00020F1E710B513480068C0694D
:10403000102108400009002815D010200E490968F9
:1040400008620D48FDF73FFC0B48806F0068406830
:10405000FF21081A0949087008460078002802D094
:104060000120074908700448FDF782FCFF2205493A
:104070000148FDF753FE10BD58020020010000204A
:10408000090000203C00002010B5194819490860BB
:10409000E12040024860002116488160C160016152
:1040A0000C21416100218161C161016241620020F6
:1040B000104988620846FDF779FD002801D0FCF719
:1040C000C9F9FF220C490B48FDF728FE0022032105
:1040D0001C20FCF743FD1C20FCF732FD054800685E
:1040E00000681021084303490968086010BD0000FA
:1040F00000440040580200203C00002010B5002879
:1041000019DB1A4A03231B02D21883089B00D258DA
:104110008307DC0EFF23A3409A438B071B0E840703
:10412000E40EA3401A43114B032424021B198408F4
:10413000A4001A5118E00E4A03071B0F083B9B0806
:104140009B00D2588307DC0EFF23A3409A438B07C2
:104150001B0E8407E40EA3401A43054B0407240FEB
:10416000083CA408A4001A5110BD000000E100E0C2
:104170001CED00E002E008C8121F08C1002AFAD1B5
:1041800070477047002001E001C1121F002AFBD1D7
:104190007047000010B5044602E0044800F008F83B
:1041A0002046641E0028F8D110BD00008D030000D9
:1041B00008B581004118009100BF00994A1E009285
:1041C0000029FAD108BD000002200849087000202B
:1041D0000749087007490870074908700320074914
:1041E0000870002006490870704700001C0000207D
:1041F0000C0000200E0000200D0000200F00002009
:104200001000002001466D2903D0732904D1034812
:1042100070477D20C000FBE77520F9E740420F00A2
:1042200010B5012149020448FCF702FC002801D026
:10423000012010BD0020FCE70008005010B501214E
:1042400049020448FCF7F4FB002801D0012010BD0E
:104250000020FCE700080050FCF706FCFEF730FCED
:10426000FBF7F4FFFEF794FCFFF70EFFFEF78CF967
:10427000FDF790FE02E0024800688047FBE700007F
:104280000400002010B50A48406801214902084393
:104290000749486006E007480078012802D106482F
:1042A000FEF7A8FE054800780028F4D010BD0000F5
:1042B00000180240090000205802002002000020DF
:1042C00070B52648447800253AE0E007C00F002882
:1042D0000FD0E91C214B585CFFF794FFA91C1F4B22
:1042E000595C4843024600F043F864086400022524
:1042F00026E002202040022810D1E91C174B585C10
:10430000FFF780FFA91C154B595C4843024600F09B
:1043100035F8022120468843044611E0042C0FD1D1
:104320000E488078002805D10D4908700D480E49C7
:10433000086005E001200A4908700C480A49086035
:10434000002CC2D1054840788007800F002803D098
:1043500002494878FBF7F8FF70BD00001D000020FF
:104360000200002085420008040000208943000864
:1043700001490860704700001800002001490860EA
:10438000704700001400002010B5FFF799FF174890
:104390004068FF21013108431449486020E0144877
:1043A0000078012804D1FFF78BFF00201049087026
:1043B0001048006800280BD02020052109078861DB
:1043C0000C480068FFF7F4FE2020052109078862E9
:1043D00009480068002803D007480068FFF7E8FE96
:1043E000064800780128DAD010BD0000001802400D
:1043F0000A00002018000020140000200200002005
:1044000000000000000000000000000000000000AC
:10441000000000000000000000000000000000009C
:104420000100000002000000030000000400000082
:10443000060000000700000008000000090000005E
:10444000000000000000000000000000000000006C
:104450000100000002000000030000000400000052
:1044600080440008000000203C0000007441000867
:10447000BC4400083C000020A40B0000844100085C
:10448000000000008542000800000000000000035A
:104490000000000000000000000000000205030111
:1044A0007301730000000000000000000000000025
:0C44B00004000000010000000024F400E3
:04000005080000B936
:00000001FF
