:020000040800F2
:10000000D8050020CD000008D5000008D700000862
:1000100000000000000000000000000000000000E0
:10002000000000000000000000000000D9000008EF
:100030000000000000000000DB0000081923000899
:10004000DF00000800000000DF000008DF000008FB
:10005000DF000008DF000008DF000008DD02000804
:1000600000000000DF000008DF000008DF000008DB
:10007000DF000008DF000008DF00000800000000CB
:10008000DF000008DF000008DF000008DF000008D4
:10009000DF000008DF000008DF000008DF000008C4
:1000A000DF000008DF000008DF000008DF000008B4
:1000B00009380008DF0000080348854600F078F89A
:1000C0000048004765390008D805002004488047EB
:1000D00004480047FEE7FEE7FEE7FEE7FEE7FEE72F
:1000E00099230008B900000830B50B4601460020EE
:1000F0002022012409E00D46D5409D4205D31D462E
:100100009540491B2546954040191546521E002D25
:10011000F1DC30BD70B500242546002801DA012449
:100120004042002901DA01254942FFF7DDFFAC42D8
:1001300000D04042002C00D0494270BD03460B4322
:100140009B0703D009E008C9121F08C0042AFAD28D
:1001500003E00B780370401C491C521EF9D2704713
:10016000D2B201E00270401C491EFBD2704700224F
:10017000F6E710B513460A4604461946FFF7F0FFA6
:10018000204610BD421C0178401C0029FBD1801A7A
:10019000704710B5002200E0521C835C8C5CA342C7
:1001A00001D1002BF8D1D8B2E1B2401A10BD000045
:1001B000064C0125064E05E0E36807CC2B430C3CBA
:1001C00098471034B442F7D3FFF77AFFB83A0008E3
:1001D000D83A000810B53D493D480068FFF784FF54
:1001E000FF2810D839493A480068FFF77DFF0028FA
:1001F00009D0364936480068FFF776FF3549087060
:100200007320487023E07D21C90031480068FFF762
:100210006BFFFF2811D82D492D480068FFF764FFB8
:1002200000280AD07D21C90029480068FFF75CFF3B
:10023000284908706D20487009E07D21C9002448D4
:100240000068FFF751FF23490870752048701F4967
:1002500021480068FFF748FFFF2810D81B491E48B7
:100260000068FFF741FF002809D018491A480068C4
:10027000FFF73AFF174988707320C87023E07D218B
:10028000C90015480068FFF72FFFFF2811D30F4959
:1002900011480068FFF728FF00280AD07D21C90017
:1002A0000D480068FFF720FF0A4988706D20C8706C
:1002B00009E07D21C90008480068FFF715FF0549DE
:1002C00088707520C870002010BD000040420F00EB
:1002D00018000020370100201400002010B5064847
:1002E0000078002803D1102000F07CF802E02020E4
:1002F00000F078F810BD00000200002070470000F8
:1003000070B50446002500BF00212420015500BF20
:1003100000BF005D012801D1022070BD0121242011
:10032000015500BF2520005D022803D00420E063B2
:1003300001253AE0206800680E21884321680860A2
:10034000206800684008400021680860606C006810
:10035000FF2101318843616C0860154840681C2208
:10036000216C114001228A40104311494860A16C60
:10037000E06C4860206D002809D0206D0068FF21E6
:1003800001318843216D0860616DA06D48600121D5
:100390002520015500BF00212420015500BFA06B7E
:1003A000002802D02046A16B88472846B5E7000008
:1003B0000000024010B5044609480078002805D125
:1003C000102C03D1204601F0D7FD08E00448007846
:1003D000012804D1202C02D1204601F0EDFD10BDF2
:1003E0000200002010B504460A48C06820400028DA
:1003F00004D00848C460204600F00EF805480069A3
:100400002040002804D0034804612046FFF7D2FFB3
:1004100010BD00000018024010B5044609480078DD
:10042000002805D1102C03D1204601F0B5FD08E0CD
:1004300004480078012804D1202C02D1204601F084
:10044000C9FD10BD0200002070B503460022D5E0B2
:10045000012696400C683440002C71D04D68022D66
:1004600002D04D68122D15D1D508AE001D4620359D
:10047000A8595507EE0E0F25B5400646AE43304647
:100480005607F60E0D69B5402843D508AD001E4647
:1004900020367051186856000325B5400646AE4315
:1004A00030460D79AD07AD0F5600B54028431860B2
:1004B0004D68012D08D04D68022D05D04D68112DD5
:1004C00002D04D68122D18D1986856000325B5400A
:1004D0000646AE4330465600CD68B5402843986086
:1004E0005868012595400646AE43304610264D68B3
:1004F00035402D09954028435860D868560003259B
:10050000B5400646AE43304656008D68B540284398
:10051000D860012636074D683540B5426DD13A4D59
:100520009608B600A8599507EE0E0F25B540064669
:10053000AE43304605252D07AB4202D1002510E021
:100540005BE0324DAB4201D101250AE0304DAB42B8
:1005500001D1022505E02F4DAB4201D1032500E07A
:1005600005259607F60EB5402843274D9608B60098
:10057000A851254D203528680546A5432846012663
:1005800036044D683540B54202D10546254328461C
:100590001D4D2035286068680546A543284601267C
:1005A00076044D683540B54202D1054625432846BC
:1005B000154D20356860144D603D28680546A543FB
:1005C0002846012636054D683540B54202D105461C
:1005D000254328460C4D603D286068680546A543C4
:1005E0002846012676054D683540B54202D10546BC
:1005F00025432846044D603D6860521C0D68D54077
:10060000002D00D024E770BD6018024000040050A7
:1006100000080050000C0050024613690B40002BEC
:1006200001D0012000E000207047002A01D0816144
:1006300000E08162704700000148006870470000D8
:100640002800002003480068034909684018014950
:1006500008607047280000203000002010B50024FA
:1006600008480068FF21013108430649086000205E
:1006700000F00AF8002801D0012401E000F034F86D
:10068000204610BD00200240F8B50446002513485E
:10069000006800281ED0114801687D20C000FFF7C7
:1006A00023FD074639460E480068FFF71DFD064644
:1006B00000F0E0FC00280BD1042C07D200222146D8
:1006C000401E00F045F80748046004E0012502E000
:1006D000012500E001252846F8BD0000300000207B
:1006E000340000202C00002008B500BF104800682E
:1006F000012108430E49086008460068C007C00F82
:10070000009000BF00BF00BF09484038C06B89059A
:10071000084307494039C8630846C06B09040840CC
:10072000009000BF00BF0320400200F097FC08BD0E
:10073000401002400146002905DBCB06DB0E0122FA
:100740009A40024B1A6000BF7047000000E100E0D1
:1007500070B504460D4616462946204603F062F859
:1007600070BD000070B504461148006803214902BD
:10077000884320430E4908604815844216D10D492C
:1007800009680622514308460B49FFF7ADFC451C9A
:1007900005E0002D01D06D1E01E0032070BD04486E
:1007A00040690121890208408842F2D00020F5E723
:1007B000007000403400002040420F0070B5044635
:1007C0000D46002C01D1012070BD6B480068400728
:1007D000400FA84218D268480068C008C0002843EB
:1007E00065490860FFF728FF064607E0FFF724FF8A
:1007F000801B6249884201D90320E5E75E48006812
:100800004007400FA842F1D1022120680840022889
:1008100015D1042120680840042807D15848806871
:100820000721090388434018554988605448806867
:100830000F2109028843A168084351498860207844
:10084000C007C00F002854D06068012808D14C4868
:10085000006801214904084000282ED10120B3E797
:100860006068022808D1464800680121490608400E
:10087000002822D10120A7E76068002808D140485D
:100880000068012189020840002816D101209BE759
:100890006068032808D13A484030006A02210840C5
:1008A00000280AD101208FE735484030C069022175
:1008B0000840002801D1012086E731488068C0083F
:1008C000C000616808432E498860FFF7B5FE064600
:1008D00007E0FFF7B1FE801B2849884201D90320B9
:1008E00072E727488068382108406168C90088425B
:1008F000EFD1214800684007400FA84218D91E4890
:100900000068C008C00028431B490860FFF794FE38
:10091000064607E0FFF790FE801B1849884201D980
:10092000032051E7144800684007400FA842F1D166
:10093000042120680840042808D111488068072154
:1009400009038843E16808430D49886000F03AF8DC
:100950000B4989680F2212021140090A8900094ACD
:10096000515CC906C90EC8400749086007480068BD
:10097000FFF78AFE28E700000020024088130000ED
:1009800000100240583A0008340000202C000020DB
:1009900001480068704700003400002000B5FFF7F0
:1009A000F7FF06498968072212031140090B8900E5
:1009B000034A515CC906C90EC84000BD0010024080
:1009C000983A0008FEB5354880683821084000286C
:1009D0000DD13248006809020840C10A0120884050
:1009E00000902F480099FFF77FFB044654E02B4806
:1009F000806838210840082801D12A4C4CE027485B
:100A0000806838210840102834D12448C0688607FF
:100A1000B60F2248C068702108400009401C0190B0
:100A2000022E0FD0032E0CD11E480199FFF75CFB5C
:100A30001A49C9687F2212021140090A4843054633
:100A40000DE000BF16480199FFF74EFB1349C96836
:100A50007F2212021140090A4843054600BF00BF29
:100A60000E48C068400F471C39462846FFF73CFB3C
:100A7000044611E00948806838210840202801D147
:100A8000840209E00548806838210840182802D10E
:100A90007D24240200E000242046FEBD0010024018
:100AA0000024F40000127A00FEB50446002C01D1A7
:100AB0000120FEBD2078C007C00F00286FD0F74886
:100AC000876838210F40C0688607B60F102F01D104
:100AD000032E01D0082F0BD1F048006801214904F2
:100AE000084000285BD06068002858D10120E0E76A
:100AF00000BF012109046068884205D1E748006809
:100B00000843E649086021E005210904606888423D
:100B10000ED1E2480068012189040843DF490860DA
:100B200008460068012109040843DC4908600DE01B
:100B3000DA480068012109048843D849086008465A
:100B40000068012189048843D449086000BF6068B7
:100B5000002812D0FFF770FD054606E0FFF76CFD98
:100B6000401B642801D90320A3E7CC480068012179
:100B7000490408400028F1D011E0FFF75DFD05466B
:100B800006E0FFF759FD401B642801D9032090E7D8
:100B9000C24800680121490408400028F1D102211F
:100BA00020680840022873D1BC488068382108407A
:100BB0000746BA48C0688607B60F102F01D1022E2B
:100BC00001D0002F36D1B5480068012189020840C4
:100BD000002804D0E068002801D1012069E7AF486F
:100BE00040687F2109028843616909020843AB49D3
:100BF0004860002F16D1084600680721C9028843C3
:100C000021690843A5490860084600680722D20206
:100C10001040C20A012090400146A148FFF764FA43
:100C2000A0490860A0480068FFF72EFD002849D0C1
:100C300001203EE7E06800282BD098480068072193
:100C4000C90288432169084394490860084600683E
:100C50008915084391490860FFF7EEFC054606E058
:100C6000FFF7EAFC401B022801D9032021E78B484B
:100C700000680121890208400028F1D087484068B7
:100C80007F2109028843616909020843834948605A
:100C900018E082480068FF21013188437F490860DD
:100CA000FFF7CAFC054606E0FFF7C6FC401B02281A
:100CB00001D90320FDE67948006801218902084036
:100CC0000028F1D1082120680840082849D173483C
:100CD00080683821084018280BD170484030006ADD
:100CE0000221084000283CD0A069002839D1012009
:100CF000DFE6A06900281AD068484030006A012168
:100D00000843664940310862FFF796FC054606E055
:100D1000FFF792FC401B022801D90320C9E65F4877
:100D20004030006A022108400028F1D019E05B48F9
:100D30004030006A40084000584940310862FFF7DF
:100D40007BFC054606E0FFF777FC401B022801D933
:100D50000320AEE651484030006A022108400028D6
:100D6000F1D104212068084004287CD100200190A2
:100D70004A4880683821084020280BD14748403035
:100D8000C0690221084000286ED0A06800286BD1FD
:100D900001208EE64148C06B010F012088430028E6
:100DA00010D000BF3D48C06B0121090708433B49F3
:100DB000C8630846C06B09040840009000BF00BF2C
:100DC0000120019039480068FF21013108400028C6
:100DD00016D136480068084334490860FFF72CFCF8
:100DE000054606E0FFF728FC401B022801D9032036
:100DF0005FE62E480068FF21013108400028F1D04D
:100E000000BFA068012808D124484030C0690121F2
:100E1000084322494031C86120E0A06805280FD16D
:100E20001E484030C069042108431C494031C86154
:100E30000846C0690121084318494031C8610DE0E6
:100E400016484030C0694108490014484030C1612B
:100E5000C0690421884311494031C86100BFA068BE
:100E6000002816D001E040E03EE0FFF7E5FB054634
:100E700007E0FFF7E1FB401B0D49884201D9032041
:100E800017E606484030C069022108400028F0D02B
:100E90001EE0FFF7D1FB054614E000000010024001
:100EA0000024F400340000202C00002000700040DA
:100EB00088130000FFF7C0FB401B6449884201D93A
:100EC0000320F6E56248C069022108400028F1D1FC
:100ED0000198012808D15E484038C06B01210907FC
:100EE00088435B494039C86300BFE06900285AD095
:100EF0005748403880683821084010287ED0E06983
:100F0000022851D15248403800680121090688431F
:100F10004F4940390860FFF78FFB054606E0FFF7B1
:100F20008BFB401B022801D90320C2E5484840380A
:100F300000680121490608400028F0D1616A206A52
:100F40000843A16A09020843E16A0843216B084388
:100F50003F494039C9683F4A114008433C4940393C
:100F6000C86008460068012109060843384940392D
:100F700008600846C0680904084335494039C8601C
:100F8000FFF75AFB054606E0FFF756FB401B022819
:100F900001D903208DE52E4840380068012149061B
:100FA00008400028F0D04EE0294840380068012170
:100FB000090688432649403908600846C068800809
:100FC0008000C8600846C06823490840204940396D
:100FD000C860FFF731FB054607E0FFF72DFB401B1C
:100FE000022802D9032064E508E019484038006867
:100FF0000121490608400028EFD124E0E0690128DA
:1010000000D156E512484038C668B107890F206AFA
:10101000814216D170203040616A884211D17F2010
:1010200000023040A16A090288420AD11F20400410
:101030003040E16A884204D1710F4907206B814238
:1010400001D0012035E5002033E5000088130000C1
:10105000401002408C80C11FFFFFFEEF0449096869
:101060000322520291430143014A1160704700007C
:101070000000014070B504462546681E09498842B3
:1010800001D901200CE0681E074948610321081FAF
:1010900002F0C8FB00200449886107200861002095
:1010A00070BD0000FFFFFF0000E000E0014600BF50
:1010B0007C20405C012801D10220704701237C2064
:1010C000435400BF24238020435008680268086806
:1010D0000068400840000B68186001235B07104659
:1010E000984302460020486608680260202380205A
:1010F000435000BF00237C20435400BF0020DCE7A6
:10110000704770B504460D4600BF7C20005D012885
:1011100001D1022070BD01217C20015500BF242196
:10112000802001512068066820680068400840005F
:1011300021680860206880680721490688432843A1
:1011400021688860204601F02FF920680660202180
:101150008020015100BF00217C20015500BF0020EC
:10116000D8E770B504460D4600BF7C20005D01281D
:1011700001D1022070BD01217C20015500BF242136
:1011800080200151206806682068006840084000FF
:101190002168086020688068C000C0082843216872
:1011A0008860204601F000F9206806602021802038
:1011B000015100BF00217C20015500BF0020D9E76C
:1011C000704770477047014680204258842043583A
:1011D0001046184370470000FEB504462068C569F4
:1011E00020680668206887682807000F019001982A
:1011F000002813D12020284000280FD02020304084
:10120000002804D1012000073840002806D0E06EF5
:10121000002802D02046E16E8847FEBD01980028D4
:101220007ED07A483840002804D1FF202130304059
:101230000028F5D0E807C00F00280DD0FF200130AE
:101240003040002808D00120216808628820005919
:1012500001210843882108510220284000280CD091
:10126000F807C00F002808D00220216808628820F3
:1012700000590421084388210851042028400028EF
:101280000CD0F807C00F002808D00420216808629D
:10129000882000590221084388210851082028404D
:1012A000002810D020203040002803D15748384073
:1012B000002808D0082021680862882000590821E9
:1012C0000843882108518820005900284DD020204B
:1012D000284000280ED020203040002804D10120D2
:1012E00000073840002805D0E06E002802D02046D4
:1012F000E16E88478820005900902068806840216E
:101300000840402804D0082100980840002826D032
:10131000204601F049F9206880684021084000E03B
:1013200024E0402817D120688068884321688860BD
:10133000A06F00280BD03648A16F8863A06FFEF71E
:10134000DFFF002811D0A06F816B88470DE0204699
:10135000FFF738FF09E02046FFF734FF05E020469D
:10136000FFF730FF00218820015156E701200005DA
:10137000284000280CD0012080053840002807D0E4
:1013800001200005216808622046FFF71AFF44E7A4
:101390008020284000280FD080203040002804D131
:1013A0000120C0053840002806D0206F002802D058
:1013B0002046216F884730E740202840002807D08A
:1013C00040203040002803D0204601F003F924E7F4
:1013D0000120C0052840002808D0012080073040A7
:1013E000002803D02046FFF7EBFE16E70120000699
:1013F0002840002807D0F00FC007002803D020465F
:10140000FFF77EFE09E700BF07E7000001000010BC
:101410009125000810B50446002C01D1012010BD13
:10142000A069002800D000E000BF802000590028FB
:1014300005D100217C200155204600F02DF8242103
:101440008020015120680068400840002168086041
:10145000204601F051FE012800D1E0E7A06A0028F3
:1014600002D0204600F0E2FF206840680921C9024E
:10147000884321684860206880682A218843216861
:1014800088602068006801210843216808602046C0
:1014900001F044F8C3E7000010B586B004461421FB
:1014A00001A8FEF764FE1D492068884233D100BFC1
:1014B0001B48C06B0121490408431949C863084609
:1014C000C06B012149040840009000BF00BF00BF6D
:1014D0001348406B01210843114948630846406B9B
:1014E000C007C00F009000BF00BF0C200190022079
:1014F00002900020039004900120059001A905208E
:101500000007FEF7A1FF002211461C20FFF720F97B
:101510001C20FFF70FF906B010BD0000004400408A
:101520000010024010B503468420C058202876D110
:10153000002901D0002A01D1012010BD012424037B
:101540009868A04208D11869002805D1C807C00FC3
:10155000002801D00120F0E700BF7C20C05C0128FA
:1015600001D10220E9E701247C20C45400BF996521
:101570005C20C2525E20C2520020D86600BF240305
:101580009868A0420AD11869002803D13E4C602017
:10159000C45224E0FF246020C45220E09868002850
:1015A0000AD11869002803D1FF246020C45216E034
:1015B0007F246020C45212E0012424079868A042CE
:1015C0000AD11869002803D17F246020C45206E0A4
:1015D0003F246020C45202E000246020C45200BFB7
:1015E00000248820C45022248420C45018688068B5
:1015F000012420431C68A06001246407586EA042A7
:1016000024D16820C05A904220DC64149868A0421B
:1016100006D11869002803D11C48D86602E030E0E2
:101620001B48D86600BF00247C20C45400BF186843
:101630000068FF24013420431C682060186880681B
:101640000124240720431C68A06018E0012424031F
:101650009868A04205D11869002802D10D48D866C3
:1016600001E00D48D86600BF00247C20C45400BFB0
:1016700018680068FF24213420431C682060002083
:101680005BE7022059E70000FF010000152F00086A
:1016900041300008A52E0008D12F000810B50446DF
:1016A00019480078FF280DDB002017490870FF213A
:1016B0001648FEF75CFD164B202216A1204600F0CE
:1016C0003DF820E01C4801780F4802780078401C63
:1016D0000D4B18700D48815418460078401E0B4978
:1016E000085C0A280FD100BF2046FFF76CFD2128B7
:1016F000FAD0204600F080FF002003490870FF2147
:101700000248FEF734FD10BD010000203800002023
:10171000FFFF00000A506172616D65746572206D93
:101720006F7265207468616E20323535206279747D
:1017300065732E0A0000000000000020FFB583B092
:1017400004460D46174680200059202878D1002DE8
:1017500001D0002F02D1012007B0F0BD0121090303
:10176000A068884208D12069002805D1E807C00F89
:10177000002801D00120EFE700BF7C20005D012898
:1017800001D10220E8E701217C20015500BF0021A2
:1017900088200151212180200151FEF74DFF019049
:1017A000542007535620075301210903A06888429B
:1017B00005D12069002802D10026029502E02E46BC
:1017C0000020029021E0069800900022802120460F
:1017D000019B01F0E1FF002801D00320BCE7002EAF
:1017E00009D102980088C005C00D2168886202985E
:1017F000801C029003E0307821688862761C5620B5
:10180000005B401E81B2562001535620005B002829
:10181000D9D106980090002240212046019B01F07A
:10182000BBFF002801D0032096E720218020015132
:1018300000BF00217C20015500BF00208CE7FFE79E
:10184000022089E770470000F7B582B00E461446C3
:10185000374600250020019021480078002818D143
:1018600020212048FEF7D8FE0190052002F034F830
:1018700020211C48FEF7D0FE01990840012802D023
:10188000FF2005B0F0BD00F089F81020164908616E
:1018900001E0FF20F5E700F043F9029800F0F4F8CA
:1018A000FF2802D10E490870EBE700F05BF9002831
:1018B0000FD10BE000F01AF829466D1C7854A542B0
:1018C00002D100F01BF903E000F0C8F8A542F1D303
:1018D00000BF00F035F900F08DF80020D1E70000DE
:1018E0000800002000080050001802401CB500212C
:1018F000009101911CE0202011498862052001F02F
:10190000EBFF694608784006000E009000F092F95F
:10191000052001F0E1FF10210948FEF77DFE694630
:1019200009780843009069460879401CC0B20190CC
:10193000684600790828DEDB684600781CBD000098
:101940000008005000B587B0142102A8FEF70FFC74
:1019500000BF1048406B042108430E494863084605
:10196000406B04210840019000BF00BF202002907E
:1019700011200390002004900320059002A906483E
:10198000FEF762FD012220210348FEF74EFE07B05C
:1019900000BD0000001002400008005000B587B0F4
:1019A000142102A8FEF7E3FB00BF1048406B04219E
:1019B00008430E4948630846406B042108400190E3
:1019C00000BF00BF1020029011200390002004905F
:1019D0000320059002A90648FEF736FD01221021DA
:1019E0000348FEF722FE07B000BD000000100240D1
:1019F0000008005000B587B0102014490861C86085
:101A0000142102A8FEF7B3FB00BF1148406B04216C
:101A100008430F4948630846406B04210840019081
:101A200000BF00BF102002900A48039000200490DD
:101A300002A90948FEF708FD002211460720FEF71B
:101A400087FE0720FEF776FE07B000BD00180240B3
:101A500000100240000031100008005010B5202096
:101A60000849886210208862052001F035FF00F0E7
:101A7000E1F8052001F030FF1020024988612020A4
:101A8000886210BD0008005038B50446002100915E
:101A900000912BE0202018498862052001F01CFFEE
:101AA0008020204000280AD010201349886110218E
:101AB0001148FEF7B1FD01280CD0FF2038BD1020E1
:101AC0000D49886210210C48FEF7A6FD002801D0C0
:101AD000FF20F3E700F0AEF8052001F0FDFE600600
:101AE000040E68460078401CC1B200916846007838
:101AF0000828CFDB0020E1E70008005010B52020C7
:101B000006498862052001F0E7FE1020034988613C
:101B100000F090F8052001F0DFFE10BD0008005035
:101B200010B500F087F8102004498861052001F005
:101B3000D3FE10200149886210BD0000000800504B
:101B400010B520200649886210208862052001F027
:101B5000C3FE00F06FF810200149886110BD00003D
:101B60000008005010B520200949886210208861C3
:101B7000052001F0B1FE00F05DF8052001F0ACFE9B
:101B800010210348FEF748FD0446204610BD000022
:101B900000080050F7B582B00C46154627460026CF
:101BA0000020019020480078002818D120211F48EB
:101BB000FEF732FD0190052001F08EFE20211B482A
:101BC000FEF72AFD01990840012802D0FF2005B048
:101BD000F0BDFFF7E3FE10201549086101E0FF208A
:101BE000F5E7FFF79DFF0298FFF74EFFFF2802D1B0
:101BF0000D490870EBE70EE0FFF7B4FF002809D1AC
:101C00003146761C785CFFF73FFFFF2803D1064979
:101C10000870DCE701E0AE42EED300BFFFF790FFB3
:101C2000FFF7E8FE0020D2E708000020000800507F
:101C30000018024010B520200449886100BF20210F
:101C40000248FEF7E9FC0028F9D010BD000800505A
:101C500003484068202188430149486070470000DC
:101C60000018024000B585B014216846FEF77FFADF
:101C7000202000900948019000200290032003904A
:101C800069460748FEF7E0FB002201210720FEF726
:101C90005FFD0720FEF74EFD05B000BD00002110DE
:101CA0000008005000B5052001F016FE034840680A
:101CB000202108430149486000BD0000001802408F
:101CC00003480068202188430149086070470000EC
:101CD00000180240034800682021084301490860B9
:101CE000704700000018024000B587B0142102A818
:101CF000FEF73DFA00BF0F48406B042108430D4931
:101D000048630846406B04210840019000BF00BFB3
:101D100010200290112003900020049003200590D1
:101D200002A90548FEF790FB10200349886107B01F
:101D300000BD0000001002400008005000B5102057
:101D400004498862052001F0C7FD1020014988611F
:101D500000BD00000008005000B510200249886155
:101D6000052001F0B9FD00BD00080050F0B585B0B8
:101D700004460D4616460021039101913121009140
:101D8000FF213C48FEF7F3F90021039169E0694621
:101D9000087BC10F091849104900411A12D0694641
:101DA000097B625C69460879411CCBB201933149D9
:101DB0000A540A2269460879411CCBB201932D4985
:101DC0000A5449E0F0203040F0280AD10B222AA121
:101DD0002848FEF7B3F9684600790B30C1B201918B
:101DE0000CE0244A6946097950180C2225A1FEF717
:101DF000A5F9684600790C30C1B201916846007BB4
:101E0000215C02916421009122E068460178007A09
:101E1000FEF780F900280DDD68460178007AFEF7AC
:101E200079F93030C1B268460779781CC2B20192A4
:101E30001048C15568460178007AFEF76BF9C9B2BF
:101E400002910A2168460078FEF764F9C1B2009158
:101E50006846007A0028D8D16846007B401CC1B291
:101E600003916846007BA84291DB6846007905B083
:101E7000F0BD0000380000200A4475726174696F7B
:101E80006E3A20000A4672657175656E63793A2074
:101E90000000000010B504460122202105200007A3
:101EA000FEF7C3FB204601F017FD0022202105208C
:101EB0000007FEF7BAFB10BD00B587B0142102A8D9
:101EC000FEF755F900BF0E48406B012108430C494D
:101ED00048630846406BC007C00F019000BF00BFB9
:101EE0002020029001200390002004900320059000
:101EF00002A905200007FEF7A7FA07B000BD000001
:101F00000010024010B51A481A490860E12040024A
:101F10004860002117488160C16001610C21416166
:101F200000218161C1610162416200201149886222
:101F30000846FFF76FFA002801D0FEF7DFF900210D
:101F40000C48FFF70EF9002801D0FEF7D7F9002161
:101F50000848FFF7D6F8002801D0FEF7CFF905486A
:101F6000FFF7A4F8002801D0FEF7C8F910BD000063
:101F7000004400404C01002010B5044620210448D4
:101F8000FEF74AFB002802D0FF200249087010BD6E
:101F9000000800500800002010B504462021044825
:101FA000FEF73AFB002802D000200249087010BD5D
:101FB000000800500800002010B5044601F0C4FCE1
:101FC000002805D0FFF786FEFFF742FE01F090FCE7
:101FD00010BD000010B50446A8480078022869D159
:101FE000A7480078401CA6490870084600780828D1
:101FF00019DCA44800784006000EA24908701021A0
:10200000A148FEF709FB9F49097808439D490870DC
:102010009B480078082805D1052001F05DFC1020C0
:102020009949886228E197480078B021084095498D
:102030000978884203D10020904908701DE091483A
:102040000078B12108408F49097888420DD10120DC
:102050008A4908708D480078401CC0B28B490870CE
:102060008B49085C8749087007E0002084490870A4
:10207000FFF718FEFFF724FE10BDFFF75FFE7F4855
:102080000078012812D17F4800788021084000287C
:1020900003D010207C49886102E010207A498862D0
:1020A000784800784006000E764908700020744990
:1020B0000870E1E071480078002877D17048007816
:1020C000401C6F49087008460078082824DC6D48D9
:1020D00000784006000E6B49087010216A48FEF730
:1020E0009BFA684909780843664908706448007893
:1020F000082897D1052001F0EFFB66480078401CC6
:1021000065490978884203DA10205F498862B3E0A4
:1021100010205D498861AFE05E480078002804D156
:10212000584800785A49087025E059480078F02846
:1021300009D15448017857480078554A1154032072
:102140005549087017E0524800780F280AD14D48C9
:10215000017850480078801C4D4A115403204E49A4
:10216000087008E04748007849494A4A127888547C
:1021700005204949087047480078401C45490870C7
:102180000846007844490978884202DAFFF7D6FD0C
:1021900007E0FFF7E1FDFFF793FDFFF783FD01F097
:1021A00005FC00203649087066E0FFE733480078F8
:1021B000012861D132480078401C31490870084636
:1021C000007808281EDC052001F086FB2C480078EA
:1021D000082803D110202C4988614DE72948007850
:1021E00080210840002803D010202749886102E0A0
:1021F000102025498862234800784006000E2149B6
:10220000087039E010212048FEF706FA002807D0B0
:1022100010201D498861FFF745FDFFF751FD2BE7B1
:102220001A480078052820DA18480078401CC0B207
:10223000164908701649085C12490870052001F01B
:102240004BFB1048007880210840002803D0102064
:102250000D49886102E010200B4988620948007826
:102260004006000E0749087003E0FFF71BFDFFF76B
:1022700027FD00200249087000BFFDE61C00002079
:102280000C0000200D00002000080050100000206D
:102290001D0000200E0000200F0000200CB502469B
:1022A000002001900090019031E000980001009022
:1022B0000198105C30280ADB0198105C392806DC94
:1022C0000198105C3038009BC01800901CE0019809
:1022D000105C41280ADB0198105C462806DC019856
:1022E000105C3738009BC01800900DE00198105C1E
:1022F000612809DB0198105C662805DC0198105CF8
:102300005738009BC01800900198401C019001981C
:102310008842CAD300980CBD10B5FEF793F910BDE2
:1023200000B591B0342104A8FDF721FF00200090F2
:1023300001900290039001204002FEF713FA022060
:102340000490C001079000200890402009900220CE
:102350000B9002210C9100210D9108210E91010496
:102360000F910107109104A8FEF79EFB002801D0F1
:10237000FDF7C4FF0720009002200190002002908A
:10238000039002216846FEF719FA002801D0FDF7F4
:10239000B5FF11B000BD00000120C00601498860F2
:1023A0007047000000ED00E0F0B585B004461BA1C9
:1023B00003C9039102901BA103C901910090606EB3
:1023C000002805D101216A2001536820015322E031
:1023D00008270822049220688068072149060840DF
:1023E000450E20688068460F6A46915D02AA935D9B
:1023F000049A53431846FDF78DFE81B26A200153BB
:102400006A46515D02AA525D7A431046FDF782FE8C
:1024100081B26820015305B0F0BD00000101010345
:10242000070100000804020408010101018DC90729
:10243000C90F002908D0016849680122520491435C
:10244000C26A1143026851600222816A1140022966
:1024500007D101684968D2039143026B11430268B6
:1024600051600422816A1140042907D1016849683A
:1024700012049143426B1143026851600822816A41
:102480001140082907D10168496812039143826B02
:102490001143026851601022816A1140102907D14E
:1024A0000168896812029143C26B1143026891600E
:1024B0002022816A1140202907D10168896812020F
:1024C0009143026C1143026891604022816A11407D
:1024D000402915D10168496892039143426C114328
:1024E0000268516001221205416C914208D10168D5
:1024F0004968032252059143826C1143026851607E
:102500008022816A1140802907D10168496812033D
:102510009143C26C114302685160704738B504465C
:10252000002188200151FEF787F8054620680068E1
:102530000821084008280BD114482B4600228904A2
:102540000090204601F028F9002801D0032038BD72
:10255000206800680421084004280BD10B482B4652
:10256000002209050090204601F016F9002801D04C
:102570000320ECE72021802001518420015100BF7D
:1025800000217C20015500BF0020E0E7FFFFFF0194
:1025900070B50546AC6A00215E20015356200153F8
:1025A0002046FEF70FFE70BD01680968FF22213248
:1025B00091430268116001688968054A1140026808
:1025C0009160202284210A500021C16670470000DA
:1025D000FEFFFFEF10B504462068006840218843E5
:1025E00021680860202180200151002020672046BA
:1025F000FFF728F910BD000070B5E8B004460021CF
:10260000679166916591FF21913101A8FDF7AFFDBA
:102610000A21FC48FDF7ABFDFF21913101A8FDF730
:10262000A6FD59E0F84860A9097F405C202831D117
:1026300004E060A8007F401CC1B26791F24960A825
:10264000007F401C085C202801D1012000E0002010
:1026500060A9097FED4A1278914201DA012100E078
:10266000002108400028E4D160A8007D00282ED079
:10267000002160A8007E1422504301AA821860A89D
:10268000007D115460A8007E401CC1B266910021FB
:1026900065911CE0DC4860A9097F405C0D2805D0ED
:1026A000D94860A9097F405C0A2800D11AE0D64ABF
:1026B00060A9097F525C60A9087D411CCBB265937B
:1026C00060A9097E1423594301ABC9180A5460A8B4
:1026D000007F401CC1B2679160A8007FCB49097898
:1026E00088429FDB00BF60A8007E012808DAC84B43
:1026F0002A22C8A12046FFF721F8002068B070BD4B
:1027000001A9CFA0FDF745FD002876D106A9CDA0EF
:10271000FDF73FFD002815D1CC480078002806D1F0
:10272000BB4B1A22CAA12046FFF708F8ABE3C74803
:1027300000780128FAD1B64B1922CCA12046FEF729
:10274000FDFFA0E306A9D0A0FDF723FD00280BD0D4
:1027500006A9CFA0FDF71DFD002805D006A9CEA033
:10276000FDF717FD0028E1D160A8007E032807DAF5
:10277000A74B2A22A7A12046FEF7E0FF0020BDE7D5
:1027800002210BA8FFF78AFDC0B2B02819D1AF48CB
:102790000078002807D19E4B1022C2A12046FEF7E8
:1027A000CDFF0020AAE7A9480078012809D1FDF74C
:1027B00011FD974B0922C0492046FEF7BFFF0020BC
:1027C0009CE7A2480078012807D1914B3822BBA191
:1027D0002046FEF7B3FF002090E702210BA8FFF789
:1027E0005DFD401CC5B20522B3492846FFF72CF811
:1027F000FF2807D1864B1D2200E02DE0BEA1204618
:10280000FEF79CFF06A9A0A0FDF7C3FC002806D197
:102810007F4B0722A8492046FEF790FF33E306A925
:102820009BA0FDF7B6FC002807D1794B0722A249EF
:10283000891C2046FEF782FF25E3FF2204219E48E3
:10284000FFF794FA71490870714B084602786E4997
:102850002046FEF773FF16E301A9AFA0FDF799FC30
:1028600000287DD106A977A0FDF793FC00285DD153
:1028700060A8007E032807DA654B2A2265A120465E
:10288000FEF75CFF002039E7A4A10BA8FDF781FC4F
:10289000002822D16D480078012806D15C4B3322F4
:1028A000A0A12046FEF74AFFEDE20120674908702B
:1028B000A948AA49086065480078012806D1544B08
:1028C0000A22A7A12046FEF739FFDCE2504B09227D
:1028D000A6A12046FEF732FFD5E2A7A10BA8FDF77F
:1028E00058FC00289AD159480078002806D1484B56
:1028F0003522A3A12046FEF721FFC4E20020534960
:102900000870AD489549086050480078002806D105
:102910003F4B0A2292A12046FEF710FFB3E23C4B48
:10292000092292A12046FEF709FFACE206A956A0B3
:10293000FDF72FFC00280BD006A955A0FDF729FCB8
:10294000002805D006A954A0FDF723FC0028ABD130
:1029500060A8007E052809DA2D4B2A222DA100E06F
:102960008BE22046FEF7EAFE0020C7E602210BA814
:10297000FFF794FCC0B2B02841D134480078002859
:1029800007D1234B102247A12046FEF7D7FE002097
:10299000B4E62E480078012831D106A93AA0FDF707
:1029A000F8FB002812D110A8FDF7ECFB06463146D3
:1029B00010A8FFF773FCC6B210A9087D00F0B6FF9F
:1029C00046433546284601F015F81BE106A930A01C
:1029D000FDF7DFFB002813D110A8FDF7D3FB064657
:1029E000314610A8FFF75AFCC6B210A9087D00F0C6
:1029F0009DFF46433546284601F002F802E109E111
:102A0000DCE000004101002038000020010000202F
:102A1000FFFF00000A436F6D6D616E642065727286
:102A20006F723A20706C6561736520636865636BD3
:102A30002074686520636F6D6D616E642E0A0000FE
:102A40006765740073746174650000000200002003
:102A50000A52756E6E696E672073746174652069C1
:102A600073206D61737465722E0A00000A52756ED0
:102A70006E696E6720737461746520697320736C6E
:102A80006176652E0A000000647572610000000026
:102A90006672657100000000647572615F66726540
:102AA000710000000A4D6173746572206E6F204CD6
:102AB00045442E0A00000000370100200A536C61D3
:102AC0007665206E6F207065726D697373696F6EC5
:102AD0007320746F2072656164206F746865722062
:102AE00064657669636520696E666F726D6174698D
:102AF0006F6E2E0A000000000A546865206275732C
:102B000020697320696E2061206275737920737467
:102B10006174652E0A00000073657400736C617641
:102B2000650000000A43616E2774206368616E6768
:102B30006520736C61766520746F20736C617665B7
:102B4000206F66207468652072756E6E696E6720EE
:102B500073746174652E0A000D3A000804000020A9
:102B60000A537563636573732E0A00000A46616930
:102B70006C65642E0A0000006D617374657200005C
:102B80000A43616E2774206368616E6765206D611A
:102B90007374657220746F206D6173746572206F39
:102BA00066207468652072756E6E696E6720737436
:102BB0006174652E0A0000009139000810A8FDF725
:102BC000E1FA0646314610A8FFF768FBC6B210A925
:102BD000087D00F0ABFE46433546284600F00AFF6C
:102BE0001AA8FDF7CFFA064631461AA8FFF756FB9A
:102BF000C6B218A9087F00F099FE4643354628461C
:102C000000F0FEFEA14B0A22A1492046FEF796FDE8
:102C1000002073E59F480078012808D19B4B38229B
:102C20009B49A4392046FEF789FD002066E506A9E8
:102C30009748D838FDF7ADFA002859D1F0209649C9
:102C4000087010A8FDF79EFA0546294610A8FFF760
:102C500025FB9149487010A8007D88700BA8FDF7EE
:102C600091FA064631460BA8FFF718FBC5B20322BE
:102C700089492846FEF78EFFFF2808D1834B1D2285
:102C8000834968392046FEF759FDFF2036E50120CB
:102C900000F014FE02210BA8FFF700FB401CC5B298
:102CA00004227E492846FEF7CFFDFF2808D1774B46
:102CB0001D22774968392046FEF740FDFF201DE5BB
:102CC0000020764988707448401CFDF762FA00289D
:102CD00006D16E4B0A226E492046FEF72FFDD2E048
:102CE0006A4B09226A490C312046FEF727FDCAE0EB
:102CF00006A96748D038FDF74CFA002858D10F20B4
:102D00006549087010A8FDF73DFA0546294610A848
:102D1000FFF7C4FA6049487010A8007D88700BA8BE
:102D2000FDF730FA064631460BA8FFF7B7FAC5B2F1
:102D3000032259492846FEF72DFFFF2808D1534B9F
:102D40001D22534968392046FEF7F8FCFF20D5E4E0
:102D5000012000F0B3FD02210BA8FFF79FFA401CF1
:102D6000C5B204224D492846FEF76EFDFF2808D162
:102D7000464B1D22464968392046FEF7DFFCFF20FE
:102D8000BCE44549491C4548801CFDF702FA00286F
:102D900006D13E4B0A223E492046FEF7CFFC72E0A8
:102DA0003A4B09223A490C312046FEF7C7FC6AE04B
:102DB000FF203949087010A8FDF7E4F905462946B7
:102DC00010A8FFF76BFA3449487010A8007D88708E
:102DD0001AA8FDF7D7F9054629461AA8FFF75EFAA3
:102DE0002D49C87018A8007F08710BA8FDF7CAF913
:102DF000064631460BA8FFF751FAC5B2052226490F
:102E00002846FEF7C7FEFF2808D1204B1D22204987
:102E100068392046FEF792FCFF206FE4012000F0A5
:102E20004DFD02210BA8FFF739FA401CC5B2042260
:102E30001A492846FEF708FDFF2808D1134B1D222A
:102E4000134968392046FEF779FCFF2056E4134900
:102E50001148401CFDF79DF9002806D10B4B0A22B2
:102E60000B492046FEF76AFC0DE0084B0922084991
:102E70000C312046FEF762FC05E0044B2A2208498B
:102E80002046FEF75BFC002038E40000FFFF000056
:102E9000602B0008020000203701002041010020C3
:102EA000142A0008F8B504466020075B8420005906
:102EB000222828D12068406A86B2A56D3046384065
:102EC0002880A06D801CA0655E20005B401E81B242
:102ED0005E200153005B00281BD120680068FF21A1
:102EE00021318843216808602068806840084000DC
:102EF000216888602021842001510020E06620465E
:102F0000FEF7CCFB05E020688069082108432168B2
:102F10008861F8BDFEB504466020005B0190842006
:102F20000059222848D16820055B2BE02068406AC0
:102F300080B20090A76D0199009808403880A06D7C
:102F4000801CA0655E20005B401E81B25E200153A4
:102F5000005B002814D120680068FF2101318843FC
:102F600021680860206880681749084021688860E7
:102F70002021842001510020E0662046FEF78EFBD0
:102F8000681E85B2002DD1D15E20065B002E19D0BF
:102F90006820005BB04215DD2068806801210907C8
:102FA0008843216888600948E0662068006820211D
:102FB00008432168086005E020688069082108430B
:102FC00021688861FEBD0000FEFFFFEFA52E00080E
:102FD00070B504466020065B84200059222828D161
:102FE0002068406A85B2F0B22840A16D0870A06DDB
:102FF000401CA0655E20005B401E81B25E20015334
:10300000005B00281BD120680068FF212131884324
:103010002168086020688068400840002168886056
:103020002021842001510020E0662046FEF736FB77
:1030300005E020688069082108432168886170BD27
:10304000F8B504466020005B0090842000592228D7
:1030500047D16820055B2AE02068406A87B2009863
:10306000C0B23840A16D0870A06D401CA0655E2004
:10307000005B401E81B25E200153005B002814D12A
:1030800020680068FF2101318843216808602068BA
:1030900080681749084021688860202184200151F8
:1030A0000020E0662046FEF7F9FA681E85B2002D82
:1030B000D2D15E20065B002E19D06820005BB042A2
:1030C00015DD206880680121090788432168886030
:1030D0000848E066206800682021084321680860ED
:1030E00005E0206880690821084321688861F8BDEF
:1030F000FEFFFFEFD12F0008F0B585B00446002693
:103100000020029001902169A0680843616908438A
:10311000E16908430490606E0499084304902068B4
:103120000068F9490840049908432168086020684C
:103130004068032109038843E16808432168486027
:10314000A0690490206A049908430490206880686C
:10315000EE49084004990843216888602068C06AE5
:1031600000090001616A08432168C86200BFE8499C
:103170002068884217D1E74840698007800F0028FF
:1031800006D0012808D0022804D0032808D105E081
:10319000002507E0022505E0042503E0082501E0FD
:1031A000102500BF28E0DC492068884217D1D948A3
:1031B00040690C210840002806D0042808D00828BF
:1031C00004D00C2808D105E0002507E0022505E021
:1031D000042503E0082501E0102500BF0CE0CF49DD
:1031E0002068884201D1002506E0CD492068884248
:1031F00001D1002500E0102500BF0121C903E069CD
:10320000884270D1002D06D0022D53D0042D6BD0F2
:10321000082D6AD1ECE0FDF7C1FB0746606A002883
:1032200001D1012038E0606A012801D1022033E099
:10323000606A022801D104202EE0606A032801D1CF
:10324000062029E0606A042801D1082024E0606A91
:10325000052801D10A201FE0606A062801D10C2050
:103260001AE0606A072801D1102015E0606A08287A
:1032700001D1202010E0606A092801D140200BE034
:10328000606A0A2801D1802006E0606A0B2802D11A
:10329000FF20013000E0012001463846FCF724FF02
:1032A000400061684908401800906168FCF71CFF05
:1032B00086B2EDE0606A002801D101203BE0606A3F
:1032C000012801D1022036E0606A022801D10420E1
:1032D00031E0606A032801D106202CE0606A0428EE
:1032E00004D1082027E0E9E033E0CEE0606A052859
:1032F00001D10A201FE0606A062801D10C201AE0E3
:10330000606A072801D1102015E0606A082801D101
:10331000202010E0606A092801D140200BE0606A9B
:103320000A2801D1802006E0606A0B2802D1FF2024
:10333000013000E0012001467A48FCF7D5FE40004C
:1033400061684908401800906168FCF7CDFE86B2BC
:103350009EE0FDF737FB0746606A002801D1012097
:1033600038E0606A012801D1022033E0606A022857
:1033700001D104202EE0606A032801D1062029E053
:10338000606A042801D1082024E0606A052801D180
:103390000A201FE0606A062801D10C201AE0606A4A
:1033A000072801D1102015E0606A082801D12020EB
:1033B00010E0606A092801D140200BE0606A0A2809
:1033C00001D1802006E0606A0B2802D1FF20013085
:1033D00000E0012001463846FCF786FE40006168A7
:1033E0004908401800906168FCF77EFE86B24FE005
:1033F000606A002801D1012038E0606A012801D10B
:10340000022033E0606A022801D104202EE0606AC5
:10341000032801D1062029E0606A042801D1082090
:1034200024E0606A052801D10A201FE0606A0628AE
:1034300001D10C201AE0606A072801D1102015E0A4
:10344000606A082801D1202010E0606A092801D1B3
:1034500040200BE0606A0A2801D1802006E0606A03
:103460000B2802D1FF20013000E00120014601209D
:10347000C003FCF739FE400061684908401800901D
:103480006168FCF731FE86B202E00120029000BFC5
:1034900000BF102E0FD3244886420CD822480F3884
:1034A000304003903007400F03990843039003987E
:1034B0002168C86061E1012002905EE1002D06D024
:1034C000022D65D0042D72D0082D71D1FBE0FDF7DF
:1034D00065FA0746606A002801D101204BE0606A66
:1034E000012801D1022046E0606A022801D10420AF
:1034F00041E0606A032801D106203CE0606A0428AC
:1035000014D1082037E00000F369FFCFFFF4FF116A
:103510000038014040100240004400400048004094
:10352000004C00400024F400FFFF0000606A052802
:1035300001D10A201FE0606A062801D10C201AE0A0
:10354000606A072801D1102015E0606A082801D1BF
:10355000202010E0606A092801D140200BE0606A59
:103560000A2801D1802006E0606A0B2802D1FF20E2
:10357000013000E0012001463846FCF7B5FD6168E6
:103580004908401800906168FCF7AEFD86B2E9E09A
:10359000606A002801D101203AE0606A012801D167
:1035A000022035E0606A022803D1042030E03CE0CC
:1035B000D5E0606A032801D1062029E0606A04286A
:1035C00001D1082024E0606A052801D10A201FE00B
:1035D000606A062801D10C201AE0606A072801D130
:1035E000102015E0606A082801D1202010E0606AF0
:1035F000092801D140200BE0606A0A2801D180200F
:1036000006E0606A0B2802D1FF20013000E00120B3
:1036100001465F48FCF768FD616849084018009062
:103620006168FCF761FD86B29CE0FDF7CBF90746C7
:10363000606A002801D1012038E0606A012801D1C8
:10364000022033E0606A022801D104202EE0606A83
:10365000032801D1062029E0606A042801D108204E
:1036600024E0606A052801D10A201FE0606A06286C
:1036700001D10C201AE0606A072801D1102015E062
:10368000606A082801D1202010E0606A092801D171
:1036900040200BE0606A0A2801D1802006E0606AC1
:1036A0000B2802D1FF20013000E0012001463846FE
:1036B000FCF71AFD61684908401800906168FCF742
:1036C00013FD86B24EE0606A002801D1012038E087
:1036D000606A012801D1022033E0606A022801D12A
:1036E00004202EE0606A032801D1062029E0606AE8
:1036F000042801D1082024E0606A052801D10A20AD
:103700001FE0606A062801D10C201AE0606A0728D1
:1037100001D1102015E0606A082801D1202010E0B6
:10372000606A092801D140200BE0606A0A2801D1B3
:10373000802006E0606A0B2802D1FF20013000E003
:10374000012001460120C003FCF7CEFC6168490856
:10375000401800906168FCF7C7FC86B202E00120C7
:10376000029000BF00BF102E05D30A48864202D83F
:103770002068C66001E00120029001216A20015307
:10378000682001530020E0662067029805B0F0BD74
:103790000024F400FFFF0000FFB581B004460D4691
:1037A00017460A9E24E0701C002821D0FCF744FF35
:1037B0000499401AB04201D8002E19D1206800683F
:1037C000FF21A13188432168086020688068400893
:1037D000400021688860202180200151842001510F
:1037E00000BF00217C20015500BF032005B0F0BDC3
:1037F0002068C0692840A84201D1012000E00020D3
:10380000B842D0D00020F1E710B50448FDF7E4FC41
:10381000012203490148FDF785FE10BD4C0100203F
:103820000000002010B5002819DB1A4A03231B02F0
:10383000D21883089B00D2588307DC0EFF23A340D5
:103840009A438B071B0E8407E40EA3401A43114BC7
:10385000032424021B198408A4001A5118E00E4AFC
:1038600003071B0F083B9B089B00D2588307DC0E05
:10387000FF23A3409A438B071B0E8407E40EA3404B
:103880001A43054B0407240F083CA408A4001A514E
:1038900010BD000000E100E01CED00E002E008C8FF
:1038A000121F08C1002AFAD170477047002001E0BA
:1038B00001C1121F002AFBD17047000010B5044659
:1038C00002E0044800F008F82046641E0028F8D101
:1038D00010BD00008D03000008B581004118009163
:1038E00000BF00994A1E00920029FAD108BD0000CD
:1038F000022008490870002007490870074908702D
:10390000074908700320074908700020064908701D
:10391000704700001C0000200C0000200E0000205A
:103920000D0000200F0000201000002001466D292E
:1039300003D0732904D1034870477D20C000FBE702
:103940007520F9E740420F0010B510210448FCF73C
:1039500063FE002801D1012010BD0020FCE700001B
:1039600000080050FCF77AFEFEF7DAFCFEF7CAFA10
:10397000012204490448FDF7D5FD02E00348006830
:103980008047FBE7000000204C01002004000020DD
:1039900010B5FDF7D7FFFEF72DF800BF02480078FD
:1039A0000028FBD010BD00000200002000B5104828
:1039B0000078F0210840F02809D10D498878FFF7F8
:1039C000B5FF0B4949784843024600F013F8084810
:1039D00000780007000F0F2809D105490879FFF783
:1039E000A5FF0349C9784843024600F009F800BD25
:1039F0001D000020014908607047000018000020E9
:103A000001490860704700001400002010B5FEF75F
:103A100053FAFEF769F9FEF725F9FFF7C7FF0FE044
:103A20000A480068002803D008480068FEF732FA08
:103A300007480068002803D005480068FFF74CFFDE
:103A4000044800780128EBD010BD000018000020C9
:103A50001400002002000020000000000000000010
:103A60000000000000000000000000000000000056
:103A70000000000000000000010000000200000043
:103A80000300000004000000060000000700000022
:103A90000800000009000000000000000000000015
:103AA0000000000000000000010000000200000013
:103AB0000300000004000000D83A000800000020C5
:103AC000380000009C380008103B00083800002037
:103AD000A0050000AC380008000000009139000883
:103AE00000000000000000030000000000000000D3
:103AF0000000000002FF01730173000000000000DD
:103B00000000000004000000010000000024F40098
:04000005080000B936
:00000001FF
