:020000040800F2
:10000000A00A0020CD000008D5000008D700000895
:1000100000000000000000000000000000000000E0
:10002000000000000000000000000000D9000008EF
:100030000000000000000000DB000008512B000859
:10004000DF00000800000000DF000008DF000008FB
:10005000DF000008DF000008DF000008850300085B
:1000600000000000D5010008E5010008DF000008DD
:10007000DF000008DF000008DF00000800000000CB
:10008000DF000008DF000008DF000008DF000008D4
:10009000DF000008DF000008DF000008DF000008C4
:1000A000DF000008DF000008DF000008DF000008B4
:1000B000853F0008DF0000080348854600F078F817
:1000C0000048004741410008A00A0020044880473A
:1000D00004480047FEE7FEE7FEE7FEE7FEE7FEE72F
:1000E000ED2B0008B900000830B50B460146002092
:1000F0002022012409E00D46D5409D4205D31D462E
:100100009540491B2546954040191546521E002D25
:10011000F1DC30BD70B500242546002801DA012449
:100120004042002901DA01254942FFF7DDFFAC42D8
:1001300000D04042002C00D0494270BD03460B4322
:100140009B0703D009E008C9121F08C0042AFAD28D
:1001500003E00B780370401C491C521EF9D2704713
:10016000D2B201E00270401C491EFBD2704700224F
:10017000F6E710B513460A4604461946FFF7F0FFA6
:10018000204610BD421C0178401C0029FBD1801A7A
:10019000704710B5002200E0521C835C8C5CA342C7
:1001A00001D1002BF8D1D8B2E1B2401A10BD000045
:1001B000064C0125064E05E0E36807CC2B430C3CBA
:1001C00098471034B442F7D3FFF77AFF1C43000876
:1001D0003C43000810B5024800F0D6F910BD0000FD
:1001E000E801002010B5024800F0CEF910BD000073
:1001F0004402002070B504462178084608381421CE
:10020000FFF772FF0546206C800880000549401802
:10021000606404488030A0641C2028400121814093
:10022000E16470BD0008024001794A1E9200064B4D
:10023000D2180265044A403242654A1E93079B0F5A
:1002400001229A40826570470009024070B5856CB2
:10025000C46C6C60046D002C02D0456D846D6C60C4
:100260000C4C64681C26056C35400126AE403443B6
:10027000084D6C60046863608468102C04D10468C5
:10028000A2600468E16003E00468A1600468E260C1
:1002900070BD00000000024070B505460C461F49C5
:1002A0002846FFF721FFFF2811D81C492846FFF7F1
:1002B0001BFF00280BD019492846FFF715FFC1B2D4
:1002C000174AA01C11547321E01C115425E07D2114
:1002D000C9002846FFF708FFFF2812D80F49284613
:1002E000FFF702FF00280CD07D21C9002846FFF748
:1002F000FBFEC1B20A4AA01C11546D21E01C11542E
:100300000BE07D21C9002846FFF7EEFEC1B2044A8A
:10031000A01C11547521E01C115470BD40420F0007
:100320003B01002010B50446032C01D1052000E05C
:100330000320114908700846447018E0E007C00F18
:10034000002807D000210D480068FFF7A5FF6408CA
:1003500064000CE002202040022808D10221084855
:100360000068FFF799FF0221204688430446002CCD
:10037000E4D1002010BD00003B0100201800002047
:100380001400002010B528480078002819D127480B
:10039000C068012149020840002805D008462349C9
:1003A000C86000F069FA3EE0204800690121490276
:1003B0000840002837D008461C49086100F03CFA84
:1003C00031E01A48C068FF2101310840002805D0FB
:1003D00008461649C86000F04FFA0BE01348006960
:1003E000FF2101310840002804D008460F49086168
:1003F00000F022FA0D48C068012149020840002897
:1004000005D008460949C86000F036FA0BE00748F5
:100410000069012149020840002804D00846034928
:10042000086100F009FA10BD020000200018024027
:10043000704700000146002901D1012070472520A6
:10044000405C022808D00420C86300BF002224209A
:10045000425400BF0120F1E7086800680E22904373
:100460000A681060486C0068FF22013290434A6CB1
:10047000106008680068400840000A681060124870
:1004800040681C230A6C1A400123934018430E4A0B
:1004900050608A6CC86C5060086D002809D0086DE7
:1004A0000068FF22013290430A6D10604A6D886D2A
:1004B000506001222520425400BF002224204254D3
:1004C00000BF0020BAE700000000024070B50446FB
:1004D000002500BF00212420015500BF00BF005DA2
:1004E000012801D1022070BD01212420015500BF47
:1004F0002520005D022803D00420E06301253AE0B6
:10050000206800680E218843216808602068006820
:100510004008400021680860606C0068FF210131DC
:100520008843616C0860154840681C22216C1140AA
:1005300001228A40104311494860A16CE06C486078
:10054000206D002809D0206D0068FF21013188430B
:10055000216D0860616DA06D486001212520015565
:1005600000BF00212420015500BFA06B002802D04D
:100570002046A16B88472846B5E7000000000240EE
:100580000146C86B7047000070B5044645480568D1
:10059000206806681C20216C014004208840284007
:1005A000002820D00420304000281CD0206800689B
:1005B00020210840002805D12068006804218843D4
:1005C00021680860374840681C22216C11400422D1
:1005D0008A40104333494860206B002860D0204691
:1005E000216B88475CE01C20216C01400220884080
:1005F0002840002828D002203040002824D020683D
:10060000006820210840002808D1206800680A21DD
:10061000884321680860012125200155214841684F
:100620001C22206C10400222824011431D48416070
:1006300000BF00212420015500BFE06A00282FD010
:100640002046E16A88472BE01C20216C01400820ED
:1006500088402840002823D00820304000281FD0A0
:10066000206800680E218843216808600D484168B1
:100670001C22206C10400122824011430948416035
:100680000120E06301212520015500BF0021242025
:10069000015500BF606B002802D02046616B88477F
:1006A00070BD00000000024010B50446002C01D1CE
:1006B000012010BD294A2168881A1421FFF714FD72
:1006C000800020640221252001552068006824490B
:1006D000084021680860E168A06808432169084370
:1006E00061690843A1690843E1690843216A084335
:1006F000216809680843216808602046FFF77AFDF1
:1007000001218903A068884201D10020606020791E
:10071000616C0860A16CE06C4860606800280CD0D7
:100720006068042809D82046FFF77EFD0020216D6F
:100730000860616DA06D486003E000202065606581
:10074000A0650020E06301212520015500BF0021A4
:100750002420015500BF0020ABE700000800024044
:100760000F80FFFFF8B504460D4616461F460020D1
:10077000009000BF2420005D012801D10220F8BDB7
:1007800001212420015500BF2520005D012844D10E
:100790000221252001550020E06320680068400800
:1007A0004000216808603B46324629462046FFF754
:1007B0004DFD206B002806D0206800680E210843FC
:1007C000216808600BE020680068042188432168E4
:1007D0000860206800680A21084321680860606C8E
:1007E0000068012109040840002805D0606C0068F9
:1007F00009120843616C0860206D002806D0206D46
:100800000068FF2101310843216D086020680068FD
:10081000012108432168086006E000BF0021242070
:10082000015500BF0220009000BF00212420015587
:1008300000BF0098A3E7000010B504460D480078FB
:10084000002805D1102C03D1204601F02BFF0FE02A
:100850000848007801280BD10002844202D102F03E
:1008600005F905E001204002844201D101F046FF74
:1008700010BD00000200002010B504460D480078AD
:10088000002805D1102C03D1204601F01DFF0FE0F8
:100890000848007801280BD10002844202D102F0FE
:1008A000FDF805E001204002844201D101F0CEFFB5
:1008B00010BD00000200002070B503460022D7E002
:1008C000012696400C683440002C73D04D68022DF0
:1008D00002D04D68122D15D1D508AE001D46203529
:1008E000A8595507EE0E0F25B5400646AE433046D3
:1008F0005607F60E0D69B5402843D508AD001E46D3
:1009000020367051186856000325B5400646AE43A0
:1009100030460D79AD07AD0F5600B540284318603D
:100920004D68012D0AD04D68022D07D011264D6863
:100930003540112D02D04D68122D18D198685600FF
:100940000325B5400646AE4330465600CD68B54057
:10095000284398605868012595400646AE433046C6
:1009600010264D6835402D09954028435860D868B9
:1009700056000325B5400646AE43304656008D6806
:10098000B5402843D860012636074D683540B5424A
:100990006DD13A4D9608B600A8599507EE0E0F2571
:1009A000B5400646AE43304605252D07AB4202D181
:1009B000002510E05BE0324DAB4201D101250AE099
:1009C000304DAB4201D1022505E02F4DAB4201D1A4
:1009D000032500E005259607F60EB5402843274D70
:1009E0009608B600A851254D203528680546A54330
:1009F0002846012636044D683540B54202D10546E9
:100A0000254328461D4D2035286068680546A543C6
:100A10002846012676044D683540B54202D1054688
:100A200025432846154D20356860144D603D2868E3
:100A30000546A5432846012636054D683540B54292
:100A400002D10546254328460C4D603D2860686864
:100A50000546A5432846012676054D683540B54232
:100A600002D1054625432846044D603D6860521C6E
:100A70000D68D540002D00D022E770BD60180240FF
:100A80000004005000080050000C0050024613699A
:100A90000B40002B01D0012000E000207047002A0D
:100AA00001D0816100E08162704700000148006868
:100AB000704700002C0000200348006803490968C3
:100AC00040180149086070472C00002034000020C5
:100AD00010B5002408480068FF2101310843064989
:100AE0000860002000F00AF8002801D0012401E08D
:100AF00000F034F8204610BD00200240F8B504464E
:100B000000251348006800281ED0114801687D2088
:100B1000C000FFF7E9FA074639460E480068FFF7BC
:100B2000E3FA064600F0E2FD00280BD1042C07D2C0
:100B300000222146401E00F045F80748046004E00A
:100B4000012502E0012500E001252846F8BD00004E
:100B500034000020380000203000002008B500BF1D
:100B600010480068012108430E49086008460068E3
:100B7000C007C00F009000BF00BF00BF0948403849
:100B8000C06B8905084307494039C8630846C06BF4
:100B900009040840009000BF00BF0320400200F09D
:100BA00099FD08BD401002400146002905DBCB0637
:100BB000DB0E01229A40024B1A6000BF7047000012
:100BC00000E100E070B504460D4616462946204671
:100BD00003F008FA70BD000070B5044611480068C3
:100BE00003214902884320430E4908604815844286
:100BF00016D10D4909680622514308460B49FFF7F3
:100C000073FA451C05E0002D01D06D1E01E00320A4
:100C100070BD044840690121890208408842F2D031
:100C20000020F5E7007000403800002040420F002F
:100C3000FEB50446002700200290012149042068E7
:100C4000084088427BD1002001907748C06BC902E0
:100C5000084000280ED100BF7348C06B084372499A
:100C6000C8630846C06B09040840009000BF00BF7D
:100C7000012001906D480068FF21013108436B4954
:100C80000860FFF713FF064606E0FFF70FFF801B23
:100C9000022801D9032706E064480068FF210131DA
:100CA00008400028F1D000BF002F4BD15E484030F3
:100CB000C569032109020D40002D1AD0A069A84280
:100CC00017D059484030C0698843054656484030DF
:100CD000C06901210904084353494031C8610846ED
:100CE000C0690121090488434F494031C861084661
:100CF000C561E807C00F002813D0FFF7D7FE0646EE
:100D000007E0FFF7D3FE801B4949884201D903273A
:100D100006E045484030C069022108400028F0D074
:100D200000BF002F0CD140484030C06903210902A8
:100D30008843A16908433C494031C86103E00DE0A4
:100D4000029700E002970198012806D13648C06B4F
:100D50000121090788433449C86300BF2078C007D0
:100D6000C00F002809D0304840304069800880001A
:100D7000616808432C4940314861022120680840DD
:100D8000022809D12848403040690C218843A168D5
:100D900008432549403148614021206808404028E7
:100DA0000AD1214840304069032109038843E168A2
:100DB00008431D49403148610121890320680840EA
:100DC000884213D11848403040698000800861692A
:100DD000084315494031486109066069884205D1D8
:100DE0001148C068891308430F49C8600121C9022E
:100DF00020680840884215D10B48403040690321E3
:100E0000890388432169084307494031486101212A
:100E100089032069884205D10348C06889000843D6
:100E20000149C8600298FEBD0010024000700040F9
:100E30008813000070B504460D46002C01D1012036
:100E400070BD6B4800684007400FA84218D2684840
:100E50000068C008C000284365490860FFF726FE07
:100E6000064607E0FFF722FE801B6249884201D94F
:100E70000320E5E75E4800684007400FA842F1D133
:100E8000022120680840022815D10421206808406A
:100E9000042807D15848806807210903884340186F
:100EA00055498860544880680F2109028843A16829
:100EB0000843514988602078C007C00F002854D0EB
:100EC0006068012808D14C480068012149040840A5
:100ED00000282ED10120B3E76068022808D14648D7
:100EE0000068012149060840002822D10120A7E717
:100EF0006068002808D14048006801218902084044
:100F0000002816D101209BE76068032808D13A48E1
:100F10004030006A0221084000280AD101208FE7F2
:100F200035484030C06902210840002801D1012025
:100F300086E731488068C008C000616808432E49D0
:100F40008860FFF7B3FD064607E0FFF7AFFD801BA3
:100F50002849884201D9032072E727488068382150
:100F600008406168C9008842EFD121480068400705
:100F7000400FA84218D91E480068C008C000284386
:100F80001B490860FFF792FD064607E0FFF78EFD5C
:100F9000801B1849884201D9032051E71448006892
:100FA0004007400FA842F1D10421206808400428DE
:100FB00008D111488068072109038843E168084384
:100FC0000D49886000F03AF80B4989680F22120237
:100FD0001140090A8900094A515CC906C90EC84076
:100FE0000749086007480068FFF788FD28E7000008
:100FF000002002408813000000100240BC4200089C
:1010000038000020300000200148006870470000D0
:101010003800002000B5FFF7F7FF0649896807226E
:1010200012031140090B8900034A515CC906C90E1D
:10103000C84000BD00100240FC420008FEB5354823
:1010400080683821084000280DD132480068090224
:101050000840C10A0120884000902F480099FFF7FE
:1010600043F8044654E02B4880683821084008289B
:1010700001D12A4C4CE027488068382108401028CC
:1010800034D12448C0688607B60F2248C068702152
:1010900008400009401C0190022E0FD0032E0CD1F5
:1010A0001E480199FFF720F81A49C9687F221202E9
:1010B0001140090A484305460DE000BF1648019952
:1010C000FFF712F81349C9687F2212021140090A7A
:1010D0004843054600BF00BF0E48C068400F471C8C
:1010E00039462846FFF700F8044611E009488068B1
:1010F00038210840202801D1840209E00548806891
:1011000038210840182802D17D24240200E0002460
:101110002046FEBD001002400024F40000127A00B8
:10112000FEB50446002C01D10120FEBD2078C00789
:10113000C00F00286FD0F748876838210F40C0687B
:101140008607B60F102F01D1032E01D0082F0BD127
:10115000F048006801214904084000285BD060681D
:10116000002858D10120E0E700BF01210904606890
:10117000884205D1E74800680843E649086021E055
:1011800005210904606888420ED1E2480068012107
:1011900089040843DF490860084600680121090402
:1011A0000843DC4908600DE0DA48006801210904C1
:1011B0008843D849086008460068012189048843AB
:1011C000D449086000BF6068002812D0FFF76EFCA9
:1011D000054606E0FFF76AFC401B642801D903209E
:1011E000A3E7CC4800680121490408400028F1D059
:1011F00011E0FFF75BFC054606E0FFF757FC401BDC
:10120000642801D9032090E7C248006801214904FD
:1012100008400028F1D1022120680840022873D13B
:10122000BC488068382108400746BA48C06886072D
:10123000B60F102F01D1022E01D0002F36D1B548A4
:101240000068012189020840002804D0E0680028D5
:1012500001D1012069E7AF4840687F210902884336
:10126000616909020843AB494860002F16D108465E
:1012700000680721C902884321690843A54908601D
:10128000084600680722D2021040C20A012090409E
:101290000146A148FEF728FFA0490860A048006861
:1012A000FFF72CFC002849D001203EE7E068002829
:1012B0002BD0984800680721C90288432169084358
:1012C00094490860084600688915084391490860F8
:1012D000FFF7ECFB054606E0FFF7E8FB401B0228A2
:1012E00001D9032021E78B480068012189020840C9
:1012F0000028F1D0874840687F210902884361694E
:10130000090208438349486018E082480068FF21C9
:10131000013188437F490860FFF7C8FB054606E0B6
:10132000FFF7C4FB401B022801D90320FDE67948E2
:1013300000680121890208400028F1D108212068B5
:101340000840082849D17348806838210840182887
:101350000BD170484030006A0221084000283CD080
:10136000A069002839D10120DFE6A06900281AD041
:1013700068484030006A01210843664940310862EC
:10138000FFF794FB054606E0FFF790FB401B0228A1
:1013900001D90320C9E65F484030006A02210840B5
:1013A0000028F1D019E05B484030006A4008400056
:1013B000584940310862FFF779FB054606E0FFF720
:1013C00075FB401B022801D90320AEE6514840308E
:1013D000006A022108400028F1D104212068084059
:1013E00004287CD1002001904A48806838210840B8
:1013F00020280BD147484030C0690221084000280E
:101400006ED0A06800286BD101208EE64148C06BE9
:10141000010F01208843002810D000BF3D48C06B59
:101420000121090708433B49C8630846C06B09040A
:101430000840009000BF00BF0120019039480068BB
:10144000FF2101310840002816D1364800680843C2
:1014500034490860FFF72AFB054606E0FFF726FB44
:10146000401B022801D903205FE62E480068FF21B7
:10147000013108400028F1D000BFA068012808D140
:1014800024484030C0690121084322494031C861E5
:1014900020E0A06805280FD11E484030C069042113
:1014A00008431C494031C8610846C069012108430E
:1014B00018494031C8610DE016484030C069410804
:1014C000490014484030C161C06904218843114972
:1014D0004031C86100BFA068002816D001E040E09C
:1014E0003EE0FFF7E3FA054607E0FFF7DFFA401BAF
:1014F0000D49884201D9032017E606484030C069EB
:10150000022108400028F0D01EE0FFF7CFFA054680
:1015100014E00000001002400024F4003800002015
:10152000300000200070004088130000FFF7BEFA72
:10153000401B6449884201D90320F6E56248C0692E
:10154000022108400028F1D10198012808D15E4805
:101550004038C06B0121090788435B494039C863A3
:1015600000BFE06900285AD05748403880683821C9
:10157000084010287ED0E069022851D152484038F6
:1015800000680121090688434F4940390860FFF788
:101590008DFA054606E0FFF789FA401B022801D9BB
:1015A0000320C2E548484038006801214906084048
:1015B0000028F0D1616A206A0843A16A0902084341
:1015C000E16A0843216B08433F494039C9683F4AF3
:1015D000114008433C494039C86008460068012171
:1015E000090608433849403908600846C0680904BC
:1015F000084335494039C860FFF758FA054606E008
:10160000FFF754FA401B022801D903208DE52E482C
:10161000403800680121490608400028F0D04EE01B
:101620002948403800680121090688432649403985
:1016300008600846C06880088000C8600846C06826
:101640002349084020494039C860FFF72FFA054672
:1016500007E0FFF72BFA401B022802D9032064E5BC
:1016600008E0194840380068012149060840002870
:10167000EFD124E0E069012800D156E51248403856
:10168000C668B107890F206A814216D170203040A8
:10169000616A884211D17F2000023040A16A0902AC
:1016A00088420AD11F2040043040E16A884204D1B8
:1016B000710F4907206B814201D0012035E50020E0
:1016C00033E5000088130000401002408C80C11FE9
:1016D000FFFFFEEF044909680322520291430143D0
:1016E000014A1160704700000000014070B50446D7
:1016F0002546681E0949884201D901200CE0681E70
:10170000074948610321081F02F06CFC00200449CE
:10171000886107200861002070BD0000FFFFFF0006
:1017200000E000E0014600BF7C20405C012801D1C0
:101730000220704701237C20435400BF24238020D3
:1017400043500868026808680068400840000B6859
:10175000186001235B071046984302460020486644
:101760000868026020238020435000BF00237C20B3
:10177000435400BF0020DCE7704770B504460D46B7
:1017800000BF7C20005D012801D1022070BD012135
:101790007C20015500BF242180200151206806686B
:1017A0002068006840084000216808602068806860
:1017B000072149068843284321688860204601F0B4
:1017C0001DFA2068066020218020015100BF002101
:1017D0007C20015500BF0020D8E770B504460D46B7
:1017E00000BF7C20005D012801D1022070BD0121D5
:1017F0007C20015500BF242180200151206806680B
:1018000020680068400840002168086020688068FF
:10181000C000C008284321688860204601F0EEF926
:101820002068066020218020015100BF00217C201B
:10183000015500BF0020D9E77047704770B50446D6
:10184000802005598420065920688068802108403E
:1018500080281BD1212D19D12068806888432168F8
:101860008860606F00280ED0606FFEF7E3FD0028EF
:1018700009D0606FFEF784FE202804D11021882053
:101880000151032070BD204601F05DFB2068806897
:101890004021084040281BD1222E19D120688068A1
:1018A000884321688860A06F00280ED0A06FFEF7E3
:1018B000C1FD002809D0A06FFEF762FE202804D1E8
:1018C0001021882001510320DCE7204601F014FBA1
:1018D0000020D7E7704701468020425884204358B3
:1018E0001046184370470000FEB504462068C569DD
:1018F00020680668206887682807000F0190019813
:10190000002813D12020284000280FD0202030406C
:10191000002804D1012000073840002806D0E06EDE
:10192000002802D02046E16E8847FEBD01980028BD
:101930007ED07A483840002804D1FF202130304042
:101940000028F5D0E807C00F00280DD0FF20013097
:101950003040002808D00120216808628820005902
:1019600001210843882108510220284000280CD07A
:10197000F807C00F002808D00220216808628820DC
:1019800000590421084388210851042028400028D8
:101990000CD0F807C00F002808D004202168086286
:1019A0008820005902210843882108510820284036
:1019B000002810D020203040002803D1574838405C
:1019C000002808D0082021680862882000590821D2
:1019D0000843882108518820005900284DD0202034
:1019E000284000280ED020203040002804D10120BB
:1019F00000073840002805D0E06E002802D02046BD
:101A0000E16E884788200059009020688068402156
:101A10000840402804D0082100980840002826D01B
:101A2000204601F069FA206880684021084000E003
:101A300024E0402817D120688068884321688860A6
:101A4000A06F00280BD03648A16F8863A06FFEF707
:101A50003DFD002811D0A06F816B88470DE0204626
:101A6000FFF738FF09E02046FFF734FF05E0204686
:101A7000FFF730FF00218820015156E701200005C3
:101A8000284000280CD0012080053840002807D0CD
:101A900001200005216808622046FFF7CEFE44E7DA
:101AA0008020284000280FD080203040002804D11A
:101AB0000120C0053840002806D0206F002802D041
:101AC0002046216F884730E740202840002807D073
:101AD00040203040002803D0204601F023FA24E7BC
:101AE0000120C0052840002808D001208007304090
:101AF000002803D02046FFF79FFE16E701200006CE
:101B00002840002807D0F00FC007002803D0204647
:101B1000FFF732FE09E700BF07E7000001000010F1
:101B2000E52D000810B50446002C01D1012010BDA0
:101B3000A069002800D000E000BF802000590028E4
:101B400005D100217C200155204600F02DF82421EC
:101B5000802001512068006840084000216808602A
:101B6000204601F087FE012800D1E0E7A06A0028A6
:101B700002D0204601F084F8206840680921C9029B
:101B8000884321684860206880682A21884321684A
:101B900088602068006801210843216808602046A9
:101BA00001F0E6F8C3E7000010B586B00446142142
:101BB00001A8FEF7DCFA3249206888425DD100BFF7
:101BC0003048C06B0121490408432E49C8630846C8
:101BD000C06B012149040840009000BF00BF00BF56
:101BE0002848406B01210843264948630846406B5A
:101BF000C007C00F009000BF00BF0C200190022062
:101C000002900020039004900120059001A9052076
:101C10000007FEF751FE1C481C490860342048604C
:101C200000211A488160802101610021C160416169
:101C30008161C1610162FEF737FD00BF1348A067F3
:101C4000846200BF10481430114908601021104808
:101C5000816035200E49486000210D48C160802117
:101C60000161002141618161C1610162FEF71CFDDA
:101C700000BF07486067846200BF06B010BD000067
:101C8000004400400010024008000240E80100202B
:101C90004402002070B504460D46164684200059C3
:101CA000202867D1002D01D0002E01D1012070BD68
:101CB00001210903A068884208D12069002805D1C4
:101CC000E807C00F002801D00120F0E700BF7C200A
:101CD000005D012801D10220E9E701217C200155A6
:101CE00000BFA5655C2006530021882001512221F8
:101CF00084200151A06F002822D01F48A16FC86224
:101D00001E48A16F08631E48A16F48630020A16FA1
:101D100088632368194624313346A26DA06FFEF70D
:101D200021FD00280CD010218820015100BF002186
:101D30007C20015500BF2021802001510120B6E701
:101D400000BF00217C20015500BF20680068FF21F2
:101D50000131084321680860206880680121084338
:101D60002168886020688068402108432168886075
:101D700000209CE702209AE7572E0008A32E0008B7
:101D8000FD2D000810B5044619480078FF280EDB29
:101D900000201749087017490870FF211648FEF700
:101DA000E6F9202215A1204600F03EF81FE01C486D
:101DB00001780F4802780078401C0D4B18700E48CF
:101DC000815418460078401E0B49085C0A2805D04B
:101DD00018460078401E085C0D2808D100BF204638
:101DE000FFF779FD2128FAD001200249087010BDC3
:101DF00001000020090000203C0000200A50617210
:101E0000616D65746572206D6F7265207468616EB6
:101E1000203235352062797465732E0A0000000087
:101E2000000000207047000070B504460E461546BD
:101E30008020005920285FD1002E01D0002D01D133
:101E4000012070BD01210903A068884208D12069E2
:101E5000002805D1F007C00F002801D00120F0E7CD
:101E600000BF7C20005D012801D10220E9E70121AB
:101E70007C20015500BF266554200553562005538C
:101E8000002188200151212180200151606F00280C
:101E900022D01A48616FC8621948616F08631948F7
:101EA000616F48630020616F886323681A46283297
:101EB0002B46216D606FFEF755FC00280CD01021D9
:101EC0008820015100BF00217C20015500BF202146
:101ED000802001510120B4E740202168086200BF42
:101EE00000217C20015500BF2068806880210843C4
:101EF000216888600020A4E70220A2E7B12E000834
:101F0000EB2E0008FD2D00087047704700B587B024
:101F100000BF1C48406B042108431A494863084627
:101F2000406B04210840019000BF00BF142102A8AB
:101F3000FEF71DF9FF2001300290134803900020A6
:101F400004900120059002A91048FEF7B5FC104846
:101F50000068FF21013188430D4908600846406848
:101F6000891588430A494860881508498861002214
:101F700005210720FEF726FE0720FEF715FE07B015
:101F800000BD000000100240110031100008005098
:101F90000018024000B587B000BF2048406B042104
:101FA00008431E4948630846406B042108400190DD
:101FB00000BF00BF142102A8FEF7D9F8012040029B
:101FC000029017480390002004900120059002A978
:101FD0001448FEF771FC1448006801214902884347
:101FE0001149086008464068491588430E49486011
:101FF00048150C49886100BF012149020948FEF7D4
:1020000045FD0128F8D1002205210720FEF7DAFD61
:102010000720FEF7C9FD07B000BD00000010024018
:10202000110031100008005000180240F3B581B0D3
:102030000E463746002400250020009000BF2148AE
:102040000078FF2801D1009031E01F48406801214D
:10205000490288431C49486000F0F4F8019800F0F8
:102060008FF8FF2801D1009021E000F013F900283B
:102070001AD100F02BF8401CC5B200F05FF8681EC2
:10208000C2B22046641C3A540BE000F01FF821460F
:10209000641C7854AC4202D100F0B8F803E000F0C0
:1020A0004DF8AC42F1D900BF00F0D8F800BF00BF36
:1020B00005484068012149020843034948600098E7
:1020C000FEBD000008000020001802401CB50021E1
:1020D0000091019128E00120400217498862062002
:1020E00001F0DAFF684600784006010E00910120F9
:1020F00040021149886100BF012149020E48FEF7E4
:10210000C5FC0128F8D1062001F0C6FFFF210131EE
:102110000948FEF7BBFC694609780143009168460F
:102120000079401CC1B20191684600790828D2DBD1
:10213000684600781CBD00000008005010B5012062
:1021400040020E49886240108862062001F0A4FF18
:10215000012040020949886100BF01214902074866
:10216000FEF794FC0128F8D1062001F095FF01202C
:102170004002024988624010886110BD000800508A
:102180001CB50446002101910091019135E0012028
:1021900040021D49886280202040002803D0FF2093
:1021A0000130886103E0FF20013017498862062072
:1021B00001F072FF80202040002808D0FF2101316B
:1021C0001148FEF763FC012801D0FF201CBD01204F
:1021D00040020D49886100BF012149020A48FEF70B
:1021E00055FC0128F8D1062001F056FF6006040EC8
:1021F00068460079401CC1B2019168460079082800
:10220000C5DB0020E2E700000008005010B5012007
:1022100040020B498862062001F03EFFFF2001309A
:10222000074988614000886100BF012149020448D4
:10223000FEF72CFC0128F8D1062001F02DFF10BD7F
:102240000008005000B5FF200130034988620620D5
:1022500001F022FF00BD00000008005010B5012071
:1022600040020B49886240108862062001F014FF8A
:10227000012040020649886100BF0121490204484B
:10228000FEF704FC0128F8D100020149886110BD65
:102290000008005010B5012040020F49886240102C
:1022A0008861062001F0F8FE012040020A49886199
:1022B00000BF012149020848FEF7E8FB0128F8D1D8
:1022C000062001F0E9FEFF2101310348FEF7DEFBA5
:1022D0000446204610BD000000080050F8B5064630
:1022E0000C46274600250020009000BF1B480078C0
:1022F000FF2801D1009026E01948406801214902D9
:10230000884317494860FFF79DFF3046FFF738FFC5
:10231000FF2801D1009016E00DE0FFF7BBFF002879
:1023200008D129466D1C785CFFF72AFFFF2802D1EF
:10233000009004E003E02078401CA842EDD800BFE4
:10234000FFF78CFF00BF00BF05484068012149022C
:102350000843034948600098F8BD000008000020C9
:102360000018024030B587B0044600210691049160
:10237000312103912178029161780191FF215E481A
:10238000FDF7F5FE68460079C007C00F002805D1AB
:10239000684600790221084002287DD1012006907C
:1023A0007FE06946087EC10F091849104900411AAB
:1023B00013D16946097E491C625C6946087C411C50
:1023C000CBB204934C490A540A226946087C411C4A
:1023D000CBB2049348490A545CE068460079C007D0
:1023E000C00F00280FD00B2244A14348FDF7A6FEE2
:1023F0006846007C0B30C1B2049168460079410800
:102400004900019117E0684600790221084002283E
:1024100011D1394A6946097C50180C223AA1FDF7BE
:102420008DFE6846007C0C30C1B20491684600798C
:102430000221884301906846007E401C215C059182
:102440006421039122E06846017B007DFDF762FE76
:1024500000280DDD6846017B007DFDF75BFE303016
:10246000C1B26846057C681CC2B20492224841553C
:102470006846017B007DFDF74DFEC9B205910A213A
:102480006846007BFDF746FEC1B203916846007DB9
:102490000028D8D1684600E00AE0007E401CC1B2A6
:1024A00006916846017E007A814200DA79E71EE0F3
:1024B0006846007904281AD1A07800280AD1684615
:1024C000007C1A30C1B204911A2213A10A48FDF708
:1024D00035FE0CE0A078012809D16846007C19304F
:1024E000C1B20491192213A10348FDF727FE6846E3
:1024F000007C07B030BD00003C0000200A4475722B
:102500006174696F6E3A20000A4672657175656E76
:1025100063793A20000000000A52756E6E696E679A
:10252000207374617465206973206D6173746572C2
:102530002E0A00000A52756E6E696E672073746110
:10254000746520697320736C6176652E0A00000043
:1025500010B504460122202105200007FEF79FFA4E
:10256000204601F099FD0022202105200007FEF7FA
:1025700096FA10BD00B587B0142102A8FDF7F7FD4B
:1025800000BF0E48406B012108430C4948630846D0
:10259000406BC007C00F019000BF00BF2020029019
:1025A00001200390002004900320059002A905203B
:1025B0000007FEF781F907B000BD000000100240DF
:1025C00008B500BF0E48806B012108430C498863A1
:1025D0000846806BC007C00F009000BF00BF0022FC
:1025E00011460920FEF7EEFA0920FEF7DDFA002277
:1025F00011460A20FEF7E6FA0A20FEF7D5FA08BDD2
:102600000010024010B5244824490860E12040022F
:102610004860002121488160C16001610C21416155
:1026200000218161C1610162416200201B49886211
:102630000846FFF777FA002801D0FDF7F9FEFF22E0
:1026400017491648FFF726FB002203211C20FEF73E
:10265000B9FA1C20FEF7A8FA10480068006810219B
:1026600008430E490968086000210C48FFF7B5F8D7
:10267000002801D0FDF7DCFE00210848FFF77DF8B7
:10268000002801D0FDF7D4FE0448FFF74BF80028DE
:1026900001D0FDF7CDFE10BD004400405C010020DC
:1026A0003C00002010B50446012149020448FEF711
:1026B000EDF9002802D0FF200249087010BD00008B
:1026C000000800500800002010B50446012149020E
:1026D0000748FEF7DBF9002809D0002005490870FB
:1026E000054800680121490288430349086010BD7C
:1026F00000080050080000200018024049480078F7
:10270000401C4849087048480078012843D10846D1
:102710000078082814DC454800788021084000280B
:1027200003D048004249886103E0FF20013040495E
:1027300088623E4800784006000E3C4908706FE011
:102740003848007809286BD13A480078002810D121
:10275000FF2001303649886200203249087035492F
:102760000878411C334A11703349095C2F4A1170B3
:1027700056E0FF2001302E49886130484068012131
:10278000490288432D4948600846006849150843B6
:102790002A49086044E023480078092828D12848BD
:1027A000007828490978884204DAFF20013020495E
:1027B000886235E0FF2001301D4988611F480068AC
:1027C0000121490288431D490860084640684915AF
:1027D00088431A49486008464068891508431749E4
:1027E000486000200F49087001201749087017E061
:1027F0000C4800780A2813D100200A490870FF20ED
:1028000001300B4988610D48406801214902884325
:102810000A494860084600684915084307490860A6
:10282000704700000C0000201C0000200D0000205C
:1028300000080050100000203B010020001802405A
:102840000E0000200F0000200A00002010B57D4877
:10285000007802285FD17C480078401C7A490870D3
:102860000846007808282BDC784800784006000EDF
:1028700076490870FF2101317548FEF707F9734961
:1028800009780843714908706F480078082817D103
:1028900008460078B02108406C490978884210D178
:1028A0006C4840680121490208436A49486008466B
:1028B000006849158843674908600020614908702D
:1028C000BDE062480078B12108406049097888423B
:1028D00010D1604840680121490208435D494860C1
:1028E00008460068491588435A490860012055493F
:1028F0000870A4E00020544908705648406801213F
:10290000490288435349486008460068491508430E
:102910005049086010BD4B480078002851D14A4802
:102920000078401C48490870084600780828C7DC31
:10293000464800784006000E44490870FF210131E6
:102940004348FEF7A3F84149097808433F49087016
:102950003D480078012811D140023D49886212208B
:1029600001F09AFB012040023949886100BF012132
:1029700049023748FEF78AF80128F8D13248007832
:1029800008285CD134480078002803D12F4800780B
:10299000324908702D490A782F490878411C2E4B7E
:1029A00019702F490A542B484068012149020843F5
:1029B0002849486008460068491588432549086049
:1029C0003DE020480078012839D100201E490870D8
:1029D000FF2101311E48FEF759F8002813D01D4889
:1029E00000680121490288431A4908600846406886
:1029F00049158843174948600846406889150843C7
:102A00001449486086E717480078174909788842D2
:102A100008DB15490878411C134A11701149095CFB
:102A20000A4A11700B4840680121490208430949CC
:102A3000486008460068491588430649086000BF99
:102A400068E700001C0000200C0000200D000020A2
:102A500000080050001802400E0000200F00002067
:102A60001D0000203B0100201000002010B501F0E7
:102A70004BFB00280ED008484068FF2101318843F5
:102A8000054948600846006849150843024908603E
:102A900001F00EFB10BD00000018024010B501F05F
:102AA00041FB002812D00A480068012149028843EE
:102AB000074908600846406849158843044948604A
:102AC00008464068891508430149486010BD000068
:102AD000001802400CB502460020019000900190C1
:102AE00031E00098000100900198105C30280ADB6A
:102AF0000198105C392806DC0198105C3038009B86
:102B0000C01800901CE00198105C41280ADB019875
:102B1000105C462806DC0198105C3738009BC01812
:102B200000900DE00198105C612809DB0198105CB1
:102B3000662805DC0198105C5738009BC01800908F
:102B40000198401C019001988842CAD300980CBD9E
:102B500010B5FDF7B1FF10BD00B599B034210CA838
:102B6000FDF705FB0020089009900A900B901C21AE
:102B700001A8FDF7FCFA01204002FEF72DF8022023
:102B80000C90C0010F900020109040201190022066
:102B9000139002211491002115910821169101042E
:102BA0001791010718910CA8FEF7BAFA002801D076
:102BB000FDF73EFC072008900220099000200A90B3
:102BC0000B90022108A8FEF735F9002801D0FDF787
:102BD0002FFC022001900020039001A8FEF728F8A6
:102BE000002801D0FDF724FC19B000BD0120C0066B
:102BF000014988607047000000ED00E0F0B585B045
:102C000004461BA103C9039102901BA103C90191B2
:102C10000090606E002805D101216A2001536820D0
:102C2000015322E0082708220492206880680721C7
:102C300049060840450E20688068460F6A46915D47
:102C400002AA935D049A53431846FDF763FA81B2D2
:102C50006A2001536A46515D02AA525D7A431046CA
:102C6000FDF758FA81B26820015305B0F0BD0000AD
:102C70000101010307010000080402040801010129
:102C8000018DC907C90F002908D0016849680122D0
:102C900052049143C26A1143026851600222816A60
:102CA0001140022907D101684968D2039143026BA0
:102CB0001143026851600422816A1140042907D13E
:102CC0000168496812049143426B114302685160E4
:102CD0000822816A1140082907D101684968120356
:102CE0009143826B1143026851601022816A114046
:102CF000102907D10168896812029143C26B114300
:102D0000026891602022816A1140202907D1016860
:102D1000896812029143026C11430268916040225B
:102D2000816A1140402915D1016849689203914395
:102D3000426C11430268516001221205416C9142BC
:102D400008D101684968032252059143826C1143FE
:102D5000026851608022816A1140802907D1016890
:102D6000496812039143C26C114302685160704775
:102D700038B50446002188200151FDF797FE05462D
:102D8000206800680821084008280BD114482B4609
:102D9000002289040090204601F0BCF8002801D0F0
:102DA000032038BD206800680421084004280BD1A6
:102DB0000B482B46002209050090204601F0AAF896
:102DC000002801D00320ECE720218020015184203D
:102DD000015100BF00217C20015500BF0020E0E729
:102DE000FFFFFF0170B50546AC6A00215E2001536C
:102DF000562001532046FEF76DFD70BDF8B505461F
:102E0000AC6A802006598420075920688068802198
:102E10000840802807D1212E05D1002156200153DA
:102E2000204600F090F82068806840210840402843
:102E300007D1222F05D100215E200153204600F04A
:102E40005BF888200059102108438821085120464A
:102E5000FEF740FDF8BD70B50546AC6A286800680D
:102E600020210840002818D100215E20015320684D
:102E70000068FF210131884321680860206880686C
:102E800040084000216888602068806840218843AD
:102E9000216888602021842001512046FEF772FFBE
:102EA00070BD70B50446A56A2846FEF7BBFF70BD2D
:102EB00070B50546AC6A28680068202108400028E3
:102EC0000FD100215620015320688068802188435B
:102ED00021688860206800684021084321680860F4
:102EE00002E02046FFF710F870BD70B50446A56AF1
:102EF0002846FFF70AF870BD01680968FF222132F1
:102F000091430268116001688968054A11400268AE
:102F10009160202284210A500021C1667047000080
:102F2000FEFFFFEF10B5044620680068402188438B
:102F30002168086020218020015100202067204660
:102F4000FEF7E2FF10BD01680968C02291430268E4
:102F50001160016889680122D2059143026891607D
:102F6000202280210A50704770B5E8B00446002145
:102F7000679166916591FF21913101A8FDF7F7F8FE
:102F80000F21F948FDF7F3F8FF21913101A8FDF772
:102F9000EEF859E0F54860A9097F405C202831D15E
:102FA00004E060A8007F401CC1B26791EF4960A8AF
:102FB000007F401C085C202801D1012000E0002097
:102FC00060A9097FEA4A1278914201DA012100E002
:102FD000002108400028E4D160A8007D00282ED000
:102FE000002160A8007E1422504301AA821860A824
:102FF000007D115460A8007E401CC1B26691002182
:1030000065911CE0D94860A9097F405C0D2805D076
:10301000D64860A9097F405C0A2800D11AE0D34A4B
:1030200060A9097F525C60A9087D411CCBB2659301
:1030300060A9097E1423594301ABC9180A5460A83A
:10304000007F401CC1B2679160A8007FC849097821
:1030500088429FDB00BF0020C5490870FF21C3489C
:10306000FDF785F80020C3490870FF22BF49C24818
:10307000FEF710FE60A8007E401CC1B2669100BF42
:1030800060A8007E012805DA2A22BCA12046FEF7AE
:10309000CBFEDBE301A9C4A0FDF77BF8002873D1C8
:1030A00006A9C2A0FDF775F8002813D1C148007821
:1030B000002805D11A22C0A12046FEF7B5FEC4E3C0
:1030C000BC4800780128FAD11922C2A12046FEF797
:1030D000ABFEBAE306A9C6A0FDF75BF800280BD04B
:1030E00006A9C5A0FDF755F8002805D006A9C4A07B
:1030F000FDF74FF80028E2D160A8007E032805DA2A
:103100002A229EA12046FEF78FFE9FE302210BA8F4
:10311000FFF7E0FCC0B2B02830D1A6480078002804
:1031200005D11022B9A12046FEF77EFE8EE3A1480C
:103130000078012822D106A9ADA0FDF72AF80028C1
:1031400003D10120FDF7EEF80CE006A9AAA0FDF7D7
:1031500020F8002803D10220FDF7E4F802E0032064
:10316000FDF7E0F8AE48FFF7FDF881490870084622
:1031700002787E492046FEF757FE67E38D480078C7
:10318000012807D1382200E050E0A6A12046FEF732
:103190004BFE5BE30120A249087006A994A0FCF74E
:1031A000F8FF002803D101209D4948700CE006A9D2
:1031B00091A0FCF7EEFF002803D102209849487047
:1031C00002E003209649487002210BA8FFF782FC19
:1031D000C5B293492846FFF781F8FF2805D11D2283
:1031E0009FA12046FEF720FE30E3012000F046FFBD
:1031F00002210BA8FFF76EFC401CC5B25A492846B5
:10320000FEF714FFFF2805D11D2295A12046FEF7E9
:103210000BFE1BE35448FFF7A5F855490870084614
:10322000027852492046FEF7FFFD0EE301A994A063
:10323000FCF7AFFF00287DD106A95CA0FCF7A9FF31
:1032400000285FD160A8007E032805DA2A224BA15E
:103250002046FEF7E9FDF9E28AA10BA8FCF799FFE9
:10326000002824D153480078012805D1332287A1B2
:103270002046FEF7D9FDE8E201204E49087090484B
:10328000904908604B48007801280AD10A228EA193
:103290002046FEF7C9FD19224EA12046FEF7C4FDC7
:1032A000D3E209228BA12046FEF7BEFDCDE28CA120
:1032B0000BA8FCF76EFF0028B7D13E480078002825
:1032C00005D1352288A12046FEF7AEFDBDE20020E3
:1032D0003849087092487B490860364800780028D1
:1032E0000AD10A2278A12046FEF79EFD1A2232A1B9
:1032F0002046FEF799FDA8E2092276A12046FEF7B6
:1033000093FDA2E206A93AA0FCF743FF00280BD0E8
:1033100006A939A0FCF73DFF002805D006A938A072
:10332000FCF737FF0028A6D160A8007E052807DA41
:103330002A2200E083E211A12046FEF775FD85E216
:1033400002210BA8FFF7C6FBC0B2B02809D119486B
:103350000078002806D110222CA12046FEF764FD3B
:1033600074E241E1DEE000004A0100203C00002060
:1033700001000020090000205C0100200A436F6D5D
:103380006D616E64206572726F723A20706C656157
:10339000736520636865636B2074686520636F6D77
:1033A0006D616E642E0A0000676574007374617449
:1033B00065000000020000200A52756E6E696E679B
:1033C000207374617465206973206D617374657214
:1033D0002E0A00000A52756E6E696E672073746162
:1033E000746520697320736C6176652E0A00000095
:1033F0006475726100000000667265710000000073
:10340000647572615F667265710000000A4D6173D8
:10341000746572206E6F204C45442E0A0000000037
:103420003B0100200A536C617665206E6F20706549
:10343000726D697373696F6E7320746F207265614A
:1034400064206F74686572206465766963652069BD
:103450006E666F726D6174696F6E2E0A00000000F7
:103460000A5468652062757320697320696E206153
:1034700020627573792073746174652E0A000000F0
:1034800073657400736C6176650000000A43616EB9
:103490002774206368616E676520736C61766520B0
:1034A000746F20736C617665206F66207468652088
:1034B00072756E6E696E672073746174652E0A0092
:1034C0005D420008040000200A537563636573734E
:1034D0002E0A00000A4661696C65642E0A0000002D
:1034E0006D617374657200000A43616E2774206316
:1034F00068616E6765206D617374657220746F20FA
:103500006D6173746572206F6620746865207275D2
:103510006E6E696E672073746174652E0A00000018
:103520006D410008CD48007801285DD106A9CC483E
:10353000FCF72FFE002812D110A8FCF723FE064648
:10354000314610A8FFF7C6FAC6B210A9087D00F0F0
:10355000CDFD46433546284600F074FE3DE006A901
:10356000BF480830FCF715FE002812D110A8FCF760
:1035700009FE0646314610A8FFF7ACFAC6B210A9FC
:10358000087D00F0B3FD46433546284600F060FE56
:1035900023E010A8FCF7F6FD0646314610A8FFF719
:1035A00099FAC6B210A9087D00F0A0FD4643354641
:1035B000284600F047FE1AA8FCF7E4FD064631460F
:1035C0001AA8FFF787FAC6B218A9087F00F08EFD87
:1035D00046433546284600F03BFE0A22A049D83132
:1035E0002046FEF721FC31E19C480078012806D1F5
:1035F00038229B4934312046FEF716FC26E106A905
:103600009748FCF7C6FD002854D10320954908705F
:103610000120487010A8FCF7B5FD0546294610A802
:10362000FFF758FA8F49887010A8007DC8700BA862
:10363000FCF7A8FD064631460BA8FFF74BFAC5B2CA
:1036400088492846FEF74AFEFF2806D11D228449F4
:1036500070312046FEF7E8FBF8E0012000F00EFD97
:1036600002210BA8FFF736FA401CC5B27E49284656
:10367000FEF7DCFCFF2806D11D2279497031204677
:10368000FEF7D2FBE2E00020774988707548401CC5
:10369000FCF77FFD002806D10A227149D831204667
:1036A000FEF7C2FBBFE009226D49E4312046FEF778
:1036B000BBFBB8E006A96A480830FCF76AFD0028A1
:1036C00053D10320674908700220487010A8FCF706
:1036D00059FD0546294610A8FFF7FCF96149887095
:1036E00010A8007DC8700BA8FCF74CFD06463146BB
:1036F0000BA8FFF7EFF9C5B25A492846FEF7EEFDD1
:10370000FF2806D11D22564970312046FEF78CFB5A
:103710009CE0012000F0B2FC02210BA8FFF7DAF9CF
:10372000401CC5B250492846FEF780FCFF2806D150
:103730001D224B4970312046FEF776FB86E0494951
:10374000491C4948801CFCF724FD002806D10A22A8
:103750004349D8312046FEF767FB64E0092240491F
:10376000E4312046FEF760FB5DE005203D4908702E
:103770000320487010A8FCF705FD0546294610A84F
:10378000FFF7A8F93749887010A8007DC8701AA8FB
:10379000FCF7F8FC054629461AA8FFF79BF93149C2
:1037A000087118A8007F48710BA8FCF7EBFC0646CF
:1037B00031460BA8FFF78EF9C5B22A492846FEF715
:1037C0008DFDFF2806D11D22254970312046FEF7C8
:1037D0002BFB3BE0012000F051FC02210BA8FFF77E
:1037E00079F9401CC5B220492846FEF71FFCFF2886
:1037F00006D11D221A4970312046FEF715FB25E03F
:1038000019491848FCF7C5FC002806D10A221449BA
:10381000D8312046FEF708FB05E009221049E431C3
:103820002046FEF701FB1048FEF79CFD0F4908708B
:10383000084602780E492046FEF7F6FA06E02A22EC
:10384000074974392046FEF7EFFA00BF00BFFF2199
:103850000748FCF78CFC002068B070BD0200002017
:10386000F03300083B0100204A0100200100002045
:103870003C000020F0B585B00446002600200290F0
:1038800001902169A068084361690843E169084320
:103890000490606E04990843049020680068F94918
:1038A00008400499084321680860206840680321A3
:1038B00009038843E168084321684860A0690490CF
:1038C000206A04990843049020688068EE49084003
:1038D00004990843216888602068C06A00090001D3
:1038E000616A08432168C86200BFE84920688842CD
:1038F00017D1E74840698007800F002806D00128CB
:1039000008D0022804D0032808D105E0002507E0EC
:10391000022505E0042503E0082501E0102500BF8D
:1039200028E0DC492068884217D1D94840690C2139
:103930000840002806D0042808D0082804D00C2805
:1039400008D105E0002507E0022505E0042503E095
:10395000082501E0102500BF0CE0CF49206888420F
:1039600001D1002506E0CD492068884201D100251B
:1039700000E0102500BF0121C903E069884270D131
:10398000002D06D0022D53D0042D6BD0082D6AD106
:10399000ECE0FDF73FFB0746606A002801D10120FB
:1039A00038E0606A012801D1022033E0606A022811
:1039B00001D104202EE0606A032801D1062029E00D
:1039C000606A042801D1082024E0606A052801D13A
:1039D0000A201FE0606A062801D10C201AE0606A04
:1039E000072801D1102015E0606A082801D12020A5
:1039F00010E0606A092801D140200BE0606A0A28C3
:103A000001D1802006E0606A0B2802D1FF2001303E
:103A100000E0012001463846FCF766FB4000616883
:103A20004908401800906168FCF75EFB86B2EDE043
:103A3000606A002801D101203BE0606A012801D1C1
:103A4000022036E0606A022801D1042031E0606A79
:103A5000032801D106202CE0606A042804D1082044
:103A600027E0E9E033E0CEE0606A052801D10A20D2
:103A70001FE0606A062801D10C201AE0606A07285E
:103A800001D1102015E0606A082801D1202010E043
:103A9000606A092801D140200BE0606A0A2801D140
:103AA000802006E0606A0B2802D1FF20013000E090
:103AB000012001467A48FCF717FB4000616849087D
:103AC000401800906168FCF70FFB86B29EE0FDF79E
:103AD000B5FA0746606A002801D1012038E0606A23
:103AE000012801D1022033E0606A022801D10420BC
:103AF0002EE0606A032801D1062029E0606A0428CC
:103B000001D1082024E0606A052801D10A201FE0C5
:103B1000606A062801D10C201AE0606A072801D1EA
:103B2000102015E0606A082801D1202010E0606AAA
:103B3000092801D140200BE0606A0A2801D18020C9
:103B400006E0606A0B2802D1FF20013000E001206E
:103B500001463846FCF7C8FA400061684908401839
:103B600000906168FCF7C0FA86B24FE0606A0028F6
:103B700001D1012038E0606A012801D1022033E040
:103B8000606A022801D104202EE0606A032801D176
:103B9000062029E0606A042801D1082024E0606A38
:103BA000052801D10A201FE0606A062801D10C20F7
:103BB0001AE0606A072801D1102015E0606A082821
:103BC00001D1202010E0606A092801D140200BE0DB
:103BD000606A0A2801D1802006E0606A0B2802D1C1
:103BE000FF20013000E0012001460120C003FCF766
:103BF0007BFA400061684908401800906168FCF752
:103C000073FA86B202E00120029000BF00BF102EBE
:103C10000FD3244886420CD822480F3830400390F6
:103C20003007400F03990843039003982168C86048
:103C300061E1012002905EE1002D06D0022D65D0E9
:103C4000042D72D0082D71D1FBE0FDF7E3F9074692
:103C5000606A002801D101204BE0606A012801D18F
:103C6000022046E0606A022801D1042041E0606A37
:103C7000032801D106203CE0606A042814D1082002
:103C800037E00000F369FFCFFFF4FF110038014077
:103C9000401002400044004000480040004C0040FA
:103CA0000024F400FFFF0000606A052801D10A200B
:103CB0001FE0606A062801D10C201AE0606A07281C
:103CC00001D1102015E0606A082801D1202010E001
:103CD000606A092801D140200BE0606A0A2801D1FE
:103CE000802006E0606A0B2802D1FF20013000E04E
:103CF000012001463846FCF7F7F961684908401889
:103D000000906168FCF7F0F986B2E9E0606A00288B
:103D100001D101203AE0606A012801D1022035E09A
:103D2000606A022803D1042030E03CE0D5E0606AFC
:103D3000032801D1062029E0606A042801D1082067
:103D400024E0606A052801D10A201FE0606A062885
:103D500001D10C201AE0606A072801D1102015E07B
:103D6000606A082801D1202010E0606A092801D18A
:103D700040200BE0606A0A2801D1802006E0606ADA
:103D80000B2802D1FF20013000E0012001465F48EE
:103D9000FCF7AAF961684908401800906168FCF7CF
:103DA000A3F986B29CE0FDF749F90746606A00284E
:103DB00001D1012038E0606A012801D1022033E0FE
:103DC000606A022801D104202EE0606A032801D134
:103DD000062029E0606A042801D1082024E0606AF6
:103DE000052801D10A201FE0606A062801D10C20B5
:103DF0001AE0606A072801D1102015E0606A0828DF
:103E000001D1202010E0606A092801D140200BE098
:103E1000606A0A2801D1802006E0606A0B2802D17E
:103E2000FF20013000E0012001463846FCF75CF934
:103E300061684908401800906168FCF755F986B23E
:103E40004EE0606A002801D1012038E0606A012854
:103E500001D1022033E0606A022801D104202EE063
:103E6000606A032801D1062029E0606A042801D194
:103E7000082024E0606A052801D10A201FE0606A5A
:103E8000062801D10C201AE0606A072801D1102011
:103E900015E0606A082801D1202010E0606A092836
:103EA00001D140200BE0606A0A2801D1802006E0A1
:103EB000606A0B2802D1FF20013000E0012001469A
:103EC0000120C003FCF710F9616849084018009010
:103ED0006168FCF709F986B202E00120029000BF98
:103EE00000BF102E05D30A48864202D82068C6605B
:103EF00001E00120029001216A2001536820015352
:103F00000020E0662067029805B0F0BD0024F400B0
:103F1000FFFF0000FFB581B004460D4617460A9E1C
:103F200024E0701C002821D0FCF7C0FD0499401A41
:103F3000B04201D8002E19D120680068FF21A131BC
:103F40008843216808602068806840084000216834
:103F500088602021802001518420015100BF002170
:103F60007C20015500BF032005B0F0BD2068C0696A
:103F70002840A84201D1012000E00020B842D0D062
:103F80000020F1E710B513480068C069102108400F
:103F90000009002815D010200E49096808620D4854
:103FA000FDF74CFC0B48806F00684068FF21081A41
:103FB0000949087008460078002802D00120074906
:103FC00008700448FDF790FCFF2205490148FDF701
:103FD00061FE10BD5C0100200100002009000020EE
:103FE0003C00002010B5002819DB1A4A03231B02ED
:103FF000D21883089B00D2588307DC0EFF23A3400E
:104000009A438B071B0E8407E40EA3401A43114BFF
:10401000032424021B198408A4001A5118E00E4A34
:1040200003071B0F083B9B089B00D2588307DC0E3D
:10403000FF23A3409A438B071B0E8407E40EA34083
:104040001A43054B0407240F083CA408A4001A5186
:1040500010BD000000E100E01CED00E002E008C837
:10406000121F08C1002AFAD170477047002001E0F2
:1040700001C1121F002AFBD17047000010B5044691
:1040800002E0044800F008F82046641E0028F8D139
:1040900010BD00008D03000008B58100411800919B
:1040A00000BF00994A1E00920029FAD108BD000005
:1040B0000220084908700020074908700749087065
:1040C0000749087003200749087000200649087056
:1040D000704700001C0000200C0000200E00002093
:1040E0000D0000200F0000201000002001466D2967
:1040F00003D0732904D1034870477D20C000FBE73B
:104100007520F9E740420F0010B50121490204482B
:10411000FCF7BCFC002801D0012010BD0020FCE70A
:104120000008005010B5012149020448FCF7AEFC1C
:10413000002801D0012010BD0020FCE7000800503D
:10414000FCF7C6FCFEF708FDFEF73AFAFEF75AFA4E
:10415000FEF710FAFDF71EFFFDF7D8FE02E0024859
:1041600000688047FBE700000400002010B506E06F
:1041700005480078012802D10448FEF7F5FE0448FE
:1041800000780028F4D010BD090000205C01002058
:104190000200002070B52648447800253AE0E00788
:1041A000C00F00280FD0E91C214B585CFFF79EFF81
:1041B000A91C1F4B595C4843024600F043F86408B1
:1041C0006400022526E002202040022810D1E91CCC
:1041D000174B585CFFF78AFFA91C154B595C4843E5
:1041E000024600F035F8022120468843044611E0DB
:1041F000042C0FD10E488078002805D10D49087095
:104200000D480E49086005E001200A4908700C4875
:104210000A490860002CC2D1054840788007800F09
:10422000002803D002494878FCF77CF870BD0000F4
:104230001D000020020000206D4100080400002045
:104240005D42000801490860704700001800002026
:1042500001490860704700001400002010B5FFF706
:1042600099FF11484068FF21013108430E49486019
:1042700015E00E480078012801D1FFF78BFF0C48AC
:104280000068002803D00A480068FEF761F9094871
:104290000068002803D007480068FFF7FDFE0648C5
:1042A00000780128E5D010BD001802400A00002067
:1042B0001800002014000020020000200000000070
:1042C00000000000000000000000000000000000EE
:1042D00000000000000000000000000001000000DD
:1042E00002000000030000000400000006000000BF
:1042F00007000000080000000900000000000000A6
:1043000000000000000000000000000001000000AC
:104310000200000003000000040000003C4300080D
:10432000000000203C0000005C40000878430008CA
:104330003C000020640A00006C40000800000000FF
:104340006D410008000000000000000300000000B4
:10435000000000000000000002050301730173006B
:104360000000000000000000000000000400000049
:08437000010000000024F4002C
:04000005080000B936
:00000001FF
