:020000040800F2
:10000000E8050020CD000008D5000008D700000852
:1000100000000000000000000000000000000000E0
:10002000000000000000000000000000D9000008EF
:100030000000000000000000DB000008A52200080E
:10004000DF00000800000000DF000008DF000008FB
:10005000DF000008DF000008DF000008C102000820
:1000600000000000DF000008DF000008DF000008DB
:10007000DF000008DF000008DF00000800000000CB
:10008000DF000008DF000008DF000008DF000008D4
:10009000DF000008DF000008DF000008DF000008C4
:1000A000DF000008DF000008DF000008DF000008B4
:1000B0003D380008DF0000080348854600F078F866
:1000C00000480047B1390008E8050020044880478F
:1000D00004480047FEE7FEE7FEE7FEE7FEE7FEE72F
:1000E00025230008B900000830B50B460146002062
:1000F0002022012409E00D46D5409D4205D31D462E
:100100009540491B2546954040191546521E002D25
:10011000F1DC30BD70B500242546002801DA012449
:100120004042002901DA01254942FFF7DDFFAC42D8
:1001300000D04042002C00D0494270BD03460B4322
:100140009B0703D009E008C9121F08C0042AFAD28D
:1001500003E00B780370401C491C521EF9D2704713
:10016000D2B201E00270401C491EFBD2704700224F
:10017000F6E710B513460A4604461946FFF7F0FFA6
:10018000204610BD421C0178401C0029FBD1801A7A
:10019000704710B5002200E0521C835C8C5CA342C7
:1001A00001D1002BF8D1D8B2E1B2401A10BD000045
:1001B000064C0125064E05E0E36807CC2B430C3CBA
:1001C00098471034B442F7D3FFF77AFF843B000816
:1001D000A43B000870B505460C461F492846FFF7AA
:1001E00083FFFF2811D81C492846FFF77DFF002810
:1001F0000BD019492846FFF777FFC1B2174AA01C58
:1002000011547321E01C115425E07D21C9002846BA
:10021000FFF76AFFFF2812D80F492846FFF764FF4F
:1002200000280CD07D21C9002846FFF75DFFC1B230
:100230000A4AA01C11546D21E01C11540BE07D21D1
:10024000C9002846FFF750FFC1B2044AA01C115450
:100250007521E01C115470BD40420F003B0100208D
:1002600010B50446032C01D1052000E003201149FC
:1002700008700846447018E0E007C00F002807D057
:1002800000210D480068FFF7A5FF640864000CE03A
:1002900002202040022808D1022108480068FFF708
:1002A00099FF0221204688430446002CE4D1002017
:1002B00010BD00003B0100201800002014000020A9
:1002C00010B506480078002803D1102000F080F80F
:1002D00002E0202000F07CF810BD000002000020A9
:1002E0007047000070B50446002500BF002124209F
:1002F000015500BF00BF005D012801D1022070BD83
:1003000001212420015500BF2520005D022803D0D3
:100310000420E06301253AE0206800680E2188434C
:100320002168086020680068400840002168086073
:10033000606C0068FF2101318843616C08601548DA
:1003400040681C22216C114001228A40104311494F
:100350004860A16CE06C4860206D002809D0206DD9
:100360000068FF2101318843216D0860616DA06D37
:10037000486001212520015500BF0021242001559E
:1003800000BFA06B002802D02046A16B88472846FA
:10039000B5E700000000024010B504460B480078A5
:1003A000002805D1102C03D1204601F07BFD0CE084
:1003B00006480078012808D1102C02D101F004FF72
:1003C00003E0202C01D101F095FD10BD02000020BA
:1003D00010B504460A48C0682040002804D00848E8
:1003E000C460204600F00EF805480069204000284F
:1003F00004D0034804612046FFF7CEFF10BD000083
:100400000018024010B504460B480078002805D1BA
:10041000102C03D1204601F055FD0CE00648007871
:10042000012808D1102C02D101F0E4FE03E0202CB9
:1004300001D101F0C5FD10BD0200002070B50346DA
:100440000022D5E0012696400C683440002C71D083
:100450004D68022D02D04D68122D15D1D508AE0081
:100460001D462035A8595507EE0E0F25B540064606
:10047000AE4330465607F60E0D69B5402843D50801
:10048000AD001E4620367051186856000325B54051
:100490000646AE4330460D79AD07AD0F5600B54068
:1004A000284318604D68012D08D04D68022D05D0F5
:1004B0004D68112D02D04D68122D18D19868560044
:1004C0000325B5400646AE4330465600CD68B540DC
:1004D000284398605868012595400646AE4330464B
:1004E00010264D6835402D09954028435860D8683E
:1004F00056000325B5400646AE43304656008D688B
:10050000B5402843D860012636074D683540B542CE
:100510006DD13A4D9608B600A8599507EE0E0F25F5
:10052000B5400646AE43304605252D07AB4202D105
:10053000002510E05BE0324DAB4201D101250AE01D
:10054000304DAB4201D1022505E02F4DAB4201D128
:10055000032500E005259607F60EB5402843274DF4
:100560009608B600A851254D203528680546A543B4
:100570002846012636044D683540B54202D105466D
:10058000254328461D4D2035286068680546A5434B
:100590002846012676044D683540B54202D105460D
:1005A00025432846154D20356860144D603D286868
:1005B0000546A5432846012636054D683540B54217
:1005C00002D10546254328460C4D603D28606868E9
:1005D0000546A5432846012676054D683540B542B7
:1005E00002D1054625432846044D603D6860521CF3
:1005F0000D68D540002D00D024E770BD6018024082
:100600000004005000080050000C0050024613691E
:100610000B40002B01D0012000E000207047002A91
:1006200001D0816100E081627047000001480068EC
:10063000704700002C000020034800680349096847
:1006400040180149086070472C0000203400002049
:1006500010B5002408480068FF210131084306490D
:100660000860002000F00AF8002801D0012401E011
:1006700000F034F8204610BD00200240F8B50446D2
:1006800000251348006800281ED0114801687D200D
:10069000C000FFF729FD074639460E480068FFF7FE
:1006A00023FD064600F0E0FC00280BD1042C07D205
:1006B00000222146401E00F045F80748046004E08F
:1006C000012502E0012500E001252846F8BD0000D3
:1006D00034000020380000203000002008B500BFA2
:1006E00010480068012108430E4908600846006868
:1006F000C007C00F009000BF00BF00BF09484038CE
:10070000C06B8905084307494039C8630846C06B78
:1007100009040840009000BF00BF0320400200F021
:1007200097FC08BD401002400146002905DBCB06BE
:10073000DB0E01229A40024B1A6000BF7047000096
:1007400000E100E070B504460D46164629462046F5
:1007500003F082F870BD000070B5044611480068CF
:1007600003214902884320430E490860481584420A
:1007700016D10D4909680622514308460B49FFF777
:10078000B3FC451C05E0002D01D06D1E01E00320E7
:1007900070BD044840690121890208408842F2D0B6
:1007A0000020F5E7007000403800002040420F00B4
:1007B00070B504460D46002C01D1012070BD6B4878
:1007C00000684007400FA84218D268480068C00877
:1007D000C000284365490860FFF728FF064607E088
:1007E000FFF724FF801B6249884201D90320E5E717
:1007F0005E4800684007400FA842F1D102212068FE
:100800000840022815D1042120680840042807D197
:100810005848806807210903884340185549886073
:10082000544880680F2109028843A1680843514950
:1008300088602078C007C00F002854D06068012865
:1008400008D14C48006801214904084000282ED1F5
:100850000120B3E76068022808D1464800680121FA
:1008600049060840002822D10120A7E76068002837
:1008700008D140480068012189020840002816D1AB
:1008800001209BE76068032808D13A484030006A9D
:100890000221084000280AD101208FE73548403066
:1008A000C06902210840002801D1012086E73148B3
:1008B0008068C008C000616808432E498860FFF75F
:1008C000B5FE064607E0FFF7B1FE801B28498842C7
:1008D00001D9032072E72748806838210840616801
:1008E000C9008842EFD1214800684007400FA84264
:1008F00018D91E480068C008C00028431B4908607A
:10090000FFF794FE064607E0FFF790FE801B1849AC
:10091000884201D9032051E7144800684007400F7E
:10092000A842F1D1042120680840042808D11148C8
:100930008068072109038843E16808430D498860FE
:1009400000F03AF80B4989680F2212021140090A97
:100950008900094A515CC906C90EC84007490860A8
:1009600007480068FFF78AFE28E7000000200240E1
:100970008813000000100240243B000838000020CB
:100980003000002001480068704700003800002057
:1009900000B5FFF7F7FF06498968072212031140E7
:1009A000090B8900034A515CC906C90EC84000BD45
:1009B00000100240643B0008FEB5354880683821CD
:1009C000084000280DD13248006809020840C10AD9
:1009D0000120884000902F480099FFF785FB0446CE
:1009E00054E02B48806838210840082801D12A4C5F
:1009F0004CE02748806838210840102834D124482A
:100A0000C0688607B60F2248C068702108400009F8
:100A1000401C0190022E0FD0032E0CD11E480199CC
:100A2000FFF762FB1A49C9687F2212021140090AC6
:100A3000484305460DE000BF16480199FFF754FBF7
:100A40001349C9687F2212021140090A484305462A
:100A500000BF00BF0E48C068400F471C39462846FB
:100A6000FFF742FB044611E009488068382108403E
:100A7000202801D1840209E0054880683821084017
:100A8000182802D17D24240200E000242046FEBD67
:100A9000001002400024F40000127A00FEB5044663
:100AA000002C01D10120FEBD2078C007C00F002816
:100AB0006FD0F748876838210F40C0688607B60FA7
:100AC000102F01D1032E01D0082F0BD1F048006860
:100AD00001214904084000285BD06068002858D1F3
:100AE0000120E0E700BF012109046068884205D1C8
:100AF000E74800680843E649086021E00521090449
:100B0000606888420ED1E2480068012189040843E8
:100B1000DF49086008460068012109040843DC49F0
:100B200008600DE0DA480068012109048843D849CB
:100B3000086008460068012189048843D449086098
:100B400000BF6068002812D0FFF770FD054606E080
:100B5000FFF76CFD401B642801D90320A3E7CC48B4
:100B600000680121490408400028F1D011E0FFF796
:100B70005DFD054606E0FFF759FD401B642801D9DD
:100B8000032090E7C248006801214904084000287A
:100B9000F1D1022120680840022873D1BC48806846
:100BA000382108400746BA48C0688607B60F102F9C
:100BB00001D1022E01D0002F36D1B54800680121A5
:100BC00089020840002804D0E068002801D10120F3
:100BD00069E7AF4840687F210902884361690902DB
:100BE0000843AB494860002F16D10846006807212A
:100BF000C902884321690843A5490860084600687E
:100C00000722D2021040C20A012090400146A148AA
:100C1000FFF76AFAA0490860A0480068FFF72EFDB8
:100C2000002849D001203EE7E06800282BD09848F2
:100C300000680721C9028843216908439449086074
:100C4000084600688915084391490860FFF7EEFCE3
:100C5000054606E0FFF7EAFC401B022801D9032005
:100C600021E78B4800680121890208400028F1D063
:100C7000874840687F210902884361690902084367
:100C80008349486018E082480068FF2101318843A9
:100C90007F490860FFF7CAFC054606E0FFF7C6FC7F
:100CA000401B022801D90320FDE679480068012194
:100CB000890208400028F1D108212068084008284E
:100CC00049D1734880683821084018280BD17048F2
:100CD0004030006A0221084000283CD0A06900286A
:100CE00039D10120DFE6A06900281AD068484030D9
:100CF000006A01210843664940310862FFF796FC0B
:100D0000054606E0FFF792FC401B022801D90320AC
:100D1000C9E65F484030006A022108400028F1D04F
:100D200019E05B484030006A4008400058494031B3
:100D30000862FFF77BFC054606E0FFF777FC401BE7
:100D4000022801D90320AEE651484030006A022152
:100D500008400028F1D104212068084004287CD1F3
:100D6000002001904A4880683821084020280BD193
:100D700047484030C0690221084000286ED0A06872
:100D800000286BD101208EE64148C06B010F012085
:100D90008843002810D000BF3D48C06B01210907DF
:100DA00008433B49C8630846C06B090408400090EB
:100DB00000BF00BF0120019039480068FF210131C8
:100DC0000840002816D136480068084334490860B6
:100DD000FFF72CFC054606E0FFF728FC401B022825
:100DE00001D903205FE62E480068FF210131084049
:100DF0000028F1D000BFA068012808D12448403065
:100E0000C0690121084322494031C86120E0A0683F
:100E100005280FD11E484030C069042108431C49F1
:100E20004031C8610846C069012108431849403172
:100E3000C8610DE016484030C069410849001448B7
:100E40004030C161C0690421884311494031C86103
:100E500000BFA068002816D001E040E03EE0FFF7A8
:100E6000E5FB054607E0FFF7E1FB401B0D49884223
:100E700001D9032017E606484030C0690221084026
:100E80000028F0D01EE0FFF7D1FB054614E000007B
:100E9000001002400024F400380000203000002040
:100EA0000070004088130000FFF7C0FB401B64493E
:100EB000884201D90320F6E56248C0690221084052
:100EC0000028F1D10198012808D15E484038C06B54
:100ED0000121090788435B494039C86300BFE069C5
:100EE00000285AD0574840388068382108401028D8
:100EF0007ED0E069022851D1524840380068012173
:100F0000090688434F4940390860FFF78FFB0546C3
:100F100006E0FFF78BFB401B022801D90320C2E546
:100F20004848403800680121490608400028F0D1AF
:100F3000616A206A0843A16A09020843E16A08431A
:100F4000216B08433F494039C9683F4A1140084373
:100F50003C494039C8600846006801210906084339
:100F60003849403908600846C068090408433549D3
:100F70004039C860FFF75AFB054606E0FFF756FB0D
:100F8000401B022801D903208DE52E484038006817
:100F90000121490608400028F0D04EE02948403899
:100FA000006801210906884326494039086008463F
:100FB000C06880088000C8600846C06823490840AF
:100FC00020494039C860FFF731FB054607E0FFF7CD
:100FD0002DFB401B022802D9032064E508E01948D4
:100FE000403800680121490608400028EFD124E07C
:100FF000E069012800D156E512484038C668B107BB
:10100000890F206A814216D170203040616A88427F
:1010100011D17F2000023040A16A090288420AD122
:101020001F2040043040E16A884204D1710F490713
:10103000206B814201D0012035E5002033E500001E
:1010400088130000401002408C80C11FFFFFFEEF9C
:10105000044909680322520291430143014A116085
:10106000704700000000014070B504462546681E28
:101070000949884201D901200CE0681E07494861EE
:101080000321081F02F0E8FB0020044988610720C3
:101090000861002070BD0000FFFFFF0000E000E0DD
:1010A000014600BF7C20405C012801D1022070472E
:1010B00001237C20435400BF242380204350086830
:1010C000026808680068400840000B681860012347
:1010D0005B07104698430246002048660868026095
:1010E00020238020435000BF00237C20435400BFB6
:1010F0000020DCE7704770B504460D4600BF7C2039
:10110000005D012801D1022070BD01217C20015524
:1011100000BF2421802001512068066820680068F3
:10112000400840002168086020688068072149065F
:101130008843284321688860204601F0FBF8206836
:10114000066020218020015100BF00217C20015534
:1011500000BF0020D8E770B504460D4600BF7C20D4
:10116000005D012801D1022070BD01217C200155C4
:1011700000BF242180200151206806682068006893
:10118000400840002168086020688068C000C008EE
:10119000284321688860204601F0CCF8206806606A
:1011A00020218020015100BF00217C20015500BF7B
:1011B0000020D9E7704770477047014680204258A9
:1011C000842043581046184370470000FEB504467B
:1011D0002068C56920680668206887682807000FAE
:1011E00001900198002813D12020284000280FD01A
:1011F00020203040002804D101200007384000287A
:1012000006D0E06E002802D02046E16E8847FEBD81
:10121000019800287ED07A483840002804D1FF2069
:10122000213030400028F5D0E807C00F00280DD04D
:10123000FF2001303040002808D0012021680862DA
:1012400088200059012108438821085102202840A4
:1012500000280CD0F807C00F002808D00220216811
:10126000086288200059042108438821085104207D
:10127000284000280CD0F807C00F002808D0042010
:1012800021680862882000590221084388210851FA
:1012900008202840002810D020203040002803D10A
:1012A00057483840002808D0082021680862882064
:1012B0000059082108438821085188200059002836
:1012C0004DD02020284000280ED02020304000287B
:1012D00004D1012000073840002805D0E06E002826
:1012E00002D02046E16E884788200059009020688F
:1012F000806840210840402804D008210098084018
:10130000002826D0204601F015F920688068402189
:10131000084000E024E0402817D120688068884316
:1013200021688860A06F00280BD03648A16F8863C1
:10133000A06FFEF7D7FF002811D0A06F816B884700
:101340000DE02046FFF738FF09E02046FFF734FFA5
:1013500005E02046FFF730FF00218820015156E7C5
:1013600001200005284000280CD0012080053840CD
:10137000002807D001200005216808622046FFF7F9
:101380001AFF44E78020284000280FD080203040FA
:10139000002804D10120C0053840002806D0206F65
:1013A000002802D02046216F884730E7402028409F
:1013B000002807D040203040002803D0204601F00C
:1013C000CFF824E70120C0052840002808D00120DC
:1013D00080073040002803D02046FFF7EBFE16E7D9
:1013E000012000062840002807D0F00FC007002881
:1013F00003D02046FFF77EFE09E700BF07E70000A5
:10140000010000101D25000810B50446002C01D174
:10141000012010BDA069002800D000E000BF80209E
:101420000059002805D100217C200155204600F0FC
:101430002DF82421802001512068006840084000D8
:1014400021680860204601F071FE012800D1E0E724
:10145000A06A002802D0204600F0AEFF2068406855
:101460000921C902884321684860206880682A21D0
:10147000884321688860206800680121084321684A
:101480000860204601F010F8C3E7000010B586B0F0
:101490000446142101A8FEF76AFE1D49206888420F
:1014A00033D100BF1B48C06B0121490408431949CF
:1014B000C8630846C06B012149040840009000BF82
:1014C00000BF00BF1348406B012108431149486326
:1014D0000846406BC007C00F009000BF00BF0C2043
:1014E00001900220029000200390049001200590BA
:1014F00001A905200007FEF7A1FF002211461C20CC
:10150000FFF720F91C20FFF70FF906B010BD00000F
:10151000004400400010024010B503468420C0582B
:10152000202876D1002901D0002A01D1012010BD48
:10153000012424039868A04208D11869002805D125
:10154000C807C00F002801D00120F0E700BF7C20B1
:10155000C05C012801D10220E9E701247C20C454A9
:1015600000BF99655C20C2525E20C2520020D8663E
:1015700000BF24039868A0420AD11869002803D14B
:101580003E4C6020C45224E0FF246020C45220E07E
:10159000986800280AD11869002803D1FF24602028
:1015A000C45216E07F246020C45212E001242407B4
:1015B0009868A0420AD11869002803D17F246020CE
:1015C000C45206E03F246020C45202E000246020A0
:1015D000C45200BF00248820C45022248420C45058
:1015E00018688068012420431C68A06001246407F7
:1015F000586EA04224D16820C05A904220DC641466
:101600009868A04206D11869002803D11C48D86602
:1016100002E030E01B48D86600BF00247C20C454A0
:1016200000BF18680068FF24013420431C68206054
:10163000186880680124240720431C68A06018E013
:10164000012424039868A04205D11869002802D11A
:101650000D48D86601E00D48D86600BF00247C2004
:10166000C45400BF18680068FF24213420431C685C
:10167000206000205BE7022059E70000FF01000026
:10168000492F000875300008D92E000805300008E1
:1016900010B504461A480078FF280FDB00201849CF
:1016A000087018490870FF211748FEF760FD174BB6
:1016B000202217A1204600F03FF81FE01D480178C6
:1016C0000F4802780078401C0D4B18700E4881546A
:1016D00018460078401E0C49085C0A2805D01846B8
:1016E0000078401E085C0A2808D100BF2046FFF79A
:1016F00064FD2128FAD001200249087010BD0000C5
:1017000001000020090000203C000020FFFF000035
:101710000A506172616D65746572206D6F7265202B
:101720007468616E203235352062797465732E0AD3
:101730000000000000000020FFB583B004460D4605
:10174000174680200059202878D1002D01D0002F85
:1017500002D1012007B0F0BD01210903A068884231
:1017600008D12069002805D1E807C00F002801D062
:101770000120EFE700BF7C20005D012801D102209D
:10178000E8E701217C20015500BF0021882001519C
:10179000212180200151FEF749FF01905420075379
:1017A0005620075301210903A068884205D120690A
:1017B000002802D10026029502E02E460020029069
:1017C00021E006980090002280212046019B01F034
:1017D000FDFF002801D00320BCE7002E09D10298AC
:1017E0000088C005C00D216888620298801C0290A4
:1017F00003E0307821688862761C5620005B401E2A
:1018000081B2562001535620005B0028D9D106989A
:101810000090002240212046019B01F0D7FF0028C4
:1018200001D0032096E720218020015100BF002134
:101830007C20015500BF00208CE7FFE7022089E7EC
:101840007047000000B587B000BF2248406B0421FC
:101850000843204948630846406B04210840019032
:1018600000BF00BF142102A8FEF781FC30200290C7
:1018700019480390002004900320059002A91748FE
:10188000FEF7DCFD16480068102188431449086003
:10189000084640681021884311494860084600689E
:1018A000202188430E49086010200C4988612020BF
:1018B000886100BF20210948FEF7A8FE0128F9D160
:1018C000002205210720FEF73DFF0720FEF72CFF31
:1018D00007B000BD00100240110031100008005098
:1018E00000180240F3B581B00E46374600240025AB
:1018F0001D480078FF2800D1FEBD1C48406820210B
:1019000088431A49486000F0D9F8019800F082F83D
:10191000FF2800D1F0E700F003F900281AD100F009
:1019200027F8401CC5B200F057F8681EC2B2204626
:10193000641C3A540BE000F01BF82146641C7854F8
:10194000AC4202D100F0A0F803E000F045F8AC4250
:10195000F1D900BF00F0CAF80448406820210843CC
:10196000024948600020C7E7080000200018024034
:101970001CB500210091019124E0202015498862C6
:10198000052001F0C3FF684600784006010E009173
:1019900020201049886100BF20210E48FEF736FE46
:1019A0000128F9D1052001F0B1FF10210948FEF707
:1019B0002DFE694609780143009168460079401C74
:1019C000C1B20191684600790828D6DB68460078E4
:1019D0001CBD00000008005010B520200C49886292
:1019E00010208862052001F091FF202008498861BD
:1019F00000BF20210648FEF709FE0128F9D1052085
:101A000001F084FF1020024988612020886210BD07
:101A1000000800501CB5044600210191009101917D
:101A20002AE020201749886280202040002809D021
:101A30001020886110211348FEF7E8FD012804D02A
:101A4000FF201CBD10200F498862052001F05EFFB9
:101A500020200C49886100BF20210A48FEF7D6FDEE
:101A60000128F9D1052001F051FF6006040E6846F7
:101A70000079401CC1B20191684600790828D0DB8A
:101A80000020DEE70008005010B520200A498862D7
:101A9000052001F03BFF1020074988612020886164
:101AA00000BF20210448FEF7B1FD0128F9D105202F
:101AB00001F02CFF10BD00000008005010B52020E0
:101AC0000949886100BF20210748FEF79FFD0128D2
:101AD000F9D1102004498861052001F017FF10207A
:101AE0000149886210BD00000008005010B5202098
:101AF0000A49886210208862052001F007FF202033
:101B00000649886100BF20210448FEF77FFD0128B7
:101B1000F9D110200149886110BD00000008005073
:101B200010B520200D49886210208861052001F041
:101B3000EDFE20200949886100BF20210748FEF7FB
:101B400065FD0128F9D1052001F0E0FE10210348D0
:101B5000FEF75CFD0446204610BD00000008005062
:101B6000F8B506460C462746002518480078FF2899
:101B700000D1F8BD164840682021884314494860C8
:101B8000FFF79CFF3046FFF745FFFF2800D1F0E745
:101B90000CE0FFF7C5FF002807D129466D1C785CD3
:101BA000FFF738FFFF2801D1E3E703E02078401C6E
:101BB000A842EED800BFFFF799FF054840682021F2
:101BC0000843034948600020D3E7000008000020D4
:101BD0000018024030B587B00446002106910491F8
:101BE000312103912178029161780191FF215E48B2
:101BF000FEF7BDFA68460079C007C00F002805D17E
:101C0000684600790221084002287DD10120069013
:101C10007FE06946087EC10F091849104900411A42
:101C200013D16946097E491C625C6946087C411CE7
:101C3000CBB204934C490A540A226946087C411CE1
:101C4000CBB2049348490A545CE068460079C00767
:101C5000C00F00280FD00B2244A14348FEF76EFAB4
:101C60006846007C0B30C1B2049168460079410897
:101C70004900019117E068460079022108400228D6
:101C800011D1394A6946097C50180C223AA1FEF755
:101C900055FA6846007C0C30C1B204916846007960
:101CA0000221884301906846007E401C215C05911A
:101CB0006421039122E06846017B007DFEF72AFA49
:101CC00000280DDD6846017B007DFEF723FA3030E9
:101CD000C1B26846057C681CC2B2049222484155D4
:101CE0006846017B007DFEF715FAC9B205910A210D
:101CF0006846007BFEF70EFAC1B203916846007D8C
:101D00000028D8D1684600E00AE0007E401CC1B23D
:101D100006916846017E007A814200DA79E71EE08A
:101D20006846007904281AD1A07800280AD16846AC
:101D3000007C1A30C1B204911A2213A10A48FEF79E
:101D4000FDF90CE0A078012809D16846007C193023
:101D5000C1B20491192213A10348FEF7EFF96846B6
:101D6000007C07B030BD00003C0000200A447572C2
:101D70006174696F6E3A20000A4672657175656E0E
:101D800063793A20000000000A52756E6E696E6732
:101D9000207374617465206973206D61737465725A
:101DA0002E0A00000A52756E6E696E6720737461A8
:101DB000746520697320736C6176652E0A000000DB
:101DC00010B504460122202105200007FEF727FC5C
:101DD000204601F09BFD0022202105200007FEF790
:101DE0001EFC10BD00B587B0142102A8FEF7BFF994
:101DF00000BF0E48406B012108430C494863084668
:101E0000406BC007C00F019000BF00BF20200290B0
:101E100001200390002004900320059002A90520D2
:101E20000007FEF70BFB07B000BD000000100240EA
:101E300010B51A481A490860E120400248600021A4
:101E400017488160C16001610C21416100218161FD
:101E5000C161016241620020114988620846FFF7B2
:101E6000D3FA002801D0FEF73BFA00210C48FFF717
:101E700072F9002801D0FEF733FA00210848FFF775
:101E80003AF9002801D0FEF72BFA0548FFF708F9C8
:101E9000002801D0FEF724FA10BD000000440040E5
:101EA0005C01002010B5044620210448FEF7AEFB7B
:101EB000002802D0FF200249087010BD0008005021
:101EC0000800002010B5044620210748FEF79EFBBD
:101ED000002808D000200549087005480068202126
:101EE00088430349086010BD000800500800002026
:101EF000001802402B480078401C2A4908702A48E4
:101F00000078012827D108460078082848DC2748AF
:101F1000007880210840002803D0102024498861DF
:101F200002E0102022498862204800784006000E16
:101F30001E4908701B480078082831D11D484068A8
:101F4000202188431B494860084600682021084337
:101F50001849086070471348007809280DD11648C1
:101F6000007816490978884203DA102010498862FF
:101F70000AE010200E49886106E00A4800780A2825
:101F800002D110200A4988610A484068202188430C
:101F90000849486008460068202108430549086050
:101FA00000BFD7E70C0000201C0000200D0000201F
:101FB00000080050001802400E0000200F00002012
:101FC00010B577480078022860D176480078401C28
:101FD000744908700846007808281FDC72480078A9
:101FE0004006000E7049087010217048FEF70EFB85
:101FF0006D49097808436C4908706A4800780828D8
:102000000BD16B4840682021084369494860084665
:1020100000682021884366490860BFE06248007874
:10202000B021084060490978884203D100205C490A
:10203000087024E05C480078B12108405A490978CA
:10204000884218D15A4840682021084358494860BE
:1020500008460068202188435549086001205049FE
:10206000087054490878411C524A11705249095C61
:102070004D4A117003E000204A49087010BD10203D
:102080004A49886200204749087087E04448007840
:10209000002850D143480078401C42490870084647
:1020A0000078082823DC404800784006000E3E49AE
:1020B000087010213D48FEF7A9FA3B49097808430A
:1020C0003949087037480078082867D1052001F0A1
:1020D0001DFC3A4800783A490978884203DC102010
:1020E000324988625AE010203049886156E033480E
:1020F0000078002803D12C480078314908702A491B
:102100000A782E490878411C2C4B19702D490A5425
:10211000184600782A490978884203DA10202349B2
:10212000886204E010202149886101F06FFC0020E2
:102130001C49087032E01A48007801282ED110217D
:102140001A48FEF763FA002800D097E71A4800788B
:102150001849097888421EDB16490878411C154A3F
:1021600011701549095C104A1170052001F0CEFB71
:102170000D48007880210840002803D010200B492A
:10218000886102E01020094988620748007840060B
:10219000000E0549087000200249087000BF6DE775
:1021A0001C0000200C0000200D0000200008005042
:1021B00000180240100000203B0100200E0000200B
:1021C0000F0000201D00002010B501F0D5FB0028F5
:1021D0000DD00748406810218843054948600846EB
:1021E0000068202108430249086001F09BFB10BDF4
:1021F0000018024010B501F0CDFB002811D00948AD
:10220000006820218843074908600846406820216B
:102210008843044948600846406810210843014942
:10222000486010BD001802400CB502460020019025
:102230000090019031E00098000100900198105C3E
:1022400030280ADB0198105C392806DC0198105C04
:102250003038009BC01800901CE00198105C4128A9
:102260000ADB0198105C462806DC0198105C3738C0
:10227000009BC01800900DE00198105C612809DBFC
:102280000198105C662805DC0198105C5738009BAB
:10229000C01800900198401C019001988842CAD350
:1022A00000980CBD10B5FEF7C7F910BD00B591B090
:1022B000342104A8FDF75BFF0020009001900290FC
:1022C000039001204002FEF747FA02200490C0016B
:1022D0000790002008904020099002200B900221D6
:1022E0000C9100210D9108210E9101040F9101071D
:1022F000109104A8FEF7D2FB002801D0FDF7F0FFF3
:1023000007200090022001900020029003900221FB
:102310006846FEF74DFA002801D0FDF7E1FF11B045
:1023200000BD00000120C006014988607047000020
:1023300000ED00E0F0B585B004461BA103C9039190
:1023400002901BA103C901910090606E002805D185
:1023500001216A2001536820015322E00827082246
:10236000049220688068072149060840450E2068CD
:102370008068460F6A46915D02AA935D049A5343B2
:102380001846FDF7C7FE81B26A2001536A46515DC7
:1023900002AA525D7A431046FDF7BCFE81B2682066
:1023A000015305B0F0BD0000010101030701000069
:1023B0000804020408010101018DC907C90F0029A1
:1023C00008D001684968012252049143C26A11434E
:1023D000026851600222816A1140022907D1016816
:1023E0004968D2039143026B114302685160042291
:1023F000816A1140042907D1016849681204914398
:10240000426B1143026851600822816A1140082919
:1024100007D10168496812039143826B1143026836
:1024200051601022816A1140102907D10168896822
:1024300012029143C26B1143026891602022816AAB
:102440001140202907D10168896812029143026C6A
:102450001143026891604022816A1140402915D1E0
:102460000168496892039143426C114302685160CC
:1024700001221205416C914208D10168496803228A
:1024800052059143826C1143026851608022816A37
:102490001140802907D10168496812039143C26C39
:1024A000114302685160704738B504460021882006
:1024B0000151FEF7BBF80546206800680821084076
:1024C00008280BD114482B4600228904009020468E
:1024D00001F07CF9002801D0032038BD2068006895
:1024E0000421084004280BD10B482B460022090583
:1024F0000090204601F06AF9002801D00320ECE7A3
:102500002021802001518420015100BF00217C2026
:10251000015500BF0020E0E7FFFFFF0170B5054651
:10252000AC6A00215E200153562001532046FEF77D
:1025300043FE70BD01680968FF22213291430268A1
:10254000116001688968054A114002689160202283
:1025500084210A500021C16670470000FEFFFFEF92
:1025600010B504462068006840218843216808604F
:10257000202180200151002020672046FFF760F9CC
:1025800010BD000070B5E8B0044600216791669167
:102590006591FF21913101A8FDF7E9FD0F21F74871
:1025A000FDF7E5FDFF21913101A8FDF7E0FD59E0C0
:1025B000F34860A9097F405C202831D104E060A87D
:1025C000007F401CC1B26791ED4960A8007F401CAC
:1025D000085C202801D1012000E0002060A9097FCB
:1025E000E84A1278914201DA012100E00021084016
:1025F0000028E4D160A8007D00282ED0002160A82A
:10260000007E1422504301AA821860A8007D115454
:1026100060A8007E401CC1B26691002165911CE05B
:10262000D74860A9097F405C0D2805D0D44860A92F
:10263000097F405C0A2800D11AE0D14A60A9097FCD
:10264000525C60A9087D411CCBB2659360A9097EEC
:102650001423594301ABC9180A5460A8007F401CD9
:10266000C1B2679160A8007FC649097888429FDBA4
:1026700000BF0020C3490870FF21C148FDF777FD66
:102680000020C149087060A8007E401CC1B266915C
:1026900000BF60A8007E012806DABC4B2A22BCA13C
:1026A0002046FFF749F858E201A9C4A0FDF771FDE3
:1026B000002872D106A9C2A0FDF76BFD002815D134
:1026C000C1480078002806D1B04B1A22BFA120468D
:1026D000FFF732F8EEE3BC4800780128FAD1AB4BA3
:1026E0001922C1A12046FFF727F8E3E306A9C5A0F8
:1026F000FDF74FFD00280BD006A9C4A0FDF749FD4A
:10270000002805D006A9C3A0FDF743FD0028E1D1AC
:1027100060A8007E032806DA9C4B2A229CA1204652
:10272000FFF70AF8C7E302210BA8FFF77DFDC0B24F
:10273000B02833D1A4480078002806D1934B10224A
:10274000B7A12046FEF7F8FFB5E39F4800780128BF
:1027500024D106A9ABA0FDF71CFD002803D1012060
:10276000FDF77EFD0CE006A9A8A0FDF712FD0028EC
:1027700003D10220FDF774FD02E00320FDF770FD98
:10278000AC48FFF727FA7F490870804B084602786B
:102790007B492046FEF7D0FF8DE359E08A48007858
:1027A000012806D1794B3822A3A12046FEF7C4FFA9
:1027B00081E301209F49087006A992A0FDF7E9FC7A
:1027C000002803D101209B4948700CE006A98FA086
:1027D000FDF7DFFC002803D102209649487002E093
:1027E00003209449487002210BA8FFF71DFDC5B2D4
:1027F00090492846FFF7B4F9FF2806D1634B1D2204
:102800009CA12046FEF798FF55E3012001F070F8E7
:1028100002210BA8FFF708FD401CC5B25749284606
:10282000FFF760F8FF2806D1584B1D2291A12046E2
:10283000FEF782FF3FE35148FFF7CCF9514908709A
:10284000524B084602784E492046FEF775FF31E3A9
:1028500001A990A0FDF79DFC00286ED106A958A003
:10286000FDF797FC00286AD160A8007E032806DAED
:10287000464B2A2246A12046FEF75EFF1BE386A1B7
:102880000BA8FDF786FC002828D14F4800780128C6
:1028900006D13E4B332282A12046FEF74DFF09E3CD
:1028A0000120494908708B488B49086046480078E8
:1028B00001280CD1354B0A2288A12046FEF73CFFA7
:1028C000324B192248A12046FEF736FFF2E22F4B89
:1028D000092285A12046FEF72FFFEBE285A10BA878
:1028E000FDF757FC0028B2D137480078002806D100
:1028F000264B352281A12046FEF71EFFDAE200209A
:10290000314908708B48744908602F4800780028C6
:102910000CD11E4B0A2271A12046FEF70DFF1B4B66
:102920001A222AA12046FEF707FFC3E2174B09220D
:102930006DA12046FEF700FFBCE2B4E2FFE706A966
:1029400030A0FDF726FC00280BD006A92FA0FDF72C
:1029500020FC002805D006A92EA0FDF71AFC0028AF
:102960009DD160A8007E052806DA084B2A2208A11E
:102970002046FEF7E1FE9EE2DEE000004A01002074
:102980003C0000200100002009000020FFFF0000A3
:102990000A436F6D6D616E64206572726F723A20CA
:1029A000706C6561736520636865636B207468652E
:1029B00020636F6D6D616E642E0A000067657400A0
:1029C0007374617465000000020000200A52756E85
:1029D0006E696E67207374617465206973206D6120
:1029E000737465722E0A00000A52756E6E696E6706
:1029F00020737461746520697320736C6176652E31
:102A00000A00000064757261000000006672657162
:102A100000000000647572615F66726571000000FD
:102A20000A4D6173746572206E6F204C45442E0A06
:102A3000000000003B0100200A536C617665206EA7
:102A40006F207065726D697373696F6E7320746F38
:102A50002072656164206F746865722064657669B0
:102A6000636520696E666F726D6174696F6E2E0AA0
:102A7000000000000A5468652062757320697320A5
:102A8000696E206120627573792073746174652E9C
:102A90000A00000073657400736C617665000000C5
:102AA0000A43616E2774206368616E676520736CEA
:102AB00061766520746F20736C617665206F662087
:102AC0007468652072756E6E696E672073746174C8
:102AD000652E0A00D53A0008040000200A537563E9
:102AE000636573732E0A00000A4661696C65642E83
:102AF0000A0000006D617374657200000A43616E24
:102B00002774206368616E6765206D6173746572F8
:102B100020746F206D6173746572206F6620746815
:102B2000652072756E6E696E672073746174652EB0
:102B30000A000000E539000802210BA8FFF774FB2A
:102B4000C0B2B0286ED1DD480078002806D1DC4B39
:102B50001022DC492046FEF7EFFDACE1D7480078B3
:102B600001285FD106A9D7481C38FDF712FB0028C1
:102B700012D110A8FDF706FB0646314610A8FFF754
:102B800053FBC6B210A9087D00F0E8FE4643354667
:102B9000284600F093FF3DE006A9CA481438FDF727
:102BA000F8FA002812D110A8FDF7ECFA06463146D3
:102BB00010A8FFF739FBC6B210A9087D00F0CEFEC1
:102BC00046433546284600F07FFF23E010A8FDF776
:102BD000D9FA0646314610A8FFF726FBC6B210A95F
:102BE000087D00F0BBFE46433546284600F066FFF0
:102BF0001AA8FDF7C7FA064631461AA8FFF714FBD4
:102C0000C6B218A9087F00F0A9FE464335462846FB
:102C100000F05AFFAA4B0A22AA49BC312046FEF70F
:102C20008BFD48E1A5480078012807D1A44B382244
:102C3000A44918312046FEF77FFD3CE106A9A148D2
:102C40001C38FDF7A6FA00285BD103209E490870C6
:102C50000120487010A8FDF795FA0546294610A8EE
:102C6000FFF7E2FA9849887010A8007DC8700BA899
:102C7000FDF788FA064631460BA8FFF7D5FAC5B22C
:102C800091492846FEF76CFFFF2809D18C4B1D2285
:102C90008C4954312046FEF74FFDFF2068B070BDCF
:102CA000012000F025FE02210BA8FFF7BDFA401C11
:102CB000C5B286492846FEF715FEFF2808D1804B8D
:102CC0001D22804954312046FEF736FDFF20E5E7FE
:102CD00000207E4988707C48401CFDF75AFA002885
:102CE00007D1774B0A227749BC312046FEF724FDF5
:102CF000CCE0734B09227349C8312046FEF71CFD16
:102D0000C4E006A96F481438FDF743FA002859D1EA
:102D100003206D4908700220487010A8FDF732FAB0
:102D20000546294610A8FFF77FFA6749887010A862
:102D3000007DC8700BA8FDF725FA064631460BA8A2
:102D4000FFF772FAC5B260492846FEF709FFFF286F
:102D500008D15B4B1D225B4954312046FEF7ECFC49
:102D6000FF209BE7012000F0C3FD02210BA8FFF725
:102D70005BFA401CC5B255492846FEF7B3FDFF2853
:102D800008D14F4B1D224F4954312046FEF7D4FC49
:102D9000FF2083E74C49491C4C48801CFDF7F9F99A
:102DA000002807D1464B0A224649BC312046FEF78F
:102DB000C3FC6BE0424B09224249C8312046FEF772
:102DC000BBFC63E00520404908700320487010A850
:102DD000FDF7D8F90546294610A8FFF725FA3A4924
:102DE000887010A8007DC8701AA8FDF7CBF90546B9
:102DF00029461AA8FFF718FA3349087118A8007F66
:102E000048710BA8FDF7BEF9064631460BA8FFF73F
:102E10000BFAC5B22C492846FEF7A2FEFF2808D1BE
:102E2000274B1D22274954312046FEF785FCFF2001
:102E300034E7012000F05CFD02210BA8FFF7F4F954
:102E4000401CC5B221492846FEF74CFDFF2808D199
:102E50001B4B1D221B4954312046FEF76DFCFF2001
:102E60001CE71A491848FDF794F9002807D1144BBC
:102E70000A221449BC312046FEF75EFC06E0104BE6
:102E800009221049C8312046FEF756FC0F48FEF7CC
:102E9000A1FE0F4908700A4B084602780D492046EA
:102EA000FEF74AFC06E0064B2A22064990392046E6
:102EB000FEF742FC00BF00BF0020EFE6020000204A
:102EC000FFFF0000202A00083B0100204A010020EB
:102ED000010000203C000020F8B504466020075B9C
:102EE00084200059222828D12068406A86B2A56D26
:102EF000304638402880A06D801CA0655E20005BB5
:102F0000401E81B25E200153005B00281BD1206867
:102F10000068FF21213188432168086020688068AB
:102F20004008400021688860202184200151002051
:102F3000E0662046FEF7ACFB05E0206880690821CA
:102F4000084321688861F8BDFEB504466020005B37
:102F5000019084200059222848D16820055B2BE08D
:102F60002068406A80B20090A76D019900980840DF
:102F70003880A06D801CA0655E20005B401E81B281
:102F80005E200153005B002814D120680068FF21F7
:102F9000013188432168086020688068174908402B
:102FA000216888602021842001510020E0662046AD
:102FB000FEF76EFB681E85B2002DD1D15E20065B48
:102FC000002E19D06820005BB04215DD20688068B3
:102FD000012109078843216888600948E066206864
:102FE0000068202108432168086005E020688069A6
:102FF0000821084321688861FEBD0000FEFFFFEF45
:10300000D92E000870B504466020065B8420005964
:10301000222828D12068406A85B2F0B22840A16DEC
:103020000870A06D401CA0655E20005B401E81B250
:103030005E200153005B00281BD120680068FF213F
:10304000213188432168086020688068400840007A
:10305000216888602021842001510020E0662046FC
:10306000FEF716FB05E02068806908210843216807
:10307000886170BDF8B504466020005B0090842034
:103080000059222847D16820055B2AE02068406A61
:1030900087B20098C0B23840A16D0870A06D401C86
:1030A000A0655E20005B401E81B25E200153005B84
:1030B000002814D120680068FF210131884321686D
:1030C00008602068806817490840216888602021CE
:1030D000842001510020E0662046FEF7D9FA681EE0
:1030E00085B2002DD2D15E20065B002E19D068205B
:1030F000005BB04215DD2068806801210907884324
:10310000216888600848E06620680068202108433C
:103110002168086005E0206880690821084321686B
:103120008861F8BDFEFFFFEF05300008F0B585B0FF
:10313000044600260020029001902169A0680843FF
:1031400061690843E16908430490606E049908438B
:10315000049020680068F9490840049908432168F0
:10316000086020684068032109038843E168084338
:1031700021684860A0690490206A0499084304907B
:1031800020688068EE4908400499084321688860F7
:103190002068C06A00090001616A08432168C862AA
:1031A00000BFE8492068884217D1E7484069800796
:1031B000800F002806D0012808D0022804D0032858
:1031C00008D105E0002507E0022505E0042503E01D
:1031D000082501E0102500BF28E0DC49206888426E
:1031E00017D1D94840690C210840002806D004288E
:1031F00008D0082804D00C2808D105E0002507E0F5
:10320000022505E0042503E0082501E0102500BFA4
:103210000CE0CF492068884201D1002506E0CD4965
:103220002068884201D1002500E0102500BF01215F
:10323000C903E069884270D1002D06D0022D53D019
:10324000042D6BD0082D6AD1ECE0FDF7A1FB0746F9
:10325000606A002801D1012038E0606A012801D1AC
:10326000022033E0606A022801D104202EE0606A67
:10327000032801D1062029E0606A042801D1082032
:1032800024E0606A052801D10A201FE0606A062850
:1032900001D10C201AE0606A072801D1102015E046
:1032A000606A082801D1202010E0606A092801D155
:1032B00040200BE0606A0A2801D1802006E0606AA5
:1032C0000B2802D1FF20013000E0012001463846E2
:1032D000FCF70AFF400061684908401800906168E7
:1032E000FCF702FF86B2EDE0606A002801D1012000
:1032F0003BE0606A012801D1022036E0606A0228C2
:1033000001D1042031E0606A032801D106202CE0BD
:10331000606A042804D1082027E0E9E033E0CEE029
:10332000606A052801D10A201FE0606A062801D1E1
:103330000C201AE0606A072801D1102015E0606AAD
:10334000082801D1202010E0606A092801D140201E
:103350000BE0606A0A2801D1802006E0606A0B2831
:1033600002D1FF20013000E0012001467A48FCF73D
:10337000BBFE400061684908401800906168FCF796
:10338000B3FE86B29EE0FDF717FB0746606A002891
:1033900001D1012038E0606A012801D1022033E028
:1033A000606A022801D104202EE0606A032801D15E
:1033B000062029E0606A042801D1082024E0606A20
:1033C000052801D10A201FE0606A062801D10C20DF
:1033D0001AE0606A072801D1102015E0606A082809
:1033E00001D1202010E0606A092801D140200BE0C3
:1033F000606A0A2801D1802006E0606A0B2802D1A9
:10340000FF20013000E0012001463846FCF76CFE49
:10341000400061684908401800906168FCF764FE4C
:1034200086B24FE0606A002801D1012038E0606A6E
:10343000012801D1022033E0606A022801D1042072
:103440002EE0606A032801D1062029E0606A042882
:1034500001D1082024E0606A052801D10A201FE07C
:10346000606A062801D10C201AE0606A072801D1A1
:10347000102015E0606A082801D1202010E0606A61
:10348000092801D140200BE0606A0A2801D1802080
:1034900006E0606A0B2802D1FF20013000E0012025
:1034A00001460120C003FCF71FFE40006168490887
:1034B000401800906168FCF717FE86B202E0012018
:1034C000029000BF00BF102E0FD3244886420CD8B4
:1034D00022480F38304003903007400F03990843CB
:1034E000039003982168C86061E1012002905EE1C9
:1034F000002D06D0022D65D0042D72D0082D71D17B
:10350000FBE0FDF745FA0746606A002801D101207B
:103510004BE0606A012801D1022046E0606A02287F
:1035200001D1042041E0606A032801D106203CE07B
:10353000606A042814D1082037E00000F369FFCF47
:10354000FFF4FF11003801404010024000440040E9
:1035500000480040004C00400024F400FFFF000041
:10356000606A052801D10A201FE0606A062801D19F
:103570000C201AE0606A072801D1102015E0606A6B
:10358000082801D1202010E0606A092801D14020DC
:103590000BE0606A0A2801D1802006E0606A0B28EF
:1035A00002D1FF20013000E0012001463846FCF73F
:1035B0009BFD61684908401800906168FCF794FD24
:1035C00086B2E9E0606A002801D101203AE0606A31
:1035D000012801D1022035E0606A022803D10420CD
:1035E00030E03CE0D5E0606A032801D1062029E004
:1035F000606A042801D1082024E0606A052801D10E
:103600000A201FE0606A062801D10C201AE0606AD7
:10361000072801D1102015E0606A082801D1202078
:1036200010E0606A092801D140200BE0606A0A2896
:1036300001D1802006E0606A0B2802D1FF20013012
:1036400000E0012001465F48FCF74EFD6168490833
:10365000401800906168FCF747FD86B29CE0FDF7DA
:10366000ABF90746606A002801D1012038E0606AA2
:10367000012801D1022033E0606A022801D1042030
:103680002EE0606A032801D1062029E0606A042840
:1036900001D1082024E0606A052801D10A201FE03A
:1036A000606A062801D10C201AE0606A072801D15F
:1036B000102015E0606A082801D1202010E0606A1F
:1036C000092801D140200BE0606A0A2801D180203E
:1036D00006E0606A0B2802D1FF20013000E00120E3
:1036E00001463846FCF700FD616849084018009023
:1036F0006168FCF7F9FC86B24EE0606A002801D1EF
:10370000012038E0606A012801D1022033E0606ABC
:10371000022801D104202EE0606A032801D106208E
:1037200029E0606A042801D1082024E0606A0528A5
:1037300001D10A201FE0606A062801D10C201AE09E
:10374000606A072801D1102015E0606A082801D1BD
:10375000202010E0606A092801D140200BE0606A57
:103760000A2801D1802006E0606A0B2802D1FF20E0
:10377000013000E0012001460120C003FCF7B4FC49
:1037800061684908401800906168FCF7ADFC86B29A
:1037900002E00120029000BF00BF102E05D30A48AE
:1037A000864202D82068C66001E001200290012113
:1037B0006A200153682001530020E06620670298C8
:1037C00005B0F0BD0024F400FFFF0000FFB581B09C
:1037D00004460D4617460A9E24E0701C002821D09E
:1037E000FCF724FF0499401AB04201D8002E19D1E9
:1037F00020680068FF21A1318843216808602068A3
:1038000080684008400021688860202180200151A4
:103810008420015100BF00217C20015500BF0320FE
:1038200005B0F0BD2068C0692840A84201D1012040
:1038300000E00020B842D0D00020F1E710B50448E5
:10384000FDF7C4FC012203490148FDF765FE10BDE8
:103850005C0100200000002010B5002819DB1A4A86
:1038600003231B02D21883089B00D2588307DC0E67
:10387000FF23A3409A438B071B0E8407E40EA3404B
:103880001A43114B032424021B198408A4001A5163
:1038900018E00E4A03071B0F083B9B089B00D258F9
:1038A0008307DC0EFF23A3409A438B071B0E84077C
:1038B000E40EA3401A43054B0407240F083CA40858
:1038C000A4001A5110BD000000E100E01CED00E072
:1038D00002E008C8121F08C1002AFAD170477047D9
:1038E000002001E001C1121F002AFBD17047000037
:1038F00010B5044602E0044800F008F82046641EB3
:103900000028F8D110BD00008D03000008B581002B
:103910004118009100BF00994A1E00920029FAD177
:1039200008BD000002200749087000200649087001
:10393000064908700649087006490870064908706B
:10394000704700001C0000200C0000200E0000202A
:103950000D0000200F0000201000002001466D29FE
:1039600003D0732904D1034870477D20C000FBE7D2
:103970007520F9E740420F0010B520210448FCF7FC
:1039800045FE002801D0012010BD0020FCE700000A
:103990000008005010B520210448FCF737FE00282D
:1039A00001D0012010BD0020FCE7000000080050FD
:1039B000FCF74EFEFEF77AFCFEF73AFAFEF712FA33
:1039C000012205490548FDF7A7FDFDF73BFF02E091
:1039D000034800688047FBE7000000205C010020EE
:1039E0000400002010B506E005480078012802D147
:1039F0000448FEF7C7FD044800780028F4D010BD45
:103A0000090000205C0100200200002070B526485B
:103A1000447800253AE0E007C00F00280FD0E91CE9
:103A2000214B585CFFF79AFFA91C1F4B595C484378
:103A3000024600F043F864086400022526E00220F4
:103A40002040022810D1E91C174B585CFFF786FF75
:103A5000A91C154B595C4843024600F035F8022179
:103A600020468843044611E0042C0FD10E4880788C
:103A7000002805D10D4908700D480E49086005E081
:103A800001200A4908700C480A490860002CC2D17C
:103A9000054840788007800F002803D00249487805
:103AA000FCF7DEFB70BD00001D00002002000020BE
:103AB000E539000804000020D53A000801490860F3
:103AC000704700001800002001490860704700009E
:103AD0001400002010B5FFF799FF0E484068102130
:103AE00008430C4948600FE00B480068002803D0E9
:103AF00009480068FEF764F908480068002803D008
:103B000006480068FFF702FF054800780128EBD05F
:103B100010BD000000180240180000201400002012
:103B20000200002000000000000000000000000073
:103B30000000000000000000000000000000000085
:103B4000000000000100000002000000030000006F
:103B5000040000000600000007000000080000004C
:103B6000090000000000000000000000000000004C
:103B7000000000000100000002000000030000003F
:103B800004000000A43B0008000000203C000000EE
:103B9000D0380008E03B00083C000020AC050000E5
:103BA000E038000800000000E539000800000000CF
:103BB0000000000300000000000000000000000002
:103BC0000205030173017300000000000000000003
:103BD0000000000004000000010000000024F400C8
:04000005080000B936
:00000001FF
