:020000040800F2
:10000000E8050020CD000008D5000008D700000852
:1000100000000000000000000000000000000000E0
:10002000000000000000000000000000D9000008EF
:100030000000000000000000DB0000084123000871
:10004000DF00000800000000DF000008DF000008FB
:10005000DF000008DF000008DF000008C102000820
:1000600000000000DF000008DF000008DF000008DB
:10007000DF000008DF000008DF00000800000000CB
:10008000DF000008DF000008DF000008DF000008D4
:10009000DF000008DF000008DF000008DF000008C4
:1000A000DF000008DF000008DF000008DF000008B4
:1000B000D5380008DF0000080348854600F078F8CE
:1000C000004800472D3A0008E80500200448804712
:1000D00004480047FEE7FEE7FEE7FEE7FEE7FEE72F
:1000E000C1230008B900000830B50B4601460020C6
:1000F0002022012409E00D46D5409D4205D31D462E
:100100009540491B2546954040191546521E002D25
:10011000F1DC30BD70B500242546002801DA012449
:100120004042002901DA01254942FFF7DDFFAC42D8
:1001300000D04042002C00D0494270BD03460B4322
:100140009B0703D009E008C9121F08C0042AFAD28D
:1001500003E00B780370401C491C521EF9D2704713
:10016000D2B201E00270401C491EFBD2704700224F
:10017000F6E710B513460A4604461946FFF7F0FFA6
:10018000204610BD421C0178401C0029FBD1801A7A
:10019000704710B5002200E0521C835C8C5CA342C7
:1001A00001D1002BF8D1D8B2E1B2401A10BD000045
:1001B000064C0125064E05E0E36807CC2B430C3CBA
:1001C00098471034B442F7D3FFF77AFFE83B0008B2
:1001D000083C000870B505460C461F492846FFF745
:1001E00083FFFF2811D81C492846FFF77DFF002810
:1001F0000BD019492846FFF777FFC1B2174AA01C58
:1002000011547321E01C115425E07D21C9002846BA
:10021000FFF76AFFFF2812D80F492846FFF764FF4F
:1002200000280CD07D21C9002846FFF75DFFC1B230
:100230000A4AA01C11546D21E01C11540BE07D21D1
:10024000C9002846FFF750FFC1B2044AA01C115450
:100250007521E01C115470BD40420F003B0100208D
:1002600010B50446032C01D1052000E003201149FC
:1002700008700846447018E0E007C00F002807D057
:1002800000210D480068FFF7A5FF640864000CE03A
:1002900002202040022808D1022108480068FFF708
:1002A00099FF0221204688430446002CE4D1002017
:1002B00010BD00003B0100201800002014000020A9
:1002C00010B506480078002803D1102000F07CF813
:1002D00002E0202000F078F810BD000002000020AD
:1002E0007047000070B50446002500BF002124209F
:1002F000015500BF00BF005D012801D1022070BD83
:1003000001212420015500BF2520005D022803D0D3
:100310000420E06301253AE0206800680E2188434C
:100320002168086020680068400840002168086073
:10033000606C0068FF2101318843616C08601548DA
:1003400040681C22216C114001228A40104311494F
:100350004860A16CE06C4860206D002809D0206DD9
:100360000068FF2101318843216D0860616DA06D37
:10037000486001212520015500BF0021242001559E
:1003800000BFA06B002802D02046A16B88472846FA
:10039000B5E700000000024010B5044609480078A7
:1003A000002805D1102C03D1204601F01BFE08E0E7
:1003B00004480078012804D1202C02D1204601F005
:1003C00031FE10BD0200002010B504460A48C06886
:1003D0002040002804D00848C460204600F00EF8F1
:1003E000054800692040002804D0034804612046E5
:1003F000FFF7D2FF10BD00000018024010B5044600
:1004000009480078002805D1102C03D1204601F0BE
:10041000F9FD08E004480078012804D1202C02D11D
:10042000204601F00DFE10BD0200002070B503460D
:100430000022D5E0012696400C683440002C71D093
:100440004D68022D02D04D68122D15D1D508AE0091
:100450001D462035A8595507EE0E0F25B540064616
:10046000AE4330465607F60E0D69B5402843D50811
:10047000AD001E4620367051186856000325B54061
:100480000646AE4330460D79AD07AD0F5600B54078
:10049000284318604D68012D08D04D68022D05D005
:1004A0004D68112D02D04D68122D18D19868560054
:1004B0000325B5400646AE4330465600CD68B540EC
:1004C000284398605868012595400646AE4330465B
:1004D00010264D6835402D09954028435860D8684E
:1004E00056000325B5400646AE43304656008D689B
:1004F000B5402843D860012636074D683540B542DF
:100500006DD13A4D9608B600A8599507EE0E0F2505
:10051000B5400646AE43304605252D07AB4202D115
:10052000002510E05BE0324DAB4201D101250AE02D
:10053000304DAB4201D1022505E02F4DAB4201D138
:10054000032500E005259607F60EB5402843274D04
:100550009608B600A851254D203528680546A543C4
:100560002846012636044D683540B54202D105467D
:10057000254328461D4D2035286068680546A5435B
:100580002846012676044D683540B54202D105461D
:1005900025432846154D20356860144D603D286878
:1005A0000546A5432846012636054D683540B54227
:1005B00002D10546254328460C4D603D28606868F9
:1005C0000546A5432846012676054D683540B542C7
:1005D00002D1054625432846044D603D6860521C03
:1005E0000D68D540002D00D024E770BD6018024092
:1005F0000004005000080050000C0050024613692F
:100600000B40002B01D0012000E000207047002AA1
:1006100001D0816100E081627047000001480068FC
:10062000704700002C000020034800680349096857
:1006300040180149086070472C0000203400002059
:1006400010B5002408480068FF210131084306491D
:100650000860002000F00AF8002801D0012401E021
:1006600000F034F8204610BD00200240F8B50446E2
:1006700000251348006800281ED0114801687D201D
:10068000C000FFF731FD074639460E480068FFF706
:100690002BFD064600F0E0FC00280BD1042C07D20D
:1006A00000222146401E00F045F80748046004E09F
:1006B000012502E0012500E001252846F8BD0000E3
:1006C00034000020380000203000002008B500BFB2
:1006D00010480068012108430E4908600846006878
:1006E000C007C00F009000BF00BF00BF09484038DE
:1006F000C06B8905084307494039C8630846C06B89
:1007000009040840009000BF00BF0320400200F031
:1007100097FC08BD401002400146002905DBCB06CE
:10072000DB0E01229A40024B1A6000BF70470000A6
:1007300000E100E070B504460D4616462946204605
:1007400003F0D6F870BD000070B50446114800688B
:1007500003214902884320430E490860481584421A
:1007600016D10D4909680622514308460B49FFF787
:10077000BBFC451C05E0002D01D06D1E01E00320EF
:1007800070BD044840690121890208408842F2D0C6
:100790000020F5E7007000403800002040420F00C4
:1007A00070B504460D46002C01D1012070BD6B4888
:1007B00000684007400FA84218D268480068C00887
:1007C000C000284365490860FFF728FF064607E098
:1007D000FFF724FF801B6249884201D90320E5E727
:1007E0005E4800684007400FA842F1D1022120680E
:1007F0000840022815D1042120680840042807D1A8
:100800005848806807210903884340185549886083
:10081000544880680F2109028843A1680843514960
:1008200088602078C007C00F002854D06068012875
:1008300008D14C48006801214904084000282ED105
:100840000120B3E76068022808D14648006801210A
:1008500049060840002822D10120A7E76068002847
:1008600008D140480068012189020840002816D1BB
:1008700001209BE76068032808D13A484030006AAD
:100880000221084000280AD101208FE73548403076
:10089000C06902210840002801D1012086E73148C3
:1008A0008068C008C000616808432E498860FFF76F
:1008B000B5FE064607E0FFF7B1FE801B28498842D7
:1008C00001D9032072E72748806838210840616811
:1008D000C9008842EFD1214800684007400FA84274
:1008E00018D91E480068C008C00028431B4908608A
:1008F000FFF794FE064607E0FFF790FE801B1849BD
:10090000884201D9032051E7144800684007400F8E
:10091000A842F1D1042120680840042808D11148D8
:100920008068072109038843E16808430D4988600E
:1009300000F03AF80B4989680F2212021140090AA7
:100940008900094A515CC906C90EC84007490860B8
:1009500007480068FFF78AFE28E7000000200240F1
:100960008813000000100240883B00083800002077
:100970003000002001480068704700003800002067
:1009800000B5FFF7F7FF06498968072212031140F7
:10099000090B8900034A515CC906C90EC84000BD55
:1009A00000100240C83B0008FEB535488068382179
:1009B000084000280DD13248006809020840C10AE9
:1009C0000120884000902F480099FFF78DFB0446D6
:1009D00054E02B48806838210840082801D12A4C6F
:1009E0004CE02748806838210840102834D124483A
:1009F000C0688607B60F2248C06870210840000909
:100A0000401C0190022E0FD0032E0CD11E480199DC
:100A1000FFF76AFB1A49C9687F2212021140090ACE
:100A2000484305460DE000BF16480199FFF75CFBFF
:100A30001349C9687F2212021140090A484305463A
:100A400000BF00BF0E48C068400F471C394628460B
:100A5000FFF74AFB044611E0094880683821084046
:100A6000202801D1840209E0054880683821084027
:100A7000182802D17D24240200E000242046FEBD77
:100A8000001002400024F40000127A00FEB5044673
:100A9000002C01D10120FEBD2078C007C00F002826
:100AA0006FD0F748876838210F40C0688607B60FB7
:100AB000102F01D1032E01D0082F0BD1F048006870
:100AC00001214904084000285BD06068002858D103
:100AD0000120E0E700BF012109046068884205D1D8
:100AE000E74800680843E649086021E00521090459
:100AF000606888420ED1E2480068012189040843F9
:100B0000DF49086008460068012109040843DC4900
:100B100008600DE0DA480068012109048843D849DB
:100B2000086008460068012189048843D4490860A8
:100B300000BF6068002812D0FFF770FD054606E090
:100B4000FFF76CFD401B642801D90320A3E7CC48C4
:100B500000680121490408400028F1D011E0FFF7A6
:100B60005DFD054606E0FFF759FD401B642801D9ED
:100B7000032090E7C248006801214904084000288A
:100B8000F1D1022120680840022873D1BC48806856
:100B9000382108400746BA48C0688607B60F102FAC
:100BA00001D1022E01D0002F36D1B54800680121B5
:100BB00089020840002804D0E068002801D1012003
:100BC00069E7AF4840687F210902884361690902EB
:100BD0000843AB494860002F16D10846006807213A
:100BE000C902884321690843A5490860084600688E
:100BF0000722D2021040C20A012090400146A148BB
:100C0000FFF772FAA0490860A0480068FFF72EFDC0
:100C1000002849D001203EE7E06800282BD0984802
:100C200000680721C9028843216908439449086084
:100C3000084600688915084391490860FFF7EEFCF3
:100C4000054606E0FFF7EAFC401B022801D9032015
:100C500021E78B4800680121890208400028F1D073
:100C6000874840687F210902884361690902084377
:100C70008349486018E082480068FF2101318843B9
:100C80007F490860FFF7CAFC054606E0FFF7C6FC8F
:100C9000401B022801D90320FDE6794800680121A4
:100CA000890208400028F1D108212068084008285E
:100CB00049D1734880683821084018280BD1704802
:100CC0004030006A0221084000283CD0A06900287A
:100CD00039D10120DFE6A06900281AD068484030E9
:100CE000006A01210843664940310862FFF796FC1B
:100CF000054606E0FFF792FC401B022801D90320BD
:100D0000C9E65F484030006A022108400028F1D05F
:100D100019E05B484030006A4008400058494031C3
:100D20000862FFF77BFC054606E0FFF777FC401BF7
:100D3000022801D90320AEE651484030006A022162
:100D400008400028F1D104212068084004287CD103
:100D5000002001904A4880683821084020280BD1A3
:100D600047484030C0690221084000286ED0A06882
:100D700000286BD101208EE64148C06B010F012095
:100D80008843002810D000BF3D48C06B01210907EF
:100D900008433B49C8630846C06B090408400090FB
:100DA00000BF00BF0120019039480068FF210131D8
:100DB0000840002816D136480068084334490860C6
:100DC000FFF72CFC054606E0FFF728FC401B022835
:100DD00001D903205FE62E480068FF210131084059
:100DE0000028F1D000BFA068012808D12448403075
:100DF000C0690121084322494031C86120E0A06850
:100E000005280FD11E484030C069042108431C4901
:100E10004031C8610846C069012108431849403182
:100E2000C8610DE016484030C069410849001448C7
:100E30004030C161C0690421884311494031C86113
:100E400000BFA068002816D001E040E03EE0FFF7B8
:100E5000E5FB054607E0FFF7E1FB401B0D49884233
:100E600001D9032017E606484030C0690221084036
:100E70000028F0D01EE0FFF7D1FB054614E000008B
:100E8000001002400024F400380000203000002050
:100E90000070004088130000FFF7C0FB401B64494E
:100EA000884201D90320F6E56248C0690221084062
:100EB0000028F1D10198012808D15E484038C06B64
:100EC0000121090788435B494039C86300BFE069D5
:100ED00000285AD0574840388068382108401028E8
:100EE0007ED0E069022851D1524840380068012183
:100EF000090688434F4940390860FFF78FFB0546D4
:100F000006E0FFF78BFB401B022801D90320C2E556
:100F10004848403800680121490608400028F0D1BF
:100F2000616A206A0843A16A09020843E16A08432A
:100F3000216B08433F494039C9683F4A1140084383
:100F40003C494039C8600846006801210906084349
:100F50003849403908600846C068090408433549E3
:100F60004039C860FFF75AFB054606E0FFF756FB1D
:100F7000401B022801D903208DE52E484038006827
:100F80000121490608400028F0D04EE029484038A9
:100F9000006801210906884326494039086008464F
:100FA000C06880088000C8600846C06823490840BF
:100FB00020494039C860FFF731FB054607E0FFF7DD
:100FC0002DFB401B022802D9032064E508E01948E4
:100FD000403800680121490608400028EFD124E08C
:100FE000E069012800D156E512484038C668B107CB
:100FF000890F206A814216D170203040616A884290
:1010000011D17F2000023040A16A090288420AD132
:101010001F2040043040E16A884204D1710F490723
:10102000206B814201D0012035E5002033E500002E
:1010300088130000401002408C80C11FFFFFFEEFAC
:10104000044909680322520291430143014A116095
:10105000704700000000014070B504462546681E38
:101060000949884201D901200CE0681E07494861FE
:101070000321081F02F03CFC00200449886107207E
:101080000861002070BD0000FFFFFF0000E000E0ED
:10109000014600BF7C20405C012801D1022070473E
:1010A00001237C20435400BF242380204350086840
:1010B000026808680068400840000B681860012357
:1010C0005B071046984302460020486608680260A5
:1010D00020238020435000BF00237C20435400BFC6
:1010E0000020DCE7704770B504460D4600BF7C2049
:1010F000005D012801D1022070BD01217C20015535
:1011000000BF242180200151206806682068006803
:10111000400840002168086020688068072149066F
:101120008843284321688860204601F051F92068EF
:10113000066020218020015100BF00217C20015544
:1011400000BF0020D8E770B504460D4600BF7C20E4
:10115000005D012801D1022070BD01217C200155D4
:1011600000BF2421802001512068066820680068A3
:10117000400840002168086020688068C000C008FE
:10118000284321688860204601F022F92068066023
:1011900020218020015100BF00217C20015500BF8B
:1011A0000020D9E7704770477047014680204258B9
:1011B000842043581046184370470000FEB504468B
:1011C0002068C56920680668206887682807000FBE
:1011D00001900198002813D12020284000280FD02A
:1011E00020203040002804D101200007384000288A
:1011F00006D0E06E002802D02046E16E8847FEBD92
:10120000019800287ED07A483840002804D1FF2079
:10121000213030400028F5D0E807C00F00280DD05D
:10122000FF2001303040002808D0012021680862EA
:1012300088200059012108438821085102202840B4
:1012400000280CD0F807C00F002808D00220216821
:10125000086288200059042108438821085104208D
:10126000284000280CD0F807C00F002808D0042020
:10127000216808628820005902210843882108510A
:1012800008202840002810D020203040002803D11A
:1012900057483840002808D0082021680862882074
:1012A0000059082108438821085188200059002846
:1012B0004DD02020284000280ED02020304000288B
:1012C00004D1012000073840002805D0E06E002836
:1012D00002D02046E16E884788200059009020689F
:1012E000806840210840402804D008210098084028
:1012F000002826D0204601F06BF920688068402144
:10130000084000E024E0402817D120688068884326
:1013100021688860A06F00280BD03648A16F8863D1
:10132000A06FFEF7DFFF002811D0A06F816B884708
:101330000DE02046FFF738FF09E02046FFF734FFB5
:1013400005E02046FFF730FF00218820015156E7D5
:1013500001200005284000280CD0012080053840DD
:10136000002807D001200005216808622046FFF709
:101370001AFF44E78020284000280FD0802030400A
:10138000002804D10120C0053840002806D0206F75
:10139000002802D02046216F884730E740202840AF
:1013A000002807D040203040002803D0204601F01C
:1013B00025F924E70120C0052840002808D0012095
:1013C00080073040002803D02046FFF7EBFE16E7E9
:1013D000012000062840002807D0F00FC007002891
:1013E00003D02046FFF77EFE09E700BF07E70000B5
:1013F00001000010B925000810B50446002C01D1E9
:10140000012010BDA069002800D000E000BF8020AE
:101410000059002805D100217C200155204600F00C
:101420002DF82421802001512068006840084000E8
:1014300021680860204601F0C5FE012800D1E0E7E0
:10144000A06A002802D0204601F004F82068406815
:101450000921C902884321684860206880682A21E0
:10146000884321688860206800680121084321685A
:101470000860204601F066F8C3E7000010B586B0AA
:101480000446142101A8FEF772FE1D492068884217
:1014900033D100BF1B48C06B0121490408431949DF
:1014A000C8630846C06B012149040840009000BF92
:1014B00000BF00BF1348406B012108431149486336
:1014C0000846406BC007C00F009000BF00BF0C2053
:1014D00001900220029000200390049001200590CA
:1014E00001A905200007FEF7A1FF002211461C20DC
:1014F000FFF720F91C20FFF70FF906B010BD000020
:10150000004400400010024010B503468420C0583B
:10151000202876D1002901D0002A01D1012010BD58
:10152000012424039868A04208D11869002805D135
:10153000C807C00F002801D00120F0E700BF7C20C1
:10154000C05C012801D10220E9E701247C20C454B9
:1015500000BF99655C20C2525E20C2520020D8664E
:1015600000BF24039868A0420AD11869002803D15B
:101570003E4C6020C45224E0FF246020C45220E08E
:10158000986800280AD11869002803D1FF24602038
:10159000C45216E07F246020C45212E001242407C4
:1015A0009868A0420AD11869002803D17F246020DE
:1015B000C45206E03F246020C45202E000246020B0
:1015C000C45200BF00248820C45022248420C45068
:1015D00018688068012420431C68A0600124640707
:1015E000586EA04224D16820C05A904220DC641476
:1015F0009868A04206D11869002803D11C48D86613
:1016000002E030E01B48D86600BF00247C20C454B0
:1016100000BF18680068FF24013420431C68206064
:10162000186880680124240720431C68A06018E023
:10163000012424039868A04205D11869002802D12A
:101640000D48D86601E00D48D86600BF00247C2014
:10165000C45400BF18680068FF24213420431C686C
:10166000206000205BE7022059E70000FF01000036
:10167000E12F00080D310008712F00089D3000088F
:1016800010B5044619480078FF280DDB00201749E3
:101690000870FF211648FEF76AFD164B202216A19E
:1016A000204600F03DF820E01C4801780F48027801
:1016B0000078401C0D4B18700D4881541846007876
:1016C000401E0B49085C0A280FD100BF2046FFF7D7
:1016D0006CFD2128FAD0204600F0A2FF002003492B
:1016E0000870FF210248FEF742FD10BD01000020F6
:1016F0003C000020FFFF00000A506172616D6574BC
:101700006572206D6F7265207468616E20323535A8
:101710002062797465732E0A00000000000000202A
:10172000FFB583B004460D46174680200059202897
:1017300078D1002D01D0002F02D1012007B0F0BDDB
:1017400001210903A068884208D12069002805D139
:10175000E807C00F002801D00120EFE700BF7C2080
:10176000005D012801D10220E8E701217C2001551C
:1017700000BF002188200151212180200151FEF766
:101780004DFF0190542007535620075301210903B0
:10179000A068884205D12069002802D10026029560
:1017A00002E02E460020029021E0069800900022E0
:1017B00080212046019B02F055F8002801D003202B
:1017C000BCE7002E09D102980088C005C00D216831
:1017D00088620298801C029003E030782168886259
:1017E000761C5620005B401E81B2562001535620C5
:1017F000005B0028D9D106980090002240212046A5
:10180000019B02F02FF8002801D0032096E7202149
:101810008020015100BF00217C20015500BF002025
:101820008CE7FFE7022089E770470000F3B581B03D
:101830000E463746002400200090002520211E4837
:10184000FEF7DCFE0090052002F0ACF820211A48DB
:10185000FEF7D4FE00990840012801D0FF20FEBD0C
:1018600000F084F800F044F9019800F0F5F800F079
:1018700061F900281AD100F021F8401CC5B200F02F
:10188000D5F8681EC2B22046641C3A540BE000F042
:1018900015F82146641C7854AC4202D100F016F9C8
:1018A00003E000F0C3F8AC42F1D900BF00F030F91A
:1018B00000F088F80020D2E7000800501CB5002195
:1018C000009101911CE0202011498862052002F05E
:1018D00069F8694608784006000E009000F07EF92D
:1018E000052002F05FF810210948FEF787FE6946DF
:1018F00009780843009069460879401CC0B20190FD
:10190000684600790828DEDB684600781CBD0000C8
:101910000008005000B587B0142102A8FEF727FC8C
:1019200000BF1048406B042108430E494863084635
:10193000406B04210840019000BF00BF20200290AE
:1019400011200390002004900320059002A906486E
:10195000FEF76CFD012220210348FEF758FE07B078
:1019600000BD0000001002400008005000B587B024
:10197000142102A8FEF7FBFB00BF1048406B0421B6
:1019800008430E4948630846406B04210840019013
:1019900000BF00BF1020029011200390002004908F
:1019A0000320059002A90648FEF740FD0122102100
:1019B0000348FEF72CFE07B000BD000000100240F7
:1019C0000008005000B587B0102014490861C860B5
:1019D000142102A8FEF7CBFB00BF1148406B042185
:1019E00008430F4948630846406B042108400190B2
:1019F00000BF00BF102002900A480390002004900E
:101A000002A90948FEF712FD002211460720FEF741
:101A100091FE0720FEF780FE07B000BD00180240CF
:101A200000100240000031100008005010B52020C6
:101A30000849886210208862052001F0B3FF00F099
:101A4000CDF8052001F0AEFF10200249886120206A
:101A5000886210BD0008005038B50446002100918E
:101A600000912BE0202018498862052001F09AFFA0
:101A70008020204000280AD01020134988611021BE
:101A80001148FEF7BBFD01280CD0FF2038BD102007
:101A90000D49886210210C48FEF7B0FD002801D0E6
:101AA000FF20F3E700F09AF8052001F07BFF6006C5
:101AB000040E68460078401CC1B200916846007868
:101AC0000828CFDB0020E1E70008005010B52020F7
:101AD00006498862052001F065FF102003498861EE
:101AE00000F07CF8052001F05DFF10BD00080050FB
:101AF00010B500F073F8102004498861052001F04A
:101B000051FF10200149886210BD000000080050FC
:101B100010B520200649886210208862052001F057
:101B200041FF00F05BF810200149886110BD000002
:101B30000008005010B520200949886210208861F3
:101B4000052001F02FFF00F049F8052001F02AFFE1
:101B500010210348FEF752FD0446204610BD000048
:101B600000080050F3B581B00C462646002500273A
:101B700020211848FEF742FD0746052001F012FF1C
:101B800020211448FEF73AFD3840012801D0FF20FB
:101B9000FEBDFFF7EBFE10200F490861FFF7A8FF1D
:101BA0000198FFF759FF0AE0FFF7C4FF002805D1AD
:101BB00029466D1C705CFFF74FFF00E003E02078C2
:101BC000401CA842F0D800BFFFF7A2FFFFF7FAFEC3
:101BD0000020DDE7000800500018024010B520206A
:101BE0000449886100BF20210248FEF707FD002854
:101BF000F9D010BD000800500348406820218843F8
:101C000001494860704700000018024000B585B0E7
:101C100014216846FEF7ABFA202000900948019095
:101C2000002002900320039069460748FEF7FEFB60
:101C3000002201210720FEF77DFD0720FEF76CFD45
:101C400005B000BD000021100008005000B50520BF
:101C500001F0A8FE0348406820210843014948607C
:101C600000BD00000018024003480068202188439E
:101C700001490860704700000018024003480068EE
:101C80002021084301490860704700000018024005
:101C900000B587B0142102A8FEF769FA00BF0F480B
:101CA000406B042108430D4948630846406B0421FA
:101CB0000840019000BF00BF102002901120039047
:101CC000002004900320059002A90548FEF7AEFB12
:101CD00010200349886107B000BD000000100240D9
:101CE0000008005000B5102004498862052001F06A
:101CF00059FE10200149886100BD00000008005015
:101D000000B5102002498861052001F04BFE00BD9E
:101D10000008005030B587B00446002106910491B8
:101D2000312103912178029161780191FF215E4870
:101D3000FEF71DFA68460079C007C00F002805D1DC
:101D4000684600790221084002287DD101200690D2
:101D50007FE06946087EC10F091849104900411A01
:101D600013D16946097E491C625C6946087C411CA6
:101D7000CBB204934C490A540A226946087C411CA0
:101D8000CBB2049348490A545CE068460079C00726
:101D9000C00F00280FD00B2244A14348FEF7CEF914
:101DA0006846007C0B30C1B2049168460079410856
:101DB0004900019117E06846007902210840022895
:101DC00011D1394A6946097C50180C223AA1FEF714
:101DD000B5F96846007C0C30C1B2049168460079C0
:101DE0000221884301906846007E401C215C0591D9
:101DF0006421039122E06846017B007DFEF78AF9A9
:101E000000280DDD6846017B007DFEF783F9303048
:101E1000C1B26846057C681CC2B204922248415592
:101E20006846017B007DFEF775F9C9B205910A216C
:101E30006846007BFEF76EF9C1B203916846007DEB
:101E40000028D8D1684600E00AE0007E401CC1B2FC
:101E500006916846017E007A814200DA79E71EE049
:101E60006846007904281AD1A07800280AD168466B
:101E7000007C1A30C1B204911A2213A10A48FEF75D
:101E80005DF90CE0A078012809D16846007C193082
:101E9000C1B20491192213A10348FEF74FF9684615
:101EA000007C07B030BD00003C0000200A44757281
:101EB0006174696F6E3A20000A4672657175656ECD
:101EC00063793A20000000000A52756E6E696E67F1
:101ED000207374617465206973206D617374657219
:101EE0002E0A00000A52756E6E696E672073746167
:101EF000746520697320736C6176652E0A0000009A
:101F000010B504460122202105200007FEF77FFBC3
:101F1000204601F047FD0022202105200007FEF7A2
:101F200076FB10BD00B587B0142102A8FEF71FF99B
:101F300000BF0E48406B012108430C494863084626
:101F4000406BC007C00F019000BF00BF202002906F
:101F500001200390002004900320059002A9052091
:101F60000007FEF763FA07B000BD00000010024052
:101F700010B51A481A490860E12040024860002163
:101F800017488160C16001610C21416100218161BC
:101F9000C161016241620020114988620846FFF771
:101FA0002BFA002801D0FEF79BF900210C48FFF71F
:101FB000CAF8002801D0FEF793F900210848FFF77E
:101FC00092F8002801D0FEF78BF90548FFF760F87A
:101FD000002801D0FEF784F910BD00000044004045
:101FE0005C01002010B5044620210448FEF706FBE2
:101FF000002802D0FF200249087010BD00080050E0
:102000000800002010B5044620210448FEF7F6FA27
:10201000002802D000200249087010BD00080050BE
:102020000800002010B5044601F0F2FC002805D09D
:10203000FFF724FEFFF7E0FD01F0C0FC10BD00003B
:1020400010B5044696480078022868D19548007873
:10205000401C9449087008460078082819DC92480A
:1020600000784006000E9049087010218F48FEF756
:10207000C5FA8D49097808438B490870894800786A
:10208000082805D1052001F08DFC102087498862C1
:1020900003E185480078A0210840834909788842F7
:1020A00003D100207E4908701CE07F480078A12100
:1020B00008407D49097888420CD101207849087090
:1020C0007B490878411C7A4A11707A49095C764A42
:1020D000117007E0002073490870FFF7B7FDFFF7A4
:1020E000C3FD10BDFFF7FEFD6D480078012812D139
:1020F0006D48007880210840002803D010206B49EB
:10210000886102E0102069498862674800784006CB
:10211000000E65490870002062490870BDE0604803
:102120000078002852D15F480078401C5D49087053
:1021300008460078082823DC5B4800784006000E3B
:102140005949087010215948FEF758FA564909783C
:1021500008435549087053480078082898D105204D
:1021600001F020FC5448007854490978884203DC87
:1021700010204E49886290E010204C4988618CE024
:102180004D480078002803D1474800784B49087033
:1021900045490A7848490878411C474B1970484915
:1021A0000A541846007845490978884202DAFFF750
:1021B00099FD07E0FFF7A4FDFFF756FDFFF746FD89
:1021C00001F058FC00203749087066E03448007878
:1021D000012862D133480078401C32490870084613
:1021E000007808281EDC052001F0DCFB2D48007873
:1021F000082803D110202D49886172E72A48007809
:1022000080210840002803D010202849886102E07E
:10221000102026498862244800784006000E224992
:1022200008703AE010212148FEF7E8F9002807D0AD
:1022300010201E498861FFF709FDFFF715FD50E7E3
:102240001C4800781A49097888421FDB1849087829
:10225000411C174A11701749095C134A1170052077
:1022600001F0A0FB1048007880210840002803D02E
:1022700010200E49886102E010200C4988620A484B
:1022800000784006000E0849087003E0FFF7DEFC06
:10229000FFF7EAFC00200349087000BF21E70000B7
:1022A0001C0000200C0000200D0000200008005041
:1022B000100000203B0100200E0000200F00002035
:1022C0001D0000200CB502460020019000900190F6
:1022D00031E00098000100900198105C30280ADB82
:1022E0000198105C392806DC0198105C3038009B9E
:1022F000C01800901CE00198105C41280ADB01988E
:10230000105C462806DC0198105C3738009BC0182A
:1023100000900DE00198105C612809DB0198105CC9
:10232000662805DC0198105C5738009BC0180090A7
:102330000198401C019001988842CAD300980CBDB6
:1023400010B5FEF771F910BD00B591B0342104A8A5
:10235000FDF70DFF002000900190029003900120F6
:102360004002FEF7F1F902200490C001079000201E
:1023700008904020099002200B9002210C9100212E
:102380000D9108210E9101040F910107109104A8ED
:10239000FEF77CFB002801D0FDF7A2FF072000908C
:1023A0000220019000200290039002216846FEF76F
:1023B000F7F9002801D0FDF793FF11B000BD000030
:1023C0000120C006014988607047000000ED00E070
:1023D000F0B585B004461BA103C9039102901BA16F
:1023E00003C901910090606E002805D101216A2087
:1023F00001536820015322E0082708220492206834
:102400008068072149060840450E20688068460F0D
:102410006A46915D02AA935D049A53431846FDF7FC
:1024200079FE81B26A2001536A46515D02AA525D6B
:102430007A431046FDF76EFE81B26820015305B065
:10244000F0BD0000010101030701000008040204BF
:1024500008010101018DC907C90F002908D00168D1
:102460004968012252049143C26A114302685160D3
:102470000222816A1140022907D101684968D2030A
:102480009143026B1143026851600422816A11403A
:10249000042907D10168496812049143426B114332
:1024A000026851600822816A1140082907D1016839
:1024B000496812039143826B1143026851601022F4
:1024C000816A1140102907D101688968120291437D
:1024D000C26B1143026891602022816A1140202959
:1024E00007D10168896812029143026C11430268A6
:1024F00091604022816A1140402915D101684968E4
:1025000092039143426C114302685160012212050B
:10251000416C914208D101684968032252059143F8
:10252000826C1143026851608022816A11408029C7
:1025300007D10168496812039143C26C11430268D4
:102540005160704738B50446002188200151FEF7DC
:1025500065F80546206800680821084008280BD166
:1025600014482B46002289040090204601F07AF995
:10257000002801D0032038BD2068006804210840ED
:1025800004280BD10B482B46002209050090204659
:1025900001F068F9002801D00320ECE72021802019
:1025A00001518420015100BF00217C20015500BF52
:1025B0000020E0E7FFFFFF0170B50546AC6A00218F
:1025C0005E200153562001532046FEF7EDFD70BDFD
:1025D00001680968FF222132914302681160016895
:1025E0008968054A114002689160202284210A50BE
:1025F0000021C16670470000FEFFFFEF10B50446E2
:1026000020680068402188432168086020218020DC
:102610000151002020672046FFF706F910BD000099
:1026200070B5E8B004460021679166916591FF217D
:10263000913101A8FDF79BFD0F21F648FDF797FDAD
:10264000FF21913101A8FDF792FD59E0F24860A900
:10265000097F405C202831D104E060A8007F401C45
:10266000C1B26791EC4960A8007F401C085C20283B
:1026700001D1012000E0002060A9097FE74A12781B
:10268000914201DA012100E0002108400028E4D154
:1026900060A8007D00282ED0002160A8007E1422B2
:1026A000504301AA821860A8007D115460A8007EE2
:1026B000401CC1B26691002165911CE0D64860A91A
:1026C000097F405C0D2805D0D34860A9097F405C94
:1026D0000A2800D11AE0D04A60A9097F525C60A99B
:1026E000087D411CCBB2659360A9097E1423594330
:1026F00001ABC9180A5460A8007F401CC1B26791A1
:1027000060A8007FC549097888429FDB00BF60A8A8
:10271000007E401CC1B2669160A8007E012808DAE4
:10272000BF4B2A22BFA12046FEF7FAFF002068B067
:1027300070BD01A9C6A0FDF72CFD002875D106A922
:10274000C4A0FDF726FD002815D1C4480078002854
:1027500006D1B34B1A22C2A12046FEF7E1FFF6E3F1
:10276000BE4800780128FAD1AD4B1922C3A12046FA
:10277000FEF7D6FFEBE306A9C7A0FDF70AFD002888
:102780000BD006A9C6A0FDF704FD002805D006A9B8
:10279000C5A0FDF7FEFC0028E1D160A8007E03285B
:1027A00007DA9F4B2A229FA12046FEF7B9FF00209F
:1027B000BDE702210BA8FFF785FDC0B2A02835D1E7
:1027C000A6480078002807D1954B1022B9A12046D1
:1027D000FEF7A6FF0020AAE7A0480078012825D12F
:1027E00006A9ADA0FDF7D5FC002803D10120FDF717
:1027F00037FD0CE006A9AAA0FDF7CBFC002803D109
:102800000220FDF72DFD02E00320FDF729FDAE4873
:10281000FFF780FA81490870814B084602787E49AB
:102820002046FEF77DFF002081E75CE08B480078C2
:10283000012807D17A4B3822A4A12046FEF770FF69
:10284000002074E70120A049087006A992A0FDF7B6
:10285000A0FC002803D101209B4948700CE006A988
:102860008FA0FDF796FC002803D1022096494870FE
:1028700002E003209449487002210BA8FFF722FDD3
:10288000C5B291492846FFF76DF9FF2807D1644B7F
:102890001D229DA12046FEF743FF002047E70120AF
:1028A00001F072F802210BA8FFF70CFD401CC5B225
:1028B00058492846FEF7BAFFFF2807D1584B1D227A
:1028C00091A12046FEF72CFF002030E75148FFF78A
:1028D00021FA52490870524B084602784E49204668
:1028E000FEF71EFF33E301A98FA0FDF752FC00287D
:1028F0006FD106A957A0FDF74CFC00286BD160A84A
:10290000007E032807DA464B2A2246A12046FEF71E
:1029100007FF00200BE785A10BA8FDF73AFC002874
:1029200028D14E480078012806D13D4B332281A1A1
:102930002046FEF7F5FE0AE30120484908708A4860
:102940008A4908604548007801280CD1344B0A2296
:1029500087A12046FEF7E4FE314B192247A120460D
:10296000FEF7DEFEF3E22E4B092284A12046FEF79D
:10297000D7FEECE284A10BA8FDF70BFC0028B1D137
:1029800036480078002806D1254B352280A1204604
:10299000FEF7C6FEDBE20020304908708A48734922
:1029A00008602E48007800280CD11D4B0A2270A127
:1029B0002046FEF7B5FE1A4B1A2229A12046FEF743
:1029C000AFFEC4E2164B09226CA12046FEF7A8FE1A
:1029D000BDE2B5E2FFE706A92FA0FDF7DAFB00286C
:1029E0000BD006A92EA0FDF7D4FB002805D006A920
:1029F0002DA0FDF7CEFB00289DD160A8007E052804
:102A000007DA074B2A2207A12046FEF789FE00209D
:102A10008DE6DBE04A0100203C00002001000020A0
:102A2000FFFF00000A436F6D6D616E642065727276
:102A30006F723A20706C6561736520636865636BC3
:102A40002074686520636F6D6D616E642E0A0000EE
:102A500067657400737461746500000002000020F3
:102A60000A52756E6E696E672073746174652069B1
:102A700073206D61737465722E0A00000A52756EC0
:102A80006E696E6720737461746520697320736C5E
:102A90006176652E0A000000647572610000000016
:102AA0006672657100000000647572615F66726530
:102AB000710000000A4D6173746572206E6F204CC6
:102AC00045442E0A000000003B0100200A536C61BF
:102AD0007665206E6F207065726D697373696F6EB5
:102AE0007320746F2072656164206F746865722052
:102AF00064657669636520696E666F726D6174697D
:102B00006F6E2E0A000000000A546865206275731B
:102B100020697320696E2061206275737920737457
:102B20006174652E0A00000073657400736C617631
:102B3000650000000A43616E2774206368616E6758
:102B40006520736C61766520746F20736C617665A7
:102B5000206F66207468652072756E6E696E6720DE
:102B600073746174652E0A003D3B00080400002068
:102B70000A537563636573732E0A00000A46616920
:102B80006C65642E0A0000006D617374657200004C
:102B90000A43616E2774206368616E6765206D610A
:102BA0007374657220746F206D6173746572206F29
:102BB00066207468652072756E6E696E6720737426
:102BC0006174652E0A000000593A000802210BA822
:102BD000FFF778FBC0B2A02871D1DE48007800284A
:102BE00007D1DD4B1022DD492046FEF799FD00207C
:102BF0009DE5D8480078012861D106A9D7481C383E
:102C0000FDF7C7FA002812D110A8FDF7BBFA064657
:102C1000314610A8FFF756FBC6B210A9087D00F098
:102C2000E9FE46433546284600F07CFF3DE006A914
:102C3000CA481438FDF7ADFA002812D110A8FDF7E4
:102C4000A1FA0646314610A8FFF73CFBC6B210A910
:102C5000087D00F0CFFE46433546284600F068FF69
:102C600023E010A8FDF78EFA0646314610A8FFF7BC
:102C700029FBC6B210A9087D00F0BCFE46433546CC
:102C8000284600F04FFF1AA8FDF77CFA06463146A9
:102C90001AA8FFF717FBC6B218A9087F00F0AAFE12
:102CA00046433546284600F043FFAB4B0A22AB496A
:102CB000BC312046FEF734FD002038E5FFE7A5488B
:102CC0000078012808D1A44B3822A44918312046A5
:102CD000FEF726FD00202AE506A9A0481C38FDF7CE
:102CE00058FA00285AD103209D49087001204870E5
:102CF00010A8FDF747FA0546294610A8FFF7E2FAA3
:102D00009749887010A8007DC8700BA8FDF73AFAA3
:102D1000064631460BA8FFF7D5FAC5B290492846BA
:102D2000FEF720FFFF2808D18B4B1D228B49543121
:102D30002046FEF7F5FCFF20F9E4012000F024FE18
:102D400002210BA8FFF7BEFA401CC5B285492846F0
:102D5000FEF76CFDFF2808D17F4B1D227F495431BF
:102D60002046FEF7DDFCFF20E1E400207D4988706D
:102D70007B48401CFDF70DFA002807D1764B0A224C
:102D80007649BC312046FEF7CBFCCCE0724B0922E1
:102D90007249C8312046FEF7C3FCC4E006A96F485B
:102DA0001438FDF7F6F9002859D103206C49087052
:102DB0000220487010A8FDF7E5F90546294610A83D
:102DC000FFF780FA6649887010A8007DC8700BA8CC
:102DD000FDF7D8F9064631460BA8FFF773FAC5B2DE
:102DE0005F492846FEF7BEFEFF2808D15A4B1D2238
:102DF0005A4954312046FEF793FCFF2097E4012006
:102E000000F0C2FD02210BA8FFF75CFA401CC5B21E
:102E100054492846FEF70AFDFF2808D14E4B1D22D3
:102E20004E4954312046FEF77BFCFF207FE44C499D
:102E3000491C4C48801CFDF7ACF9002807D1464BD3
:102E40000A224649BC312046FEF76AFC6BE0424B41
:102E500009224249C8312046FEF762FC63E00520A2
:102E60003F4908700320487010A8FDF78BF905460C
:102E7000294610A8FFF726FA3949887010A8007D66
:102E8000C8701AA8FDF77EF9054629461AA8FFF76B
:102E900019FA3349087118A8007F48710BA8FDF78B
:102EA00071F9064631460BA8FFF70CFAC5B22C495A
:102EB0002846FEF757FEFF2808D1274B1D22274939
:102EC00054312046FEF72CFCFF2030E4012000F0B6
:102ED0005BFD02210BA8FFF7F5F9401CC5B22149A3
:102EE0002846FEF7A3FCFF2808D11B4B1D221B49D7
:102EF00054312046FEF714FCFF2018E41949184805
:102F0000FDF747F9002807D1134B0A221349BC31BA
:102F10002046FEF705FC06E00F4B09220F49C83199
:102F20002046FEF7FDFB0F48FEF7F4FE0E49087041
:102F3000094B084602780D492046FEF7F1FB06E0F2
:102F4000054B2A22054990392046FEF7E9FB00206F
:102F50002EE4000002000020FFFF0000B42A000859
:102F60003B0100204A010020010000203C0000201D
:102F7000F8B504466020075B84200059222828D138
:102F80002068406A86B2A56D304638402880A06D22
:102F9000801CA0655E20005B401E81B25E20015354
:102FA000005B00281BD120680068FF212131884385
:102FB00021680860206880684008400021688860B7
:102FC0002021842001510020E0662046FEF758FBB6
:102FD00005E0206880690821084321688861F8BD00
:102FE000FEB504466020005B019084200059222831
:102FF00048D16820055B2BE02068406A80B20090D1
:10300000A76D0199009808403880A06D801CA065CC
:103010005E20005B401E81B25E200153005B0028F1
:1030200014D120680068FF210131884321680860BD
:103030002068806817490840216888602021842022
:1030400001510020E0662046FEF71AFB681E85B29B
:10305000002DD1D15E20065B002E19D06820005BC8
:10306000B04215DD20688068012109078843216886
:1030700088600948E06620680068202108432168CC
:10308000086005E02068806908210843216888619C
:10309000FEBD0000FEFFFFEF712F000870B5044673
:1030A0006020065B84200059222828D12068406ACD
:1030B00085B2F0B22840A16D0870A06D401CA065DB
:1030C0005E20005B401E81B25E200153005B002841
:1030D0001BD120680068FF212131884321680860E6
:1030E0002068806840084000216888602021842092
:1030F00001510020E0662046FEF7C2FA05E0206894
:103100008069082108432168886170BDF8B50446CC
:103110006020005B009084200059222847D168205D
:10312000055B2AE02068406A87B20098C0B2384048
:10313000A16D0870A06D401CA0655E20005B401E64
:1031400081B25E200153005B002814D12068006822
:10315000FF21013188432168086020688068174991
:103160000840216888602021842001510020E06609
:103170002046FEF785FA681E85B2002DD2D15E206A
:10318000065B002E19D06820005BB04215DD206878
:103190008068012109078843216888600848E06643
:1031A00020680068202108432168086005E0206845
:1031B00080690821084321688861F8BDFEFFFFEFA0
:1031C0009D300008F0B585B004460026002002902E
:1031D00001902169A068084361690843E1690843D7
:1031E0000490606E04990843049020680068F949CF
:1031F000084004990843216808602068406803215A
:1032000009038843E168084321684860A069049085
:10321000206A04990843049020688068EE490840B9
:1032200004990843216888602068C06A0009000189
:10323000616A08432168C86200BFE8492068884283
:1032400017D1E74840698007800F002806D0012881
:1032500008D0022804D0032808D105E0002507E0A3
:10326000022505E0042503E0082501E0102500BF44
:1032700028E0DC492068884217D1D94840690C21F0
:103280000840002806D0042808D0082804D00C28BC
:1032900008D105E0002507E0022505E0042503E04C
:1032A000082501E0102500BF0CE0CF4920688842C6
:1032B00001D1002506E0CD492068884201D10025D2
:1032C00000E0102500BF0121C903E069884270D1E8
:1032D000002D06D0022D53D0042D6BD0082D6AD1BD
:1032E000ECE0FDF74DFB0746606A002801D10120A4
:1032F00038E0606A012801D1022033E0606A0228C8
:1033000001D104202EE0606A032801D1062029E0C3
:10331000606A042801D1082024E0606A052801D1F0
:103320000A201FE0606A062801D10C201AE0606ABA
:10333000072801D1102015E0606A082801D120205B
:1033400010E0606A092801D140200BE0606A0A2879
:1033500001D1802006E0606A0B2802D1FF200130F5
:1033600000E0012001463846FCF7BEFE40006168DF
:103370004908401800906168FCF7B6FE86B2EDE09F
:10338000606A002801D101203BE0606A012801D178
:10339000022036E0606A022801D1042031E0606A30
:1033A000032801D106202CE0606A042804D10820FB
:1033B00027E0E9E033E0CEE0606A052801D10A2089
:1033C0001FE0606A062801D10C201AE0606A072815
:1033D00001D1102015E0606A082801D1202010E0FA
:1033E000606A092801D140200BE0606A0A2801D1F7
:1033F000802006E0606A0B2802D1FF20013000E047
:10340000012001467A48FCF76FFE400061684908D8
:10341000401800906168FCF767FE86B29EE0FDF7F9
:10342000C3FA0746606A002801D1012038E0606ACB
:10343000012801D1022033E0606A022801D1042072
:103440002EE0606A032801D1062029E0606A042882
:1034500001D1082024E0606A052801D10A201FE07C
:10346000606A062801D10C201AE0606A072801D1A1
:10347000102015E0606A082801D1202010E0606A61
:10348000092801D140200BE0606A0A2801D1802080
:1034900006E0606A0B2802D1FF20013000E0012025
:1034A00001463846FCF720FE400061684908401894
:1034B00000906168FCF718FE86B24FE0606A002851
:1034C00001D1012038E0606A012801D1022033E0F7
:1034D000606A022801D104202EE0606A032801D12D
:1034E000062029E0606A042801D1082024E0606AEF
:1034F000052801D10A201FE0606A062801D10C20AE
:103500001AE0606A072801D1102015E0606A0828D7
:1035100001D1202010E0606A092801D140200BE091
:10352000606A0A2801D1802006E0606A0B2802D177
:10353000FF20013000E0012001460120C003FCF71C
:10354000D3FD400061684908401800906168FCF7AD
:10355000CBFD86B202E00120029000BF00BF102E1A
:103560000FD3244886420CD822480F3830400390AD
:103570003007400F03990843039003982168C860FF
:1035800061E1012002905EE1002D06D0022D65D0A0
:10359000042D72D0082D71D1FBE0FDF7F1F907463B
:1035A000606A002801D101204BE0606A012801D146
:1035B000022046E0606A022801D1042041E0606AEE
:1035C000032801D106203CE0606A042814D10820B9
:1035D00037E00000F369FFCFFFF4FF11003801402E
:1035E000401002400044004000480040004C0040B1
:1035F0000024F400FFFF0000606A052801D10A20C2
:103600001FE0606A062801D10C201AE0606A0728D2
:1036100001D1102015E0606A082801D1202010E0B7
:10362000606A092801D140200BE0606A0A2801D1B4
:10363000802006E0606A0B2802D1FF20013000E004
:10364000012001463846FCF74FFD616849084018E3
:1036500000906168FCF748FD86B2E9E0606A0028E6
:1036600001D101203AE0606A012801D1022035E051
:10367000606A022803D1042030E03CE0D5E0606AB3
:10368000032801D1062029E0606A042801D108201E
:1036900024E0606A052801D10A201FE0606A06283C
:1036A00001D10C201AE0606A072801D1102015E032
:1036B000606A082801D1202010E0606A092801D141
:1036C00040200BE0606A0A2801D1802006E0606A91
:1036D0000B2802D1FF20013000E0012001465F48A5
:1036E000FCF702FD61684908401800906168FCF72A
:1036F000FBFC86B29CE0FDF757F90746606A00289C
:1037000001D1012038E0606A012801D1022033E0B4
:10371000606A022801D104202EE0606A032801D1EA
:10372000062029E0606A042801D1082024E0606AAC
:10373000052801D10A201FE0606A062801D10C206B
:103740001AE0606A072801D1102015E0606A082895
:1037500001D1202010E0606A092801D140200BE04F
:10376000606A0A2801D1802006E0606A0B2802D135
:10377000FF20013000E0012001463846FCF7B4FC90
:1037800061684908401800906168FCF7ADFC86B29A
:103790004EE0606A002801D1012038E0606A01280B
:1037A00001D1022033E0606A022801D104202EE01A
:1037B000606A032801D1062029E0606A042801D14B
:1037C000082024E0606A052801D10A201FE0606A11
:1037D000062801D10C201AE0606A072801D11020C8
:1037E00015E0606A082801D1202010E0606A0928ED
:1037F00001D140200BE0606A0A2801D1802006E058
:10380000606A0B2802D1FF20013000E00120014650
:103810000120C003FCF768FC61684908401800906B
:103820006168FCF761FC86B202E00120029000BFF3
:1038300000BF102E05D30A48864202D82068C66011
:1038400001E00120029001216A2001536820015308
:103850000020E0662067029805B0F0BD0024F40067
:10386000FFFF0000FFB581B004460D4617460A9ED3
:1038700024E0701C002821D0FCF7D0FE0499401AE7
:10388000B04201D8002E19D120680068FF21A13173
:1038900088432168086020688068400840002168EB
:1038A00088602021802001518420015100BF002127
:1038B0007C20015500BF032005B0F0BD2068C06921
:1038C0002840A84201D1012000E00020B842D0D019
:1038D0000020F1E710B50448FDF770FC0122034910
:1038E0000148FDF711FE10BD5C0100200000002022
:1038F00010B5002819DB1A4A03231B02D2188308CB
:103900009B00D2588307DC0EFF23A3409A438B070A
:103910001B0E8407E40EA3401A43114B0324240218
:103920001B198408A4001A5118E00E4A03071B0F44
:10393000083B9B089B00D2588307DC0EFF23A34063
:103940009A438B071B0E8407E40EA3401A43054BD2
:103950000407240F083CA408A4001A5110BD00005D
:1039600000E100E01CED00E002E008C8121F08C101
:10397000002AFAD170477047002001E001C1121FF0
:10398000002AFBD17047000010B5044602E004484D
:1039900000F008F82046641E0028F8D110BD000091
:1039A0008D03000008B581004118009100BF009907
:1039B0004A1E00920029FAD108BD000002200749E2
:1039C000087000200649087006490870064908700A
:1039D0000649087006490870704700001C00002066
:1039E0000C0000200E0000200D0000200F00002021
:1039F0001000002001466D2903D0732904D103482B
:103A000070477D20C000FBE77520F9E740420F00BA
:103A100010B510210448FCF7F1FD002801D1012068
:103A200010BD0020FCE7000000080050FCF708FE75
:103A3000FEF78AFCFEF79CFA012204490448FDF7D0
:103A400063FD02E0034800688047FBE700000020B8
:103A50005C0100200400002010B5FDF75BFFFDF7BE
:103A6000B1FF00BF024800780028FBD010BD000065
:103A70000200002070B52648447800253AE0E007AF
:103A8000C00F00280FD0E91C214B585CFFF7B2FF94
:103A9000A91C1F4B595C4843024600F043F86408D8
:103AA0006400022526E002202040022810D1E91CF3
:103AB000174B585CFFF79EFFA91C154B595C4843F8
:103AC000024600F035F8022120468843044611E002
:103AD000042C0FD10E488078002805D10D490870BC
:103AE0000D480E49086005E001200A4908700C489D
:103AF0000A490860002CC2D1054840788007800F31
:103B0000002803D002494878FCF7AAFB70BD0000EA
:103B10001D00002002000020593A00080400002087
:103B20003D3B000801490860704700001800002074
:103B300001490860704700001400002010B5FEF72E
:103B4000F1F9FEF7A5F8FEF761F8FFF793FF0FE034
:103B50000A480068002803D008480068FEF7D0F93A
:103B600007480068002803D005480068FFF71AFFDF
:103B7000044800780128EBD010BD00001800002098
:103B800014000020020000200000000000000000DF
:103B90000000000000000000000000000000000025
:103BA0000000000000000000010000000200000012
:103BB00003000000040000000600000007000000F1
:103BC00008000000090000000000000000000000E4
:103BD00000000000000000000100000002000000E2
:103BE0000300000004000000083C00080000002062
:103BF0003C00000068390008443C00083C000020FC
:103C0000AC05000078390008000001003D3B0008C9
:103C100000000000000000030000000000000000A1
:103C200000000000020503017301730000000000A2
:103C3000000000000000000004000000010000007F
:043C40000024F40068
:04000005080000B936
:00000001FF
