:020000040800F2
:10000000A8050020CD000008D51A000847180008F0
:1000100000000000000000000000000000000000E0
:10002000000000000000000000000000D91A0008D5
:100030000000000000000000D71A0008DB1A0008CA
:10004000DF00000800000000DF000008DF000008FB
:10005000DF000008DF000008DF000008DF00000804
:1000600000000000DF000008DF000008DF000008DB
:10007000DF000008DF000008DF00000800000000CB
:10008000DF000008DF000008DF000008DF000008D4
:10009000DF000008DF000008DF000008DF000008C4
:1000A000DF000008DF000008DF000008DF000008B4
:1000B000BD270008DF0000080348854600F050F81F
:1000C0000048004795290008A805002004488047FB
:1000D00004480047FEE7FEE7FEE7FEE7FEE7FEE72F
:1000E000791B0008B900000830B50B460146002016
:1000F0002022012409E00D46D5409D4205D31D462E
:100100009540491B2546954040191546521E002D25
:10011000F1DC30BD70B500242546002801DA012449
:100120004042002901DA01254942FFF7DDFFAC42D8
:1001300000D04042002C00D0494270BDD2B201E054
:100140000270401C491EFBD270470022F6E710B532
:1001500013460A4604461946FFF7F0FF204610BD35
:10016000064C0125064E05E0E36807CC2B430C3C0A
:1001700098471034B442F7D3FFF7A2FF302A0008A3
:10018000502A00087047000070B50446002500BFE3
:1001900000212420015500BF00BF005D012801D1CE
:1001A000022070BD01212420015500BF2520005DE3
:1001B000022803D00420E06301253AE020680068AB
:1001C0000E218843216808602068006840084000CC
:1001D00021680860606C0068FF2101318843616C10
:1001E0000860154840681C22216C114001228A4099
:1001F000104311494860A16CE06C4860206D0028F4
:1002000009D0206D0068FF2101318843216D08600D
:10021000616DA06D486001212520015500BF0021BE
:100220002420015500BFA06B002802D02046A16BFE
:1002300088472846B5E700000000024070B5034635
:100240000022D5E0012696400C683440002C71D085
:100250004D68022D02D04D68122D15D1D508AE0083
:100260001D462035A8595507EE0E0F25B540064608
:10027000AE4330465607F60E0D69B5402843D50803
:10028000AD001E4620367051186856000325B54053
:100290000646AE4330460D79AD07AD0F5600B5406A
:1002A000284318604D68012D08D04D68022D05D0F7
:1002B0004D68112D02D04D68122D18D19868560046
:1002C0000325B5400646AE4330465600CD68B540DE
:1002D000284398605868012595400646AE4330464D
:1002E00010264D6835402D09954028435860D86840
:1002F00056000325B5400646AE43304656008D688D
:10030000B5402843D860012636074D683540B542D0
:100310006DD13A4D9608B600A8599507EE0E0F25F7
:10032000B5400646AE43304605252D07AB4202D107
:10033000002510E05BE0324DAB4201D101250AE01F
:10034000304DAB4201D1022505E02F4DAB4201D12A
:10035000032500E005259607F60EB5402843274DF6
:100360009608B600A851254D203528680546A543B6
:100370002846012636044D683540B54202D105466F
:10038000254328461D4D2035286068680546A5434D
:100390002846012676044D683540B54202D105460F
:1003A00025432846154D20356860144D603D28686A
:1003B0000546A5432846012636054D683540B54219
:1003C00002D10546254328460C4D603D28606868EB
:1003D0000546A5432846012676054D683540B542B9
:1003E00002D1054625432846044D603D6860521CF5
:1003F0000D68D540002D00D024E770BD6018024084
:100400000004005000080050000C00500246136920
:100410000B40002B01D0012000E000207047002A93
:1004200001D0816100E081627047000001480068EE
:10043000704700000800002003480068034909686D
:100440004018014908607047080000201000002093
:1004500010B5002408480068FF210131084306490F
:100460000860002000F00AF8002801D0012401E013
:1004700000F034F8204610BD00200240F8B50446D4
:1004800000251348006800281ED0114801687D200F
:10049000C000FFF729FE074639460E480068FFF7FF
:1004A00023FE064600F0E2FD00280BD1042C07D203
:1004B00000222146401E00F045F80748046004E091
:1004C000012502E0012500E001252846F8BD0000D5
:1004D00010000020140000200C00002008B500BF10
:1004E00010480068012108430E490860084600686A
:1004F000C007C00F009000BF00BF00BF09484038D0
:10050000C06B8905084307494039C8630846C06B7A
:1005100009040840009000BF00BF0320400200F023
:1005200099FD08BD401002400146002905DBCB06BD
:10053000DB0E01229A40024B1A6000BF7047000098
:1005400000E100E070B504460D46164629462046F7
:1005500002F042F970BD000070B504461148006811
:1005600003214902884320430E490860481584420C
:1005700016D10D4909680622514308460B49FFF779
:10058000B3FD451C05E0002D01D06D1E01E00320E8
:1005900070BD044840690121890208408842F2D0B8
:1005A0000020F5E7007000401400002040420F00DA
:1005B000FEB504460027002002900121490420686E
:1005C000084088427BD1002001907748C06BC90267
:1005D000084000280ED100BF7348C06B0843724921
:1005E000C8630846C06B09040840009000BF00BF04
:1005F000012001906D480068FF21013108436B49DB
:100600000860FFF713FF064606E0FFF70FFF801BA9
:10061000022801D9032706E064480068FF21013160
:1006200008400028F1D000BF002F4BD15E48403079
:10063000C569032109020D40002D1AD0A069A84206
:1006400017D059484030C069884305465648403065
:10065000C06901210904084353494031C861084673
:10066000C0690121090488434F494031C8610846E7
:10067000C561E807C00F002813D0FFF7D7FE064674
:1006800007E0FFF7D3FE801B4949884201D90327C1
:1006900006E045484030C069022108400028F0D0FB
:1006A00000BF002F0CD140484030C069032109022F
:1006B0008843A16908433C494031C86103E00DE02B
:1006C000029700E002970198012806D13648C06BD6
:1006D0000121090788433449C86300BF2078C00757
:1006E000C00F002809D030484030406980088000A1
:1006F000616808432C494031486102212068084064
:10070000022809D12848403040690C218843A1685B
:10071000084325494031486140212068084040286D
:100720000AD1214840304069032109038843E16828
:1007300008431D4940314861012189032068084070
:10074000884213D1184840304069800080086169B0
:10075000084315494031486109066069884205D15E
:100760001148C068891308430F49C8600121C902B4
:1007700020680840884215D10B4840304069032169
:1007800089038843216908430749403148610121B1
:1007900089032069884205D10348C068890008435D
:1007A0000149C8600298FEBD001002400070004080
:1007B0008813000070B504460D46002C01D10120BD
:1007C00070BD6B4800684007400FA84218D26848C7
:1007D0000068C008C000284365490860FFF726FE8E
:1007E000064607E0FFF722FE801B6249884201D9D6
:1007F0000320E5E75E4800684007400FA842F1D1BA
:10080000022120680840022815D1042120680840F0
:10081000042807D1584880680721090388434018F5
:1008200055498860544880680F2109028843A168AF
:100830000843514988602078C007C00F002854D071
:100840006068012808D14C4800680121490408402B
:1008500000282ED10120B3E76068022808D146485D
:100860000068012149060840002822D10120A7E79D
:100870006068002808D140480068012189020840CA
:10088000002816D101209BE76068032808D13A4868
:100890004030006A0221084000280AD101208FE779
:1008A00035484030C06902210840002801D10120AC
:1008B00086E731488068C008C000616808432E4957
:1008C0008860FFF7B3FD064607E0FFF7AFFD801B2A
:1008D0002849884201D9032072E7274880683821D7
:1008E00008406168C9008842EFD12148006840078C
:1008F000400FA84218D91E480068C008C00028430D
:100900001B490860FFF792FD064607E0FFF78EFDE2
:10091000801B1849884201D9032051E71448006818
:100920004007400FA842F1D1042120680840042864
:1009300008D111488068072109038843E16808430A
:100940000D49886000F03AF80B4989680F221202BD
:100950001140090A8900094A515CC906C90EC840FC
:100960000749086007480068FFF788FD28E700008E
:10097000002002408813000000100240D029000827
:10098000140000200C00002001480068704700009F
:100990001400002000B5FFF7F7FF06498968072219
:1009A00012031140090B8900034A515CC906C90EA4
:1009B000C84000BD00100240102A0008FEB53548AE
:1009C00080683821084000280DD1324800680902AB
:1009D0000840C10A0120884000902F480099FFF785
:1009E00083FB044654E02B488068382108400828DF
:1009F00001D12A4C4CE02748806838210840102853
:100A000034D12448C0688607B60F2248C0687021D8
:100A100008400009401C0190022E0FD0032E0CD17B
:100A20001E480199FFF760FB1A49C9687F2212022C
:100A30001140090A484305460DE000BF16480199D8
:100A4000FFF752FB1349C9687F2212021140090ABD
:100A50004843054600BF00BF0E48C068400F471C12
:100A600039462846FFF740FB044611E009488068F4
:100A700038210840202801D1840209E00548806817
:100A800038210840182802D17D24240200E00024E7
:100A90002046FEBD001002400024F40000127A003F
:100AA000FEB50446002C01D10120FEBD2078C00710
:100AB000C00F00286FD0F748876838210F40C06802
:100AC0008607B60F102F01D1032E01D0082F0BD1AE
:100AD000F048006801214904084000285BD06068A4
:100AE000002858D10120E0E700BF01210904606817
:100AF000884205D1E74800680843E649086021E0DC
:100B000005210904606888420ED1E248006801218D
:100B100089040843DF490860084600680121090488
:100B20000843DC4908600DE0DA4800680121090447
:100B30008843D84908600846006801218904884331
:100B4000D449086000BF6068002812D0FFF76EFC2F
:100B5000054606E0FFF76AFC401B642801D9032024
:100B6000A3E7CC4800680121490408400028F1D0DF
:100B700011E0FFF75BFC054606E0FFF757FC401B62
:100B8000642801D9032090E7C24800680121490484
:100B900008400028F1D1022120680840022873D1C2
:100BA000BC488068382108400746BA48C0688607B4
:100BB000B60F102F01D1022E01D0002F36D1B5482B
:100BC0000068012189020840002804D0E06800285C
:100BD00001D1012069E7AF4840687F2109028843BD
:100BE000616909020843AB494860002F16D10846E5
:100BF00000680721C902884321690843A5490860A4
:100C0000084600680722D2021040C20A0120904024
:100C10000146A148FFF768FAA0490860A0480068AB
:100C2000FFF72CFC002849D001203EE7E0680028AF
:100C30002BD0984800680721C902884321690843DE
:100C4000944908600846006889150843914908607E
:100C5000FFF7ECFB054606E0FFF7E8FB401B022828
:100C600001D9032021E78B4800680121890208404F
:100C70000028F1D0874840687F21090288436169D4
:100C8000090208438349486018E082480068FF2150
:100C9000013188437F490860FFF7C8FB054606E03D
:100CA000FFF7C4FB401B022801D90320FDE6794869
:100CB00000680121890208400028F1D1082120683C
:100CC0000840082849D1734880683821084018280E
:100CD0000BD170484030006A0221084000283CD007
:100CE000A069002839D10120DFE6A06900281AD0C8
:100CF00068484030006A0121084366494031086273
:100D0000FFF794FB054606E0FFF790FB401B022827
:100D100001D90320C9E65F484030006A022108403B
:100D20000028F1D019E05B484030006A40084000DC
:100D3000584940310862FFF779FB054606E0FFF7A6
:100D400075FB401B022801D90320AEE65148403014
:100D5000006A022108400028F1D1042120680840DF
:100D600004287CD1002001904A488068382108403E
:100D700020280BD147484030C06902210840002894
:100D80006ED0A06800286BD101208EE64148C06B70
:100D9000010F01208843002810D000BF3D48C06BE0
:100DA0000121090708433B49C8630846C06B090491
:100DB0000840009000BF00BF012001903948006842
:100DC000FF2101310840002816D136480068084349
:100DD00034490860FFF72AFB054606E0FFF726FBCB
:100DE000401B022801D903205FE62E480068FF213E
:100DF000013108400028F1D000BFA068012808D1C7
:100E000024484030C0690121084322494031C8616B
:100E100020E0A06805280FD11E484030C069042199
:100E200008431C494031C8610846C0690121084394
:100E300018494031C8610DE016484030C06941088A
:100E4000490014484030C161C069042188431149F8
:100E50004031C86100BFA068002816D001E040E022
:100E60003EE0FFF7E3FA054607E0FFF7DFFA401B35
:100E70000D49884201D9032017E606484030C06971
:100E8000022108400028F0D01EE0FFF7CFFA054607
:100E900014E00000001002400024F40014000020C0
:100EA0000C0000200070004088130000FFF7BEFA1D
:100EB000401B6449884201D90320F6E56248C069B5
:100EC000022108400028F1D10198012808D15E488C
:100ED0004038C06B0121090788435B494039C8632A
:100EE00000BFE06900285AD0574840388068382150
:100EF000084010287ED0E069022851D1524840387D
:100F000000680121090688434F4940390860FFF70E
:100F10008DFA054606E0FFF789FA401B022801D941
:100F20000320C2E5484840380068012149060840CE
:100F30000028F0D1616A206A0843A16A09020843C7
:100F4000E16A0843216B08433F494039C9683F4A79
:100F5000114008433C494039C860084600680121F7
:100F6000090608433849403908600846C068090442
:100F7000084335494039C860FFF758FA054606E08E
:100F8000FFF754FA401B022801D903208DE52E48B3
:100F9000403800680121490608400028F0D04EE0A2
:100FA000294840380068012109068843264940390C
:100FB00008600846C06880088000C8600846C068AD
:100FC0002349084020494039C860FFF72FFA0546F9
:100FD00007E0FFF72BFA401B022802D9032064E543
:100FE00008E01948403800680121490608400028F7
:100FF000EFD124E0E069012800D156E512484038DD
:10100000C668B107890F206A814216D1702030402E
:10101000616A884211D17F2000023040A16A090232
:1010200088420AD11F2040043040E16A884204D13E
:10103000710F4907206B814201D0012035E5002066
:1010400033E5000088130000401002408C80C11F6F
:10105000FFFFFEEF04490968032252029143014356
:10106000014A1160704700000000014070B504465D
:101070002546681E0949884201D901200CE0681EF6
:10108000074948610321081F01F0A6FB002004491D
:10109000886107200861002070BD0000FFFFFF008D
:1010A00000E000E0014600BF7C20405C012801D147
:1010B0000220704701237C20435400BF242380205A
:1010C00043500868026808680068400840000B68E0
:1010D000186001235B0710469843024600204866CB
:1010E0000868026020238020435000BF00237C203A
:1010F000435400BF0020DCE7704770B504460D463E
:1011000000BF7C20005D012801D1022070BD0121BB
:101110007C20015500BF24218020015120680668F1
:1011200020680068400840002168086020688068E6
:10113000072149068843284321688860204600F03B
:1011400023FD2068066020218020015100BF00217E
:101150007C20015500BF0020D8E770B504460D463D
:1011600000BF7C20005D012801D1022070BD01215B
:101170007C20015500BF2421802001512068066891
:101180002068006840084000216808602068806886
:10119000C000C008284321688860204600F0F4FCA5
:1011A0002068066020218020015100BF00217C20A2
:1011B000015500BF0020D9E77047704770470146CE
:1011C000802042588420435810461843704700003E
:1011D000FEB504462068C5692068066820688768EF
:1011E0002807000F01900198002813D120202840E3
:1011F00000280FD020203040002804D10120000713
:101200003840002806D0E06E002802D02046E16E6B
:101210008847FEBD019800287ED07A4838400028D3
:1012200004D1FF20213030400028F5D0E807C00F5E
:1012300000280DD0FF2001303040002808D00120C8
:10124000216808628820005901210843882108513B
:101250000220284000280CD0F807C00F002808D032
:10126000022021680862882000590421084388214F
:1012700008510420284000280CD0F807C00F00288F
:1012800008D0042021680862882000590221084300
:101290008821085108202840002810D02020304004
:1012A000002803D157483840002808D0082021687A
:1012B00008628820005908210843882108518820A5
:1012C000005900284DD02020284000280ED0202092
:1012D0003040002804D1012000073840002805D004
:1012E000E06E002802D02046E16E88478820005931
:1012F00000902068806840210840402804D00821E0
:1013000000980840002826D0204600F03DFD2068C7
:1013100080684021084000E024E0402817D1206880
:101320008068884321688860A06F00280BD0364809
:10133000A16F8863A06FFEF727FF002811D0A06F70
:10134000816B88470DE02046FFF738FF09E0204613
:10135000FFF734FF05E02046FFF730FF002188202B
:10136000015156E701200005284000280CD001203B
:1013700080053840002807D0012000052168086258
:101380002046FFF71AFF44E78020284000280FD0AE
:1013900080203040002804D10120C00538400028BA
:1013A00006D0206F002802D02046216F884730E702
:1013B00040202840002807D040203040002803D09B
:1013C000204600F0F7FC24E70120C0052840002853
:1013D00008D0012080073040002803D02046FFF7C6
:1013E000EBFE16E7012000062840002807D0F00F8A
:1013F000C007002803D02046FFF77EFE09E700BFA4
:1014000007E7000001000010711D000810B5044638
:10141000002C01D1012010BDA069002800D000E0FF
:1014200000BF80200059002805D100217C200155F3
:10143000204600F02DF8242180200151206800680A
:101440004008400021680860204600F02FFE012877
:1014500000D1E0E7A06A002802D0204600F0D6FBC9
:10146000206840680921C9028843216848602068D3
:1014700080682A21884321688860206800680121EB
:10148000084321680860204600F038FCC3E70000EC
:1014900010B586B00446142101A8FEF756FE1D497A
:1014A0002068884233D100BF1B48C06B012149042A
:1014B00008431949C8630846C06B01214904084024
:1014C000009000BF00BF00BF1348406B01210843DC
:1014D000114948630846406BC007C00F009000BF29
:1014E00000BF0C2001900220029000200390049085
:1014F0000120059001A905200007FEF79FFE0022AC
:1015000011461C20FFF71EF81C20FFF70DF806B04F
:1015100010BD0000004400400010024010B503461A
:101520008420C058202876D1002901D0002A01D17A
:10153000012010BD012424039868A04208D1186935
:10154000002805D1C807C00F002801D00120F0E70E
:1015500000BF7C20C05C012801D10220E9E7012402
:101560007C20C45400BF99655C20C2525E20C252E8
:101570000020D86600BF24039868A0420AD11869E9
:10158000002803D13E4C6020C45224E0FF24602098
:10159000C45220E0986800280AD11869002803D1B5
:1015A000FF246020C45216E07F246020C45212E061
:1015B000012424079868A0420AD11869002803D1A1
:1015C0007F246020C45206E03F246020C45202E021
:1015D00000246020C45200BF00248820C45022246C
:1015E0008420C45018688068012420431C68A060CF
:1015F00001246407586EA04224D16820C05A90424A
:1016000020DC64149868A04206D11869002803D130
:101610001C48D86602E030E01B48D86600BF0024B2
:101620007C20C45400BF18680068FF2401342043A4
:101630001C682060186880680124240720431C6807
:10164000A06018E0012424039868A04205D118691D
:10165000002802D10D48D86601E00D48D86600BFC9
:1016600000247C20C45400BF18680068FF24213483
:1016700020431C68206000205BE7022059E700003F
:10168000FF010000C91E0008F51F0008591E0008D0
:10169000851F000810B5044621480078FF280DDB9F
:1016A00000201F490870FF211E48FEF74EFD1E4B0B
:1016B0000A221EA1204600F041F830E01D480178C2
:1016C000174802780078401C154B18701548815453
:1016D0000078E02823D118460078401E1149085CA4
:1016E000E1281CD100BF2046FFF769FD2128FAD070
:1016F0000B480078801EC1B206230F4A0948401CDF
:1017000000F069FB084B04220B49204600F016F854
:10171000002003490870FF210248FEF716FD10BDA6
:101720000100002018000020FFFF0000464646464A
:10173000464600000000002002000020FFB583B0F4
:1017400004460D46174680200059202878D1002DE8
:1017500001D0002F02D1012007B0F0BD0121090303
:10176000A068884208D12069002805D1E807C00F89
:10177000002801D00120EFE700BF7C20005D012898
:1017800001D10220E8E701217C20015500BF0021A2
:1017900088200151212180200151FEF747FE019050
:1017A000542007535620075301210903A06888429B
:1017B00005D12069002802D10026029502E02E46BC
:1017C0000020029021E0069800900022802120460F
:1017D000019B00F0BBFF002801D00320BCE7002ED6
:1017E00009D102980088C005C00D2168886202985E
:1017F000801C029003E0307821688862761C5620B5
:10180000005B401E81B2562001535620005B002829
:10181000D9D106980090002240212046019B00F07B
:1018200095FF002801D0032096E720218020015158
:1018300000BF00217C20015500BF00208CE7FFE79E
:10184000022089E7704700BFFEE7000000B587B0BF
:10185000142102A8FEF779FC00BF1848406B042150
:101860000843164948630846406B0421084001902C
:1018700000BF00BF102002901120039000200490B0
:101880000320059002A90E48FEF7D8FC0122102182
:101890000B48FEF7C4FD2020029011200390002089
:1018A00004900320059002A90548FEF7C7FC012219
:1018B00020210348FEF7B3FD07B000BD0010024031
:1018C00000080050F7B50E4614463746002501F0D3
:1018D00019F8009800F04AF801F040F800280FD1FC
:1018E0000BE000F011F829466D1C7854A54202D196
:1018F00000F0F2FF03E000F0D5FFA542F1D300BFF6
:1019000001F014F80020FEBD1CB5002100910191EA
:1019100022E02020144988620C2000F0B7FF6946BD
:1019200008784006000E009020200F4988610122AF
:1019300010210D48FEF773FD0C2000F0A7FF1021C9
:101940000948FEF763FD6946097808430090694637
:101950000879401CC0B20190684600790828D8DB9D
:10196000684600781CBD00000008005038B50446E9
:1019700000210091009121E02020134988620C2071
:1019800000F084FF80202040002805D00122102193
:101990000D48FEF744FD04E0002210210A48FEF73E
:1019A0003EFD2020084988610C2000F06FFF600692
:1019B000040E68460078401CC1B200916846007869
:1019C0000828D9DB38BD000000080050F7B50C46E8
:1019D00015462746002600F095FF0098FFF7C6FF42
:1019E0000AE000F0BBFF002805D13146761C785C88
:1019F000FFF7BCFF00E001E0AE42F2D300BF00F011
:101A000095FF0020FEBD000000B587B0142102A89C
:101A1000FEF79BFB00BF1148406B012108430F49B3
:101A200048630846406BC007C00F019000BF00BF6D
:101A30000022202105200007FEF7F1FC2020029063
:101A400001200390002004900220059002A90520A7
:101A50000007FEF7F3FB07B000BD000000100240D6
:101A600010B51A481A490860E12040024860002178
:101A700017488160C16001610C21416100218161D1
:101A8000C161016241620020114988620846FFF786
:101A9000BDFC002801D0FEF775FB00210C48FFF7C4
:101AA0005CFB002801D0FEF76DFB00210848FFF722
:101AB00024FB002801D0FEF765FB0548FFF7F2FA8A
:101AC000002801D0FEF75EFB10BD0000004400407E
:101AD0001801002070477047704710B5FEF7ACFC46
:101AE00010BD00B599B034210CA8FEF72EFB0020E4
:101AF000089009900A900B901C2101A8FEF725FB85
:101B000001204002FEF728FD02200C90C0010F903A
:101B10000020109040201190022013900221149177
:101B200000211591082116910104179101071891C0
:101B30000CA8FEF7B5FF002801D0FEF723FB072015
:101B400008900220099000200A900B90022108A81A
:101B5000FEF730FE002801D0FEF714FB02200190B2
:101B60000020039001A8FEF723FD002801D0FEF716
:101B700009FB19B000BD00000120C00601498860C2
:101B80007047000000ED00E0F0B585B004461BA1F1
:101B900003C9039102901BA103C901910090606EDB
:101BA000002805D101216A2001536820015322E059
:101BB0000827082204922068806807214906084007
:101BC000450E20688068460F6A46915D02AA935DC3
:101BD000049A53431846FEF79DFA81B26A200153D6
:101BE0006A46515D02AA525D7A431046FEF792FAA8
:101BF00081B26820015305B0F0BD0000010101036E
:101C0000070100000804020408010101018DC90751
:101C1000C90F002908D00168496801225204914384
:101C2000C26A1143026851600222816A114002298E
:101C300007D101684968D2039143026B11430268DE
:101C400051600422816A1140042907D10168496862
:101C500012049143426B1143026851600822816A69
:101C60001140082907D10168496812039143826B2A
:101C70001143026851601022816A1140102907D176
:101C80000168896812029143C26B11430268916036
:101C90002022816A1140202907D101688968120237
:101CA0009143026C1143026891604022816A1140A5
:101CB000402915D10168496892039143426C114350
:101CC0000268516001221205416C914208D10168FD
:101CD0004968032252059143826C114302685160A6
:101CE0008022816A1140802907D101684968120366
:101CF0009143C26C114302685160704738B5044685
:101D0000002188200151FEF791FB054620680068FC
:101D10000821084008280BD114482B4600228904CA
:101D20000090204600F012FD002801D0032038BDAD
:101D3000206800680421084004280BD10B482B467A
:101D4000002209050090204600F000FD002801D087
:101D50000320ECE72021802001518420015100BFA5
:101D600000217C20015500BF0020E0E7FFFFFF01BC
:101D700070B50546AC6A00215E2001535620015320
:101D80002046FFF71BFA70BD01680968FF22213267
:101D900091430268116001688968054A1140026830
:101DA0009160202284210A500021C1667047000002
:101DB000FEFFFFEF10B5044620680068402188430D
:101DC00021680860202180200151002020672046E2
:101DD000FFF738FD10BDFEB505460E4617462C46EA
:101DE000019600210091A078FF2805D1684600796E
:101DF000072801D00020FEBDA078F02802D0A078EE
:101E00000F2805D168460079052801D00020F2E7A7
:101E10002078002805D105223946A120FFF752FD80
:101E200018E02078FF2813D1A178FF2901D10521DE
:101E300000E003210A466078A11CFFF7C7FD0120DE
:101E400000F016FD04223946A120FFF73BFD01E01A
:101E50000020D0E700BFCEE7F8B504466020075B5E
:101E600084200059222828D12068406A86B2A56DB6
:101E7000304638402880A06D801CA0655E20005B45
:101E8000401E81B25E200153005B00281BD12068F8
:101E90000068FF212131884321680860206880683C
:101EA00040084000216888602021842001510020E2
:101EB000E0662046FFF7EEFB05E020688069082118
:101EC000084321688861F8BDFEB504466020005BC8
:101ED000019084200059222848D16820055B2BE01E
:101EE0002068406A80B20090A76D01990098084070
:101EF0003880A06D801CA0655E20005B401E81B212
:101F00005E200153005B002814D120680068FF2187
:101F100001318843216808602068806817490840BB
:101F2000216888602021842001510020E06620463D
:101F3000FFF7B0FB681E85B2002DD1D15E20065B95
:101F4000002E19D06820005BB04215DD2068806843
:101F5000012109078843216888600948E0662068F4
:101F60000068202108432168086005E02068806936
:101F70000821084321688861FEBD0000FEFFFFEFD5
:101F8000591E000870B504466020065B8420005985
:101F9000222828D12068406A85B2F0B22840A16D7D
:101FA0000870A06D401CA0655E20005B401E81B2E1
:101FB0005E200153005B00281BD120680068FF21D0
:101FC000213188432168086020688068400840000B
:101FD000216888602021842001510020E06620468D
:101FE000FFF758FB05E02068806908210843216855
:101FF000886170BDF8B504466020005B00908420C5
:102000000059222847D16820055B2AE02068406AF1
:1020100087B20098C0B23840A16D0870A06D401C16
:10202000A0655E20005B401E81B25E200153005B14
:10203000002814D120680068FF21013188432168FD
:10204000086020688068174908402168886020215E
:10205000842001510020E0662046FFF71BFB681E2C
:1020600085B2002DD2D15E20065B002E19D06820EB
:10207000005BB04215DD20688068012109078843B4
:10208000216888600848E0662068006820210843CD
:102090002168086005E020688069082108432168FC
:1020A0008861F8BDFEFFFFEF851F0008F0B585B021
:1020B000044600260020029001902169A068084390
:1020C00061690843E16908430490606E049908431C
:1020D000049020680068F949084004990843216881
:1020E000086020684068032109038843E1680843C9
:1020F00021684860A0690490206A0499084304900C
:1021000020688068EE490840049908432168886087
:102110002068C06A00090001616A08432168C8623A
:1021200000BFE8492068884217D1E7484069800726
:10213000800F002806D0012808D0022804D00328E8
:1021400008D105E0002507E0022505E0042503E0AD
:10215000082501E0102500BF28E0DC4920688842FE
:1021600017D1D94840690C210840002806D004281E
:1021700008D0082804D00C2808D105E0002507E085
:10218000022505E0042503E0082501E0102500BF35
:102190000CE0CF492068884201D1002506E0CD49F6
:1021A0002068884201D1002500E0102500BF0121F0
:1021B000C903E069884270D1002D06D0022D53D0AA
:1021C000042D6BD0082D6AD1ECE0FEF7E3FB074647
:1021D000606A002801D1012038E0606A012801D13D
:1021E000022033E0606A022801D104202EE0606AF8
:1021F000032801D1062029E0606A042801D10820C3
:1022000024E0606A052801D10A201FE0606A0628E0
:1022100001D10C201AE0606A072801D1102015E0D6
:10222000606A082801D1202010E0606A092801D1E5
:1022300040200BE0606A0A2801D1802006E0606A35
:102240000B2802D1FF20013000E001200146384672
:10225000FDF74AFF40006168490840180090616836
:10226000FDF742FF86B2EDE0606A002801D101204F
:102270003BE0606A012801D1022036E0606A022852
:1022800001D1042031E0606A032801D106202CE04E
:10229000606A042804D1082027E0E9E033E0CEE0BA
:1022A000606A052801D10A201FE0606A062801D172
:1022B0000C201AE0606A072801D1102015E0606A3E
:1022C000082801D1202010E0606A092801D14020AF
:1022D0000BE0606A0A2801D1802006E0606A0B28C2
:1022E00002D1FF20013000E0012001467A48FDF7CD
:1022F000FBFE400061684908401800906168FDF7E6
:10230000F3FE86B29EE0FEF759FB0746606A00289E
:1023100001D1012038E0606A012801D1022033E0B8
:10232000606A022801D104202EE0606A032801D1EE
:10233000062029E0606A042801D1082024E0606AB0
:10234000052801D10A201FE0606A062801D10C206F
:102350001AE0606A072801D1102015E0606A082899
:1023600001D1202010E0606A092801D140200BE053
:10237000606A0A2801D1802006E0606A0B2802D139
:10238000FF20013000E0012001463846FDF7ACFE99
:10239000400061684908401800906168FDF7A4FE9C
:1023A00086B24FE0606A002801D1012038E0606AFF
:1023B000012801D1022033E0606A022801D1042003
:1023C0002EE0606A032801D1062029E0606A042813
:1023D00001D1082024E0606A052801D10A201FE00D
:1023E000606A062801D10C201AE0606A072801D132
:1023F000102015E0606A082801D1202010E0606AF2
:10240000092801D140200BE0606A0A2801D1802010
:1024100006E0606A0B2802D1FF20013000E00120B5
:1024200001460120C003FDF75FFE400061684908D6
:10243000401800906168FDF757FE86B202E0012067
:10244000029000BF00BF102E0FD3244886420CD844
:1024500022480F38304003903007400F039908435B
:10246000039003982168C86061E1012002905EE159
:10247000002D06D0022D65D0042D72D0082D71D10B
:10248000FBE0FEF787FA0746606A002801D10120C9
:102490004BE0606A012801D1022046E0606A022810
:1024A00001D1042041E0606A032801D106203CE00C
:1024B000606A042814D1082037E00000F369FFCFD8
:1024C000FFF4FF110038014040100240004400407A
:1024D00000480040004C00400024F400FFFF0000D2
:1024E000606A052801D10A201FE0606A062801D130
:1024F0000C201AE0606A072801D1102015E0606AFC
:10250000082801D1202010E0606A092801D140206C
:102510000BE0606A0A2801D1802006E0606A0B287F
:1025200002D1FF20013000E0012001463846FDF7CE
:10253000DBFD61684908401800906168FDF7D4FD33
:1025400086B2E9E0606A002801D101203AE0606AC1
:10255000012801D1022035E0606A022803D104205D
:1025600030E03CE0D5E0606A032801D1062029E094
:10257000606A042801D1082024E0606A052801D19E
:102580000A201FE0606A062801D10C201AE0606A68
:10259000072801D1102015E0606A082801D1202009
:1025A00010E0606A092801D140200BE0606A0A2827
:1025B00001D1802006E0606A0B2802D1FF200130A3
:1025C00000E0012001465F48FDF78EFD6168490883
:1025D000401800906168FDF787FD86B29CE0FEF729
:1025E000EDF90746606A002801D1012038E0606AF1
:1025F000012801D1022033E0606A022801D10420C1
:102600002EE0606A032801D1062029E0606A0428D0
:1026100001D1082024E0606A052801D10A201FE0CA
:10262000606A062801D10C201AE0606A072801D1EF
:10263000102015E0606A082801D1202010E0606AAF
:10264000092801D140200BE0606A0A2801D18020CE
:1026500006E0606A0B2802D1FF20013000E0012073
:1026600001463846FDF740FD616849084018009072
:102670006168FDF739FD86B24EE0606A002801D13D
:10268000012038E0606A012801D1022033E0606A4D
:10269000022801D104202EE0606A032801D106201F
:1026A00029E0606A042801D1082024E0606A052836
:1026B00001D10A201FE0606A062801D10C201AE02F
:1026C000606A072801D1102015E0606A082801D14E
:1026D000202010E0606A092801D140200BE0606AE8
:1026E0000A2801D1802006E0606A0B2802D1FF2071
:1026F000013000E0012001460120C003FDF7F4FC99
:1027000061684908401800906168FDF7EDFC86B2E9
:1027100002E00120029000BF00BF102E05D30A483E
:10272000864202D82068C66001E0012002900121A3
:102730006A200153682001530020E0662067029858
:1027400005B0F0BD0024F400FFFF0000FFB581B02C
:1027500004460D4617460A9E24E0701C002821D02E
:10276000FDF764FE0499401AB04201D8002E19D139
:1027700020680068FF21A131884321680860206833
:102780008068400840002168886020218020015135
:102790008420015100BF00217C20015500BF03208F
:1027A00005B0F0BD2068C0692840A84201D10120D1
:1027B00000E00020B842D0D00020F1E710B5044876
:1027C000FEF706FD012203490148FEF7A7FE10BDF2
:1027D000180100200000002010B5002819DB1A4A5B
:1027E00003231B02D21883089B00D2588307DC0EF8
:1027F000FF23A3409A438B071B0E8407E40EA340DC
:102800001A43114B032424021B198408A4001A51F3
:1028100018E00E4A03071B0F083B9B089B00D25889
:102820008307DC0EFF23A3409A438B071B0E84070C
:10283000E40EA3401A43054B0407240F083CA408E8
:10284000A4001A5110BD000000E100E01CED00E002
:1028500002E008C8121F08C1002AFAD17047704769
:10286000002001E001C1121F002AFBD170470000C7
:1028700010B5044602E0044800F008F82046641E43
:102880000028F8D110BD00008D03000008B58100BC
:102890004118009100BF00994A1E00920029FAD108
:1028A00008BD000010B520200A4988620C20FFF7FF
:1028B000EDFF202007498861002210210548FDF71F
:1028C000AEFD0C20FFF7E2FF012210210148FDF7C9
:1028D000A6FD10BD0008005010B5202008498862F0
:1028E0000C20FFF7D3FF012210210548FDF797FDCB
:1028F0002020034988610C20FFF7C8FF10BD0000AD
:102900000008005010B520200749886101221021DD
:102910000548FDF784FD0C20FFF7B8FF00221021C9
:102920000148FDF77CFD10BD0008005010B52020C7
:1029300009498862002210210748FDF770FD0C202C
:10294000FFF7A4FF202004498861012210210248DA
:10295000FDF765FD10BD00000008005010B52020F7
:102960000B4988620C20FFF791FF012210210848D3
:10297000FDF755FD2020064988610C20FFF786FFF2
:1029800010210348FDF742FD0446204610BD00001B
:10299000000800501CB50AA103C901910090FDF781
:1029A00057FDFFF79EF8FFF72FF8FFF759F8FEF7EE
:1029B0004DFF012204490548FEF7B0FD00BFFEE7C8
:1029C000000102030405000000000020180100209F
:1029D00000000000000000000000000000000000F7
:1029E00000000000000000000000000000000000E7
:1029F00001000000020000000300000004000000CD
:102A000006000000070000000800000009000000A8
:102A100000000000000000000000000000000000B6
:102A2000010000000200000003000000040000009C
:102A3000502A00080000002018000000502800085C
:102A4000682A00081800002090050000602800088F
:102A50000000000000000000000000000400000072
:082A6000010000000024F40055
:04000005080000B936
:00000001FF
