:020000040800F2
:10000000A0040020CD0000082D140008E511000810
:1000100000000000000000000000000000000000E0
:100020000000000000000000000000003114000883
:1000300000000000000000002F1400083314000826
:10004000DF00000800000000DF000008DF000008FB
:10005000DF000008DF000008DF000008DF00000804
:1000600000000000DF000008DF000008DF000008DB
:10007000DF000008DF000008DF00000800000000CB
:10008000DF000008DF000008DF000008DF000008D4
:10009000DF000008DF000008DF000008DF000008C4
:1000A000DF000008DF000008DF000008DF000008B4
:1000B000DF000008DF0000080348854600F050F824
:1000C00000480047211F0008A00400200448804782
:1000D00004480047FEE7FEE7FEE7FEE7FEE7FEE72F
:1000E000D1140008B900000830B50B4601460020C5
:1000F0002022012409E00D46D5409D4205D31D462E
:100100009540491B2546954040191546521E002D25
:10011000F1DC30BD70B500242546002801DA012449
:100120004042002901DA01254942FFF7DDFFAC42D8
:1001300000D04042002C00D0494270BDD2B201E054
:100140000270401C491EFBD270470022F6E710B532
:1001500013460A4604461946FFF7F0FF204610BD35
:10016000064C0125064E05E0E36807CC2B430C3C0A
:1001700098471034B442F7D3FFF7A2FFB41F00082A
:10018000D41F00087047000070B503460022D5E078
:10019000012696400C683440002C71D04D68022D29
:1001A00002D04D68122D15D1D508AE001D46203560
:1001B000A8595507EE0E0F25B5400646AE4330460A
:1001C0005607F60E0D69B5402843D508AD001E460A
:1001D00020367051186856000325B5400646AE43D8
:1001E00030460D79AD07AD0F5600B5402843186075
:1001F0004D68012D08D04D68022D05D04D68112D98
:1002000002D04D68122D18D1986856000325B540CC
:100210000646AE4330465600CD68B5402843986048
:100220005868012595400646AE43304610264D6875
:1002300035402D09954028435860D868560003255D
:10024000B5400646AE43304656008D68B54028435B
:10025000D860012636074D683540B5426DD13A4D1C
:100260009608B600A8599507EE0E0F25B54006462C
:10027000AE43304605252D07AB4202D1002510E0E4
:100280005BE0324DAB4201D101250AE0304DAB427B
:1002900001D1022505E02F4DAB4201D1032500E03D
:1002A00005259607F60EB5402843274D9608B6005B
:1002B000A851254D203528680546A5432846012626
:1002C00036044D683540B54202D1054625432846DF
:1002D0001D4D2035286068680546A543284601263F
:1002E00076044D683540B54202D10546254328467F
:1002F000154D20356860144D603D28680546A543BE
:100300002846012636054D683540B54202D10546DE
:10031000254328460C4D603D286068680546A54386
:100320002846012676054D683540B54202D105467E
:1003300025432846044D603D6860521C0D68D54039
:10034000002D00D024E770BD60180240000400506A
:1003500000080050000C0050024613690B40002BAF
:1003600001D0012000E000207047002A01D0816107
:1003700000E081627047000001480068704700009B
:10038000000000200348006803490968401801493B
:1003900008607047000000200800002010B500240D
:1003A00008480068FF210131084306490860002021
:1003B00000F00AF8002801D0012401E000F034F830
:1003C000204610BD00200240F8B504460025134821
:1003D000006800281ED0114801687D20C000FFF78A
:1003E00083FE074639460E480068FFF77DFE064645
:1003F00000F0D4FD00280BD1042C07D200222146A6
:10040000401E00F037F80748046004E0012502E0D0
:10041000012500E001252846F8BD00000800002065
:100420000C0000200400002008B500BF1048006840
:10043000012108430E49086008460068C007C00F44
:10044000009000BF00BF00BF09484038C06B89055D
:10045000084307494039C8630846C06B090408408F
:10046000009000BF00BF0320400200F08BFD08BDDC
:100470004010024070B504460D46164629462046F7
:1004800001F0AAFC70BD000070B504461148006878
:1004900003214902884320430E49086048158442DD
:1004A00016D10D4909680622514308460B49FFF74A
:1004B0001BFE451C05E0002D01D06D1E01E0032050
:1004C00070BD044840690121890208408842F2D089
:1004D0000020F5E7007000400C00002040420F00B3
:1004E000FEB504460027002002900121490420683F
:1004F000084088427BD1002001907748C06BC90238
:10050000084000280ED100BF7348C06B08437249F1
:10051000C8630846C06B09040840009000BF00BFD4
:10052000012001906D480068FF21013108436B49AB
:100530000860FFF721FF064606E0FFF71DFF801B5E
:10054000022801D9032706E064480068FF21013131
:1005500008400028F1D000BF002F4BD15E4840304A
:10056000C569032109020D40002D1AD0A069A842D7
:1005700017D059484030C069884305465648403036
:10058000C06901210904084353494031C861084644
:10059000C0690121090488434F494031C8610846B8
:1005A000C561E807C00F002813D0FFF7E5FE064637
:1005B00007E0FFF7E1FE801B4949884201D9032784
:1005C00006E045484030C069022108400028F0D0CC
:1005D00000BF002F0CD140484030C0690321090200
:1005E0008843A16908433C494031C86103E00DE0FC
:1005F000029700E002970198012806D13648C06BA7
:100600000121090788433449C86300BF2078C00727
:10061000C00F002809D03048403040698008800071
:10062000616808432C494031486102212068084034
:10063000022809D12848403040690C218843A1682C
:10064000084325494031486140212068084040283E
:100650000AD1214840304069032109038843E168F9
:1006600008431D4940314861012189032068084041
:10067000884213D118484030406980008008616981
:10068000084315494031486109066069884205D12F
:100690001148C068891308430F49C8600121C90285
:1006A00020680840884215D10B484030406903213A
:1006B0008903884321690843074940314861012182
:1006C00089032069884205D10348C068890008432E
:1006D0000149C8600298FEBD001002400070004051
:1006E0008813000070B504460D46002C01D101208E
:1006F00070BD6B4800684007400FA84218D2684898
:100700000068C008C000284365490860FFF734FE50
:10071000064607E0FFF730FE801B6249884201D998
:100720000320E5E75E4800684007400FA842F1D18A
:10073000022120680840022815D1042120680840C1
:10074000042807D1584880680721090388434018C6
:1007500055498860544880680F2109028843A16880
:100760000843514988602078C007C00F002854D042
:100770006068012808D14C480068012149040840FC
:1007800000282ED10120B3E76068022808D146482E
:100790000068012149060840002822D10120A7E76E
:1007A0006068002808D1404800680121890208409B
:1007B000002816D101209BE76068032808D13A4839
:1007C0004030006A0221084000280AD101208FE74A
:1007D00035484030C06902210840002801D101207D
:1007E00086E731488068C008C000616808432E4928
:1007F0008860FFF7C1FD064607E0FFF7BDFD801BDF
:100800002849884201D9032072E7274880683821A7
:1008100008406168C9008842EFD12148006840075C
:10082000400FA84218D91E480068C008C0002843DD
:100830001B490860FFF7A0FD064607E0FFF79CFD97
:10084000801B1849884201D9032051E714480068E9
:100850004007400FA842F1D1042120680840042835
:1008600008D111488068072109038843E1680843DB
:100870000D49886000F03AF80B4989680F2212028E
:100880001140090A8900094A515CC906C90EC840CD
:100890000749086007480068FFF796FD28E7000051
:1008A000002002408813000000100240541F00087E
:1008B0000C00002004000020014800687047000080
:1008C0000C00002000B5FFF7F7FF064989680722F2
:1008D00012031140090B8900034A515CC906C90E75
:1008E000C84000BD00100240941F0008FEB5354806
:1008F00080683821084000280DD13248006809027C
:100900000840C10A0120884000902F480099FFF755
:10091000EBFB044654E02B48806838210840082847
:1009200001D12A4C4CE02748806838210840102823
:1009300034D12448C0688607B60F2248C0687021A9
:1009400008400009401C0190022E0FD0032E0CD14C
:100950001E480199FFF7C8FB1A49C9687F22120295
:100960001140090A484305460DE000BF16480199A9
:10097000FFF7BAFB1349C9687F2212021140090A26
:100980004843054600BF00BF0E48C068400F471CE3
:1009900039462846FFF7A8FB044611E0094880685D
:1009A00038210840202801D1840209E005488068E8
:1009B00038210840182802D17D24240200E00024B8
:1009C0002046FEBD001002400024F40000127A0010
:1009D000FEB50446002C01D10120FEBD2078C007E1
:1009E000C00F00286FD0F748876838210F40C068D3
:1009F0008607B60F102F01D1032E01D0082F0BD17F
:100A0000F048006801214904084000285BD0606874
:100A1000002858D10120E0E700BF012109046068E7
:100A2000884205D1E74800680843E649086021E0AC
:100A300005210904606888420ED1E248006801215E
:100A400089040843DF490860084600680121090459
:100A50000843DC4908600DE0DA4800680121090418
:100A60008843D84908600846006801218904884302
:100A7000D449086000BF6068002812D0FFF77CFCF2
:100A8000054606E0FFF778FC401B642801D90320E7
:100A9000A3E7CC4800680121490408400028F1D0B0
:100AA00011E0FFF769FC054606E0FFF765FC401B17
:100AB000642801D9032090E7C24800680121490455
:100AC00008400028F1D1022120680840022873D193
:100AD000BC488068382108400746BA48C068860785
:100AE000B60F102F01D1022E01D0002F36D1B548FC
:100AF0000068012189020840002804D0E06800282D
:100B000001D1012069E7AF4840687F21090288438D
:100B1000616909020843AB494860002F16D10846B5
:100B200000680721C902884321690843A549086074
:100B3000084600680722D2021040C20A01209040F5
:100B40000146A148FFF7D0FAA0490860A048006814
:100B5000FFF73AFC002849D001203EE7E068002872
:100B60002BD0984800680721C902884321690843AF
:100B7000944908600846006889150843914908604F
:100B8000FFF7FAFB054606E0FFF7F6FB401B0228DD
:100B900001D9032021E78B48006801218902084020
:100BA0000028F1D0874840687F21090288436169A5
:100BB000090208438349486018E082480068FF2121
:100BC000013188437F490860FFF7D6FB054606E000
:100BD000FFF7D2FB401B022801D90320FDE679482C
:100BE00000680121890208400028F1D1082120680D
:100BF0000840082849D173488068382108401828DF
:100C00000BD170484030006A0221084000283CD0D7
:100C1000A069002839D10120DFE6A06900281AD098
:100C200068484030006A0121084366494031086243
:100C3000FFF7A2FB054606E0FFF79EFB401B0228DC
:100C400001D90320C9E65F484030006A022108400C
:100C50000028F1D019E05B484030006A40084000AD
:100C6000584940310862FFF787FB054606E0FFF769
:100C700083FB401B022801D90320AEE651484030D7
:100C8000006A022108400028F1D1042120680840B0
:100C900004287CD1002001904A488068382108400F
:100CA00020280BD147484030C06902210840002865
:100CB0006ED0A06800286BD101208EE64148C06B41
:100CC000010F01208843002810D000BF3D48C06BB1
:100CD0000121090708433B49C8630846C06B090462
:100CE0000840009000BF00BF012001903948006813
:100CF000FF2101310840002816D13648006808431A
:100D000034490860FFF738FB054606E0FFF734FB7F
:100D1000401B022801D903205FE62E480068FF210E
:100D2000013108400028F1D000BFA068012808D197
:100D300024484030C0690121084322494031C8613C
:100D400020E0A06805280FD11E484030C06904216A
:100D500008431C494031C8610846C0690121084365
:100D600018494031C8610DE016484030C06941085B
:100D7000490014484030C161C069042188431149C9
:100D80004031C86100BFA068002816D001E040E0F3
:100D90003EE0FFF7F1FA054607E0FFF7EDFA401BEA
:100DA0000D49884201D9032017E606484030C06942
:100DB000022108400028F0D01EE0FFF7DDFA0546CA
:100DC00014E00000001002400024F4000C00002099
:100DD000040000200070004088130000FFF7CCFAE8
:100DE000401B6449884201D90320F6E56248C06986
:100DF000022108400028F1D10198012808D15E485D
:100E00004038C06B0121090788435B494039C863FA
:100E100000BFE06900285AD0574840388068382120
:100E2000084010287ED0E069022851D1524840384D
:100E300000680121090688434F4940390860FFF7DF
:100E40009BFA054606E0FFF797FA401B022801D9F6
:100E50000320C2E54848403800680121490608409F
:100E60000028F0D1616A206A0843A16A0902084398
:100E7000E16A0843216B08433F494039C9683F4A4A
:100E8000114008433C494039C860084600680121C8
:100E9000090608433849403908600846C068090413
:100EA000084335494039C860FFF766FA054606E051
:100EB000FFF762FA401B022801D903208DE52E4876
:100EC000403800680121490608400028F0D04EE073
:100ED00029484038006801210906884326494039DD
:100EE00008600846C06880088000C8600846C0687E
:100EF0002349084020494039C860FFF73DFA0546BC
:100F000007E0FFF739FA401B022802D9032064E505
:100F100008E01948403800680121490608400028C7
:100F2000EFD124E0E069012800D156E512484038AD
:100F3000C668B107890F206A814216D170203040FF
:100F4000616A884211D17F2000023040A16A090203
:100F500088420AD11F2040043040E16A884204D10F
:100F6000710F4907206B814201D0012035E5002037
:100F700033E5000088130000401002408C80C11F40
:100F8000FFFFFEEF04490968032252029143014327
:100F9000014A1160704700000000014070B504462E
:100FA0002546681E0949884201D901200CE0681EC7
:100FB000074948610321081F00F00EFF0020044983
:100FC000886107200861002070BD0000FFFFFF005E
:100FD00000E000E0014600BF7C20405C012801D118
:100FE0000220704701237C20435400BF242380202B
:100FF00043500868026808680068400840000B68B1
:10100000186001235B07104698430246002048669B
:101010000868026020238020435000BF00237C200A
:10102000435400BF0020DCE770B504460D4600BF06
:101030007C20005D012801D1022070BD01217C20AF
:10104000015500BF242180200151206806682068D6
:101050000068400840002168086020688068072117
:1010600049068843284321688860204600F038FA02
:101070002068066020218020015100BF00217C20D3
:10108000015500BF0020D8E770B504460D4600BFEB
:101090007C20005D012801D1022070BD01217C204F
:1010A000015500BF24218020015120680668206876
:1010B0000068400840002168086020688068C0001F
:1010C000C008284321688860204600F009FA20689B
:1010D000066020218020015100BF00217C200155A5
:1010E00000BF0020D9E710B50446002C01D1012033
:1010F00010BDA069002800D000E000BF802000598A
:10110000002805D100217C200155204600F02CF854
:101110002421802001512068006840084000216897
:101120000860204600F0D0FA012800D1E0E7A06A6C
:10113000002802D0204600F015FA206840680921F6
:10114000C902884321684860206880682A21884352
:1011500021688860206800680121084321680860D0
:10116000204600F077FAC3E710B586B00446142194
:1011700001A8FEF7EAFF1949206888422BD100BF79
:101180001748C06B0121490408431549C863084644
:10119000C06B012149040840009000BF00BF00BFA0
:1011A0000F48406B012108430D4948630846406BD6
:1011B000C007C00F009000BF00BF0C2001900220AC
:1011C00002900020039004900120059001A90520C1
:1011D0000007FEF7D9FF06B010BD00000044004034
:1011E0000010024000BFFEE700B587B0142102A83E
:1011F000FEF7ABFF00BF1848406B042108431649B7
:1012000048630846406B04210840019000BF00BFBE
:1012100010200290012003900020049003200590EC
:1012200002A90E48FEF7B0FF012210210B48FFF77C
:101230009CF82020029001200390002004900320BD
:10124000059002A90548FEF79FFF012220210348CF
:10125000FFF78BF807B000BD0010024000080050F7
:10126000F7B50C46154627462E4600F027FE009897
:1012700000F03CF806E000F00BF8711E0E467854C2
:1012800000F000FE002EF6D100F036FE0020FEBD7C
:101290001CB50021009101911EE0694608784006C6
:1012A000000E0090012220210F48FFF75EF8022077
:1012B00000F0DDFD10210C48FFF74EF86946097873
:1012C00008430090002220210748FFF74EF86946A6
:1012D0000879401CC0B20190684600790828DCDB20
:1012E000684600781CBD0000000800501CB504468C
:1012F00000210191009101912AE08020204000907E
:1013000069460878002805D0012210211348FFF70C
:101310002CF804E0002210211048FFF726F80122E3
:1013200020210E48FFF721F8022000F0A0FD002246
:1013300020210A48FFF719F8002210210748FFF77B
:1013400014F86006040E68460079401CC1B2019191
:10135000684600790828D0DB1CBD0000000800505A
:1013600000B587B0142102A8FEF7EFFE00BF1148B8
:10137000406B012108430F4948630846406BC00792
:10138000C00F019000BF00BF0022202105200007F0
:10139000FEF7EBFF20200290012003900020049034
:1013A0000220059002A905200007FEF7EDFE07B018
:1013B00000BD00000010024010B51A481A4908602C
:1013C000E12040024860002117488160C16001614E
:1013D0000C21416100218161C161016241620020F3
:1013E000114988620846FFF77EFE002801D0FEF70B
:1013F000C9FE00210C48FFF747FE002801D0FEF788
:10140000C1FE00210848FFF70FFE002801D0FEF7BB
:10141000B9FE0548FFF7DEFD002801D0FEF7B2FE59
:1014200010BD0000004400401000002070477047CD
:10143000704710B5FEF7A6FF10BD00B599B0342176
:101440000CA8FEF782FE0020089009900A900B90ED
:101450001C2101A8FEF779FE01204002FFF714F8D5
:1014600002200C90C0010F9000201090402011909D
:101470000220139002211491002115910821169148
:1014800001041791010718910CA8FFF7A1FA002891
:1014900001D0FEF777FE0720089002200990002077
:1014A0000A900B90022108A8FFF71CF9002801D030
:1014B000FEF768FE022001900020039001A8FFF7CC
:1014C0000FF8002801D0FEF75DFE19B000BD000046
:1014D0000120C006014988607047000000ED00E06F
:1014E000F0B585B004461BA103C9039102901BA16E
:1014F00003C901910090606E002805D101216A2086
:1015000001536820015322E0082708220492206832
:101510008068072149060840450E20688068460F0C
:101520006A46915D02AA935D049A53431846FEF7FA
:10153000F1FD81B26A2001536A46515D02AA525DF3
:101540007A431046FEF7E6FD81B26820015305B0EC
:10155000F0BD0000010101030701000008040204BE
:1015600008010101018DC907C90F002908D00168D0
:101570004968012252049143C26A114302685160D2
:101580000222816A1140022907D101684968D20309
:101590009143026B1143026851600422816A114039
:1015A000042907D10168496812049143426B114331
:1015B000026851600822816A1140082907D1016838
:1015C000496812039143826B1143026851601022F3
:1015D000816A1140102907D101688968120291437C
:1015E000C26B1143026891602022816A1140202958
:1015F00007D10168896812029143026C11430268A5
:1016000091604022816A1140402915D101684968E2
:1016100092039143426C114302685160012212050A
:10162000416C914208D101684968032252059143F7
:10163000826C1143026851608022816A11408029C6
:1016400007D10168496812039143C26C11430268D3
:101650005160704738B50446002188200151FEF7DB
:101660008BFE0546206800680821084008280BD139
:1016700014482B46002289040090204600F074FB99
:10168000002801D0032038BD2068006804210840EC
:1016900004280BD10B482B46002209050090204658
:1016A00000F062FB002801D00320ECE7202180201D
:1016B00001518420015100BF00217C20015500BF51
:1016C0000020E0E7FFFFFF01F0B585B004460026EB
:1016D0000020029001902169A068084361690843D5
:1016E000E16908430490606E0499084304902068FF
:1016F0000068F94908400499084321680860206897
:101700004068032109038843E16808432168486071
:10171000A0690490206A04990843049020688068B6
:10172000EE49084004990843216888602068C06A2F
:1017300000090001616A08432168C86200BFE849E6
:101740002068884217D1E74840698007800F002849
:1017500006D0012808D0022804D0032808D105E0CB
:10176000002507E0022505E0042503E0082501E047
:10177000102500BF28E0DC492068884217D1D948ED
:1017800040690C210840002806D0042808D0082809
:1017900004D00C2808D105E0002507E0022505E06B
:1017A000042503E0082501E0102500BF0CE0CF4927
:1017B0002068884201D1002506E0CD492068884292
:1017C00001D1002500E0102500BF0121C903E06917
:1017D000884270D1002D06D0022D53D0042D6BD03D
:1017E000082D6AD1ECE0FFF76DF80746606A002823
:1017F00001D1012038E0606A012801D1022033E0E4
:10180000606A022801D104202EE0606A032801D119
:10181000062029E0606A042801D1082024E0606ADB
:10182000052801D10A201FE0606A062801D10C209A
:101830001AE0606A072801D1102015E0606A0828C4
:1018400001D1202010E0606A092801D140200BE07E
:10185000606A0A2801D1802006E0606A0B2802D164
:10186000FF20013000E0012001463846FEF73CFC35
:10187000400061684908401800906168FEF734FC38
:1018800086B2EDE0606A002801D101203BE0606A89
:10189000012801D1022036E0606A022801D104202B
:1018A00031E0606A032801D106202CE0606A042838
:1018B00004D1082027E0E9E033E0CEE0606A0528A3
:1018C00001D10A201FE0606A062801D10C201AE02D
:1018D000606A072801D1102015E0606A082801D14C
:1018E000202010E0606A092801D140200BE0606AE6
:1018F0000A2801D1802006E0606A0B2802D1FF206F
:10190000013000E0012001467A48FEF7EDFB40007F
:1019100061684908401800906168FEF7E5FB86B2EF
:101920009EE0FEF7E3FF0746606A002801D1012030
:1019300038E0606A012801D1022033E0606A0228A1
:1019400001D104202EE0606A032801D1062029E09D
:10195000606A042801D1082024E0606A052801D1CA
:101960000A201FE0606A062801D10C201AE0606A94
:10197000072801D1102015E0606A082801D1202035
:1019800010E0606A092801D140200BE0606A0A2853
:1019900001D1802006E0606A0B2802D1FF200130CF
:1019A00000E0012001463846FEF79EFB40006168DA
:1019B0004908401800906168FEF796FB86B24FE038
:1019C000606A002801D1012038E0606A012801D155
:1019D000022033E0606A022801D104202EE0606A10
:1019E000032801D1062029E0606A042801D10820DB
:1019F00024E0606A052801D10A201FE0606A0628F9
:101A000001D10C201AE0606A072801D1102015E0EE
:101A1000606A082801D1202010E0606A092801D1FD
:101A200040200BE0606A0A2801D1802006E0606A4D
:101A30000B2802D1FF20013000E0012001460120E7
:101A4000C003FEF751FB4000616849084018009050
:101A50006168FEF749FB86B202E00120029000BFF8
:101A600000BF102E0FD3244886420CD822480F38CE
:101A7000304003903007400F0399084303900398C8
:101A80002168C86061E1012002905EE1002D06D06E
:101A9000022D65D0042D72D0082D71D1FBE0FEF728
:101AA00011FF0746606A002801D101204BE0606AFF
:101AB000012801D1022046E0606A022801D10420F9
:101AC00041E0606A032801D106203CE0606A0428F6
:101AD00014D1082037E00000F369FFCFFFF4FF11B5
:101AE00000380140401002400044004000480040DF
:101AF000004C00400024F400FFFF0000606A05284D
:101B000001D10A201FE0606A062801D10C201AE0EA
:101B1000606A072801D1102015E0606A082801D109
:101B2000202010E0606A092801D140200BE0606AA3
:101B30000A2801D1802006E0606A0B2802D1FF202C
:101B4000013000E0012001463846FEF7CDFA616819
:101B50004908401800906168FEF7C6FA86B2E9E0CD
:101B6000606A002801D101203AE0606A012801D1B1
:101B7000022035E0606A022803D1042030E03CE016
:101B8000D5E0606A032801D1062029E0606A0428B4
:101B900001D1082024E0606A052801D10A201FE055
:101BA000606A062801D10C201AE0606A072801D17A
:101BB000102015E0606A082801D1202010E0606A3A
:101BC000092801D140200BE0606A0A2801D1802059
:101BD00006E0606A0B2802D1FF20013000E00120FE
:101BE00001465F48FEF780FA616849084018009096
:101BF0006168FEF779FA86B29CE0FEF777FE074649
:101C0000606A002801D1012038E0606A012801D112
:101C1000022033E0606A022801D104202EE0606ACD
:101C2000032801D1062029E0606A042801D1082098
:101C300024E0606A052801D10A201FE0606A0628B6
:101C400001D10C201AE0606A072801D1102015E0AC
:101C5000606A082801D1202010E0606A092801D1BB
:101C600040200BE0606A0A2801D1802006E0606A0B
:101C70000B2802D1FF20013000E001200146384648
:101C8000FEF732FA61684908401800906168FEF773
:101C90002BFA86B24EE0606A002801D1012038E0BC
:101CA000606A012801D1022033E0606A022801D174
:101CB00004202EE0606A032801D1062029E0606A32
:101CC000042801D1082024E0606A052801D10A20F7
:101CD0001FE0606A062801D10C201AE0606A07281C
:101CE00001D1102015E0606A082801D1202010E001
:101CF000606A092801D140200BE0606A0A2801D1FE
:101D0000802006E0606A0B2802D1FF20013000E04D
:101D1000012001460120C003FEF7E6F96168490889
:101D2000401800906168FEF7DFF986B202E00120FA
:101D3000029000BF00BF102E05D30A48864202D889
:101D40002068C66001E00120029001216A20015351
:101D5000682001530020E0662067029805B0F0BDBE
:101D60000024F400FFFF0000FFB581B004460D46DB
:101D700017460A9E24E0701C002821D0FEF7FCFACA
:101D80000499401AB04201D8002E19D12068006889
:101D9000FF21A131884321680860206880684008DD
:101DA0004000216888602021802001518420015159
:101DB00000BF00217C20015500BF032005B0F0BD0D
:101DC0002068C0692840A84201D1012000E000201D
:101DD000B842D0D00020F1E710B5002819DB1A4A2C
:101DE00003231B02D21883089B00D2588307DC0E02
:101DF000FF23A3409A438B071B0E8407E40EA340E6
:101E00001A43114B032424021B198408A4001A51FD
:101E100018E00E4A03071B0F083B9B089B00D25893
:101E20008307DC0EFF23A3409A438B071B0E840716
:101E3000E40EA3401A43054B0407240F083CA408F2
:101E4000A4001A5110BD000000E100E01CED00E00C
:101E500002E008C8121F08C1002AFAD17047704773
:101E6000002001E001C1121F002AFBD1704708B514
:101E700006214143009100BF00994A1E00920029AB
:101E8000FAD108BD10B5002210210B48FEF76DFAFB
:101E9000012220210848FEF768FA0220FFF7E7FF39
:101EA000002220210448FEF760FA01221021024896
:101EB000FEF75BFA10BD00000008005010B50122CB
:101EC00020210C48FEF751FA012210210948FEF7A3
:101ED0004CFA0220FFF7CBFF002210210548FEF745
:101EE00044FA002220210348FEF73FFA0C20FFF7B6
:101EF000BEFF10BD0008005010B500221021074899
:101F0000FEF733FA012220210448FEF72EFA0122BF
:101F100010210248FEF729FA10BD00000008005009
:101F20001CB50AA103C901910090FEF737FAFFF72B
:101F300084FAFFF715FAFFF73FFAFFF755F9042285
:101F40006946A120FFF78CF900BFFEE700010203FC
:101F50000405000000000000000000000000000078
:101F60000000000000000000000000000000000071
:101F7000000000000100000002000000030000005B
:101F80000400000006000000070000000800000038
:101F90000900000000000000000000000000000038
:101FA000000000000100000002000000030000002B
:101FB00004000000D41F00080000002010000000F2
:101FC000501E0008E41F00081000002090040000CC
:101FD000601E000800000000040000000100000076
:041FE0000024F400E5
:04000005080000B936
:00000001FF
